:020000040800F2
:1000000000500020013D00086138000863380008F6
:1000100065380008673800086938000800000000EB
:100020000000000000000000000000006B38000825
:100030006D380008000000006F38000871380008B3
:10004000493D0008493D0008493D0008493D000878
:10005000493D0008493D0008493D0008493D000868
:10006000493D0008493D0008493D0008493D000858
:10007000493D0008493D0008493D0008493D000848
:10008000493D0008493D0008493D0008493D000838
:10009000493D0008493D0008493D0008493D000828
:1000A000493D0008493D0008493D0008493D000818
:1000B000493D000879380008353A0008493D0008F4
:1000C000493D0008493D0008493D0008493D0008F8
:1000D000493D0008493D0008493D0008493D0008E8
:1000E000493D0008493D0008493D00080000000066
:1000F0000000000000000000000000000000000000
:0C01000000000000000000005FF808F1A3
:1001100010B5054C237833B9044B13B10448AFF341
:1001200000800123237010BD7C000020000000002F
:100130007848000808B5034B1BB103490348AFF3E7
:10014000008008BD00000000800000207848000802
:1001500081F0004102E000BF83F0004330B54FEA78
:1001600041044FEA430594EA050F08BF90EA020FE5
:100170001FBF54EA000C55EA020C7FEA645C7FEA78
:10018000655C00F0E2804FEA5454D4EB5555B8BF9B
:100190006D420CDD2C4480EA020281EA030382EA0C
:1001A000000083EA010180EA020281EA0303362D9E
:1001B00088BF30BD11F0004F4FEA01314FF4801C71
:1001C0004CEA113102D0404261EB410113F0004F83
:1001D0004FEA03334CEA133302D0524263EB43033A
:1001E00094EA050F00F0A780A4F10104D5F1200ED8
:1001F0000DDB02FA0EFC22FA05F2801841F1000133
:1002000003FA0EF2801843FA05F359410EE0A5F106
:1002100020050EF1200E012A03FA0EFC28BF4CF037
:10022000020C43FA05F3C01851EBE37101F00045ED
:1002300007D54FF0000EDCF1000C7EEB00006EEBFA
:100240000101B1F5801F1BD3B1F5001F0CD3490884
:100250005FEA30004FEA3C0C04F101044FEA4452DB
:1002600012F5800F80F09A80BCF1004F08BF5FEA62
:10027000500C50F1000041EB045141EA050130BD42
:100280005FEA4C0C404141EB010111F4801FA4F1E5
:100290000104E9D191F0000F04BF01460020B1FA3A
:1002A00081F308BF2033A3F10B03B3F120020CDA72
:1002B0000C3208DD02F1140CC2F10C0201FA0CF050
:1002C00021FA02F10CE002F11402D8BFC2F1200CB5
:1002D00001FA02F120FA0CFCDCBF41EA0C0190406B
:1002E000E41AA2BF01EB0451294330BD6FEA0404B4
:1002F0001F3C1CDA0C340EDC04F11404C4F120029F
:1003000020FA04F001FA02F340EA030021FA04F3B0
:1003100045EA030130BDC4F10C04C4F1200220FA07
:1003200002F001FA04F340EA0300294630BD21FA45
:1003300004F0294630BD94F0000F83F4801306BF0B
:1003400081F480110134013D4EE77FEA645C18BFFF
:100350007FEA655C29D094EA050F08BF90EA020F96
:1003600005D054EA000C04BF1946104630BD91EA8E
:10037000030F1EBF0021002030BD5FEA545C05D191
:100380004000494128BF41F0004130BD14F58004D0
:100390003CBF01F5801130BD01F0004545F0FE4144
:1003A00041F470014FF0000030BD7FEA645C1ABF79
:1003B000194610467FEA655C1CBF0B46024650EAB0
:1003C000013406BF52EA033591EA030F41F40021DC
:1003D00030BD00BF90F0000F04BF0021704730B562
:1003E0004FF4806404F132044FF000054FF0000137
:1003F00050E700BF90F0000F04BF0021704730B5F8
:100400004FF4806404F1320410F0004548BF4042CC
:100410004FF000013EE700BF42004FEAE2014FEA21
:1004200031014FEA02701FBF12F07F4393F07F4FFC
:1004300081F06051704792F0000F14BF93F07F4F2E
:10044000704730B54FF4607401F0004521F0004171
:1004500020E700BF50EA010208BF704730B54FF0F7
:1004600000050AE050EA010208BF704730B511F0FC
:10047000004502D5404261EB41014FF4806404F134
:1004800032045FEA915C3FF4DCAE4FF003025FEAB6
:10049000DC0C18BF03325FEADC0C18BF033202EB3E
:1004A000DC02C2F1200300FA03FC20FA02F001FA98
:1004B00003FE40EA0E0021FA02F11444C1E600BF37
:1004C00070B54FF0FF0C4CF4E06C1CEA11541DBFEA
:1004D0001CEA135594EA0C0F95EA0C0F00F0DEF8B5
:1004E0002C4481EA030621EA4C5123EA4C5350EA9A
:1004F000013518BF52EA033541F4801143F48013EB
:1005000038D0A0FB02CE4FF00005E1FB02E506F07B
:100510000042E0FB03E54FF00006E1FB03569CF0D0
:10052000000F18BF4EF0010EA4F1FF04B6F5007FD6
:1005300064F5407404D25FEA4E0E6D4146EB060648
:1005400042EAC62141EA55514FEAC52040EA5E50D1
:100550004FEACE2EB4F1FD0C88BFBCF5E06F1ED87B
:10056000BEF1004F08BF5FEA500E50F1000041EBB2
:10057000045170BD06F0004646EA010140EA02005F
:1005800081EA0301B4EB5C04C2BFD4EB0C0541EA81
:10059000045170BD41F480114FF0000E013C00F396
:1005A000AB8014F1360FDEBF002001F0004170BDBA
:1005B000C4F10004203C35DA0C341BDC04F11404D3
:1005C000C4F1200500FA05F320FA04F001FA05F25F
:1005D00040EA020001F0004221F0004110EBD3702C
:1005E00021FA04F642EB06015EEA430E08BF20EA58
:1005F000D37070BDC4F10C04C4F1200500FA04F3FB
:1006000020FA05F001FA04F240EA020001F000418C
:1006100010EBD37041F100015EEA430E08BF20EAFF
:10062000D37070BDC4F1200500FA05F24EEA020E47
:1006300020FA04F301FA05F243EA020321FA04F076
:1006400001F0004121FA04F220EA020000EBD3702D
:100650005EEA430E08BF20EAD37070BD94F0000F2D
:100660000FD101F00046400041EB010111F4801F61
:1006700008BF013CF7D041EA060195F0000F18BF12
:10068000704703F00046520043EB030313F4801F4E
:1006900008BF013DF7D043EA0603704794EA0C0F08
:1006A0000CEA135518BF95EA0C0F0CD050EA41061E
:1006B00018BF52EA4306D1D181EA030101F000419B
:1006C0004FF0000070BD50EA410606BF10461946C3
:1006D00052EA430619D094EA0C0F02D150EA0136CF
:1006E00013D195EA0C0F05D152EA03361CBF104610
:1006F00019460AD181EA030101F0004141F0FE41AF
:1007000041F470014FF0000070BD41F0FE4141F432
:10071000780170BD70B54FF0FF0C4CF4E06C1CEA32
:1007200011541DBF1CEA135594EA0C0F95EA0C0FE7
:1007300000F0A7F8A4EB050481EA030E52EA0335A2
:100740004FEA013100F088804FEA03334FF08055C3
:1007500045EA131343EA12634FEA022245EA1115F0
:1007600045EA10654FEA00260EF000419D4208BFA1
:10077000964244F1FD0404F5407402D25B084FEA4E
:100780003202B61A65EB03055B084FEA32024FF4FA
:1007900080104FF4002CB6EB020E75EB030E22BF57
:1007A000B61A754640EA0C005B084FEA3202B6EB17
:1007B000020E75EB030E22BFB61A754640EA5C00C6
:1007C0005B084FEA3202B6EB020E75EB030E22BF56
:1007D000B61A754640EA9C005B084FEA3202B6EB57
:1007E000020E75EB030E22BFB61A754640EADC0016
:1007F00055EA060E18D04FEA051545EA16754FEA78
:1008000006164FEAC30343EA52734FEAC2025FEA95
:100810001C1CC0D111F4801F0BD141EA00014FF024
:1008200000004FF0004CB6E711F4801F04BF0143F5
:100830000020B4F1FD0C88BFBCF5E06F3FF6AFAE11
:10084000B5EB030C04BFB6EB020C5FEA500C50F1A1
:10085000000041EB045170BD0EF0004E4EEA113124
:1008600014EB5C04C2BFD4EB0C0541EA045170BD2B
:1008700041F480114FF0000E013C90E645EA060E6F
:100880008DE60CEA135594EA0C0F08BF95EA0C0F9D
:100890003FF43BAF94EA0C0F0AD150EA01347FF4E5
:1008A00034AF95EA0C0F7FF425AF104619462CE7BC
:1008B00095EA0C0F06D152EA03353FF4FDAE10461F
:1008C000194622E750EA410618BF52EA43067FF470
:1008D000C5AE50EA41047FF40DAF52EA43057FF400
:1008E000EBAE12E74FF0FF3C06E000BF4FF0010C0B
:1008F00002E000BF4FF0010C4DF804CD4FEA410C6F
:100900007FEA6C5C4FEA430C18BF7FEA6C5C1BD03B
:1009100001B050EA410C0CBF52EA430C91EA030FBC
:1009200002BF90EA020F0020704710F1000F91EA19
:10093000030F58BF994208BF90422CBFD8176FEAE7
:10094000E37040F0010070474FEA410C7FEA6C5CB5
:1009500002D150EA013C07D14FEA430C7FEA6C5CBC
:10096000D6D152EA033CD3D05DF8040B704700BFE8
:100970008446104662468C461946634600E000BF36
:1009800001B5FFF7B7FF002848BF10F1000F01BD08
:100990004DF808EDFFF7F4FF0CBF012000205DF8D3
:1009A00008FB00BF4DF808EDFFF7EAFF34BF012058
:1009B00000205DF808FB00BF4DF808EDFFF7E0FFF1
:1009C00094BF012000205DF808FB00BF4DF808ED42
:1009D000FFF7CEFF94BF012000205DF808FB00BFA9
:1009E0004DF808EDFFF7C4FF34BF012000205DF88B
:1009F00008FB00BF4FEA410C7FEA6C5C02D150EA71
:100A0000013C0AD14FEA430C7FEA6C5C02D152EA06
:100A1000033C02D14FF0000070474FF001007047D7
:100A20004FEA410212F5001215D211D56FF4787316
:100A3000B3EB625212D94FEAC12343F0004343EAB9
:100A4000505311F0004F23FA02F018BF4042704794
:100A50004FF00000704750EA013005D111F000401E
:100A600008BF6FF0004070474FF00000704700BFB4
:100A70004A0011D212F5001211D20DD56FF478731D
:100A8000B3EB62520ED44FEAC12343F0004343EA72
:100A9000505323FA02F070474FF00000704750EABD
:100AA000013002D14FF0FF3070474FF00000704727
:100AB0004FEA4102B2F1E04324BFB3F5001CDCF180
:100AC000FE5C0DD901F0004C4FEAC0024CEA5070B8
:100AD000B2F1004F40EB830008BF20F001007047E7
:100AE00011F0804F21D113F13872BCBF01F00040EA
:100AF000704741F480114FEA5252C2F11802C2F11C
:100B0000200C10FA0CF320FA02F018BF40F001009C
:100B10004FEAC1234FEAD32303FA0CFC40EA0C004E
:100B200023FA02F34FEA4303CCE77FEA625307D18B
:100B300050EA01331EBF4FF0FE4040F440007047C2
:100B400001F0004040F0FE4040F40000704700BF5C
:100B500080F0004002E000BF81F0004142001FBF72
:100B60005FEA410392EA030F7FEA226C7FEA236C7B
:100B70006AD04FEA1262D2EB1363C1BFD218414070
:100B800048404140B8BF5B42192B88BF704710F006
:100B9000004F40F4000020F07F4018BF404211F0A9
:100BA000004F41F4000121F07F4118BF494292EA11
:100BB000030F3FD0A2F1010241FA03FC10EB0C003D
:100BC000C3F1200301FA03F100F0004302D54942CA
:100BD00060EB4000B0F5000F13D3B0F1807F06D377
:100BE00040084FEA310102F10102FE2A51D2B1F16F
:100BF000004F40EBC25008BF20F0010040EA030064
:100C00007047490040EB000010F4000FA2F1010210
:100C1000EDD1B0FA80FCACF1080CB2EB0C0200FA9A
:100C20000CF0AABF00EBC25052421843BCBFD040E8
:100C30001843704792F0000F81F4000106BF80F462
:100C400000000132013BB5E74FEA41037FEA226C25
:100C500018BF7FEA236C21D092EA030F04D092F0F0
:100C6000000F08BF0846704790EA010F1CBF002024
:100C7000704712F07F4F04D1400028BF40F0004081
:100C8000704712F100723CBF00F50000704700F0A1
:100C9000004343F0FE4040F4000070477FEA2262C8
:100CA00016BF08467FEA23630146420206BF5FEA99
:100CB000412390EA010F40F4800070474FF0000399
:100CC00004E000BF10F0004348BF40425FEA000C60
:100CD00008BF704743F0964301464FF000001CE008
:100CE00050EA010208BF70474FF000030AE000BF5E
:100CF00050EA010208BF704711F0004302D540429C
:100D000061EB41015FEA010C02BF8446014600200D
:100D100043F0B64308BFA3F18053A3F50003BCFA28
:100D20008CF2083AA3EBC25310DB01FA02FC6344D5
:100D300000FA02FCC2F12002BCF1004F20FA02F2DC
:100D400043EB020008BF20F00100704702F12002CF
:100D500001FA02FCC2F1200250EA4C0021FA02F230
:100D600043EB020008BF20EADC7070474FF0FF0C35
:100D70001CEAD0521EBF1CEAD15392EA0C0F93EA30
:100D80000C0F6FD01A4480EA010C400218BF5FEAD2
:100D900041211ED04FF0006343EA501043EA511145
:100DA000A0FB01310CF00040B1F5000F3EBF49003F
:100DB00041EAD3715B0040EA010062F17F02FD2A43
:100DC0001DD8B3F1004F40EBC25008BF20F0010026
:100DD000704790F0000F0CF0004C08BF49024CEA3D
:100DE000502040EA51207F3AC2BFD2F1FF0340EACF
:100DF000C250704740F400004FF00003013A5DDC40
:100E000012F1190FDCBF00F000407047C2F1000280
:100E1000410021FA02F1C2F1200200FA02FC5FEA6D
:100E2000310040F1000053EA4C0308BF20EADC70B7
:100E3000704792F0000F00F0004C02BF400010F429
:100E4000000F013AF9D040EA0C0093F0000F01F0D6
:100E5000004C02BF490011F4000F013BF9D041EAF8
:100E60000C018FE70CEAD15392EA0C0F18BF93EAFA
:100E70000C0F0AD030F0004C18BF31F0004CD8D124
:100E800080EA010000F00040704790F0000F17BFAB
:100E900090F0004F084691F0000F91F0004F14D0F1
:100EA00092EA0C0F01D142020FD193EA0C0F03D149
:100EB0004B0218BF084608D180EA010000F000404C
:100EC00040F0FE4040F40000704740F0FE4040F427
:100ED000400070474FF0FF0C1CEAD0521EBF1CEAC6
:100EE000D15392EA0C0F93EA0C0F69D0A2EB0302E4
:100EF00080EA010C49024FEA402037D04FF080537E
:100F000043EA111143EA10130CF000408B4238BF42
:100F10005B0042F17D024FF4000C8B4224BF5B1A50
:100F200040EA0C00B3EB510F24BFA3EB510340EA9E
:100F30005C00B3EB910F24BFA3EB910340EA9C004C
:100F4000B3EBD10F24BFA3EBD10340EADC001B01BC
:100F500018BF5FEA1C1CE0D1FD2A3FF650AF8B4260
:100F600040EBC25008BF20F0010070470CF0004C6D
:100F70004CEA50207F32C2BFD2F1FF0340EAC25098
:100F8000704740F400004FF00003013A37E792F059
:100F9000000F00F0004C02BF400010F4000F013AB7
:100FA000F9D040EA0C0093F0000F01F0004C02BFB2
:100FB000490011F4000F013BF9D041EA0C0195E71B
:100FC0000CEAD15392EA0C0F08D142027FF47DAFB4
:100FD00093EA0C0F7FF470AF084676E793EA0C0FA4
:100FE00004D14B023FF44CAF08466EE730F0004CA2
:100FF00018BF31F0004CCAD130F000427FF45CAF32
:1010000031F000437FF43CAF5FE700BF4FEA40029E
:10101000B2F1FE4F0FD34FF09E03B3EB12620DD926
:101020004FEA002343F0004310F0004F23FA02F090
:1010300018BF404270474FF00000704712F1610F37
:1010400001D1420205D110F0004008BF6FF000400E
:1010500070474FF00000704738B50E4B05461878C2
:101060004FF47A73B3FBF0F30B4A1068B0FBF3F064
:1010700000F09EF8044658B90F2D09D802462946BB
:101080004FF0FF3000F054F8044B20461D6038BD8F
:10109000012038BD000000201000002004000020C6
:1010A000074A08B51368032043F01003136000F0EB
:1010B0002DF80020FFF7D0FF02F0B0FB002008BDA4
:1010C00000200240034A044B11681B780B44136054
:1010D000704700BFA004002000000020014B1868EA
:1010E000704700BFA004002038B50446FFF7F6FFA4
:1010F0000546631C1EBF044B1B78E418FFF7EEFF88
:10110000401B8442FAD838BD00000020074A000284
:10111000D36800F4E06023F4E0631B041B0C43F08D
:10112000BF6343F400330343D360704700ED00E036
:10113000174B30B5DC68C4F30224C4F10703251D46
:10114000042B28BF0423062D4FF0010598BF00246F
:1011500005FA03F303F1FF3388BF033C1940A140B4
:1011600005FA04F4013C2240002842EA01024FEA59
:101170000212AFBF00F16040064B00F00F00D2B288
:10118000A5BFD2B200F561401A5480F8002330BDEB
:1011900000ED00E014ED00E00123420900F01F0023
:1011A00003FA00F0014B43F82200704700E100E031
:1011B0000138B0F1807F0AD2F021064B064A586010
:1011C00082F823100020072298601A6070470120DF
:1011D000704700BF10E000E000ED00E02DE9F74FA0
:1011E00000221646654BDFF8A4E1DFF8A4C14FF0FA
:1011F00001080C6808FA06F808EA0404A0457FD143
:101200004D68122D00F0AF8000F28880022D00F0B2
:10121000A7807CD8002D00F08E80012D00F09E80EC
:101220004FF00F09FF2C93BF824606F18045083D21
:10123000D0F800B092BFB500D0F804B0AD0009FA04
:1012400005F82BEA080802FA05F588BF00F1040A40
:1012500048EA0505CAF80050D1F804A01AF0805FEA
:101260004ED0474D464FAD6926F0030845F00105C5
:10127000BD61BD6908F1804805F00105019508F5DB
:10128000803806F0030B019D4FEA8B0BD8F808500D
:1012900009FA0BF925EA09093A4DA84268D005F583
:1012A0008065A84266D005F58065A84264D005F542
:1012B0008065A8420CBF0325042505FA0BF545EA15
:1012C0000905C8F808501D681AF4803F14BF25436B
:1012D000A5431D605D681AF4003F14BF2543A54374
:1012E0005D609D681AF4801F14BF2543A5439D606F
:1012F000DD681AF4001F14BF2C4325EA0404DC60E7
:101300000136102E7FF473AF03B0BDE8F08F032DCC
:1013100022D0112D84D1CA68043281E71A4FBD4210
:1013200009D012D8DFF86C904D4504D009F580390A
:101330004D457FF475AF8A68C2B1012A0CBFC0F871
:101340001080C0F8148008226AE77545F3D065451F
:10135000F1D0DFF84490EBE7002261E7CA685FE76D
:10136000CA6808325CE7CA680C3259E7042257E7BA
:101370000025A2E70125A0E702259EE70004014021
:101380000010024000080140000021100000311050
:101390000000321000001110000022100268536992
:1013A00013F480630DD06FF4806353610423202213
:1013B00003640023036380F83C3080F83D20012063
:1013C0007047184670472DE9F8430446174699467A
:1013D000C1F307488EB22568B8F1010F0CBF6B69E5
:1013E000AB6936EA030314BF0120002008B9BDE849
:1013F000F8836B695A0512D52B68202243F40073D9
:101400002B606FF480636B6104232364002301204D
:10141000236384F83C3084F83D20BDE8F8837B1CCE
:10142000D9D04FB900232022236384F83C3084F8BC
:101430003D200320BDE8F883FFF750FEA0EB090034
:101440008742C8D2EEE72DE9F843044690461F468E
:10145000089EC1F307498DB22368B9F1010F0CBF93
:101460005B699B6935EA03030CBF012300234345F5
:1014700002D00020BDE8F8837B1CEDD05FB90023CB
:101480002022236384F83C3084F83D20032084F834
:101490003E30BDE8F883FFF721FE801B8742DBD298
:1014A000EDE770B504460D46164623685B691B06DA
:1014B00001D5002070BD2046FFF770FFA8B96A1C57
:1014C000F3D065B9236C202243F02003236400236A
:1014D0000320236384F83C3084F83D2070BDFFF77F
:1014E000FDFD801B8542E0D2ECE7012070BD0000CD
:1014F0002DE9FF4115460268984613680B9E43F498
:10150000807313600F4600960A9B00224FF0011172
:101510000446FFF798FF68B9236807F0FE071F61CC
:101520000A9A33461A492046FFF74DFF30B1236C23
:10153000042B18D0032004B0BDE8F0812368039089
:101540005A690A9903929B69324603932046039B8A
:10155000FFF7A7FF48B1236C042BEBD12268136877
:1015600043F4007313600120E5E7B8F1010F23682D
:1015700002D1EDB21D61DEE72A0A1A610A993246EC
:101580002046FFF78EFF0028E5D12368F1E700BF72
:10159000020001002DE9FF419846036816461A68CB
:1015A0000B9D42F480621A601A680F4642F4807202
:1015B0001A604FF0011100950A9B00220446FFF7C4
:1015C00042FF80B92368FFB207F0FE021A612D497D
:1015D0002B460A9A2046FFF7F6FE40B1236C042BF7
:1015E00001D1012000E0032004B0BDE8F0812368B0
:1015F00003905A690A9903929B692A4603932046ED
:10160000039BFFF74EFF40B1236C042BEBD1226804
:10161000136843F400731360E3E7B8F1010F236824
:1016200024D1F6B21E612A460A992046FFF739FFF7
:1016300002460028E8D1216820460B6843F48073F5
:101640000B6000950A9B4FF00111FFF7FCFE00288C
:10165000C9D1236847F001071F610A9A2B4609493F
:101660002046FFF7B0FE0028B8D1BDE7320A1A6164
:101670000A992A462046FFF714FF0028C4D12368A0
:10168000CFE700BF0200010070B504460D461646C4
:101690002068436913F0400301D0002070BD426907
:1016A000D2060BD56FF0100242612022236484F829
:1016B0003C302363012084F83D2070BD5DB9236C6C
:1016C000032043F020032364202384F83D300023CB
:1016D00084F83C3070BDFFF701FD801B8542D7D2F6
:1016E000EDE770B504460D46164623685B695B0757
:1016F00001D5002070BD2046FFF750FEA8B96A1C36
:10170000F3D065B9236C202243F020032364002327
:101710000320236384F83C3084F83D2070BDFFF73C
:10172000DDFC801B8542E0D2ECE7012070BD0000AB
:1017300038B5044608B9012038BD90F83D3003F0B3
:10174000FF021BB980F83C2001F0EAFD2423226847
:1017500084F83D30136823F00103136000F01EFE8F
:1017600063682F4A934230D82E4A9042E3D92E4ADA
:101770002168B0FBF2F24A6001320A62284A01385D
:10178000934232D85B00B0FBF3F0431CC3F30B036E
:10179000042B38BF0423CB61226AE3690020134382
:1017A0000B60E268236913438B60A269636913438A
:1017B000CB600B6843F001030B602023206484F8A6
:1017C0003D30206384F83E0038BD184A9042B2D9BB
:1017D000154D4FF49672B0FBF5F521686A434D60E4
:1017E0004FF47A75B2FBF5F2C6E7A26852B903EB83
:1017F0004303B0FBF3F0431CC3F30B036BB143F49F
:101800000043C8E719225343B0FBF3F0431CC3F372
:101810000B0313B143F44043BDE70123BBE700BF13
:10182000A08601007F841E0040420F00FF083D009B
:101830002DE9FF4104461F460D469046FFF74EFC3A
:1018400094F83D300646202B04D00225284604B0EB
:10185000BDE8F0810090192301225D492046FFF781
:10186000F2FD0028F1D194F83C30012BEDD001239A
:1018700084F83C3023681A68D2075EBF1A6842F0C9
:1018800001021A601A6822F400621A60212284F8A8
:101890003D20102284F83E2000222264A2F58032EE
:1018A0006785E262628DC4F824802285E26A042A98
:1018B00004D0012A02D012F5803F04D11A6842F404
:1018C00080721A6002E0226B122AF7D000960A9BFF
:1018D00000224FF001112046FFF7B5FD28BB236918
:1018E0002268B3F5804F12D105F0FE05156133462D
:1018F0000A9A38492046FFF766FD0546A0B92368D5
:1019000003905A6903929B690393039B50E0EB1188
:1019100003F0060343F0F00313612F4933460A9A9C
:101920002046FFF750FD48B1236C236C042B4FF089
:10193000000307D184F83C30012587E72368EDB226
:101940001D61D4E784F83C3003257FE732460A99CD
:101950002046FFF7A6FD40B1236C042BF4D122688A
:10196000136843F400731360E6E7616A20684B1C58
:1019700063620B78228D0361638D013B9BB26385AB
:101980004769531E9BB27F0723850AD54BB18B1C39
:1019900063624B78023A0361638D2285013B9BB2FF
:1019A000638532460A992046FFF79BFE0028D3D173
:1019B000238D002BCAD121680A6842F400720A60A4
:1019C000202284F83C3084F83D2084F83E303DE706
:1019D0000200100002000100080001002DE9F34799
:1019E00004469A46884691460C9EFFF777FB94F88A
:1019F0003D300546202B03D0022002B0BDE8F08721
:101A00000090192301223E492046FFF71CFD0028C3
:101A1000F2D194F83C30012BEED0012384F83C3015
:101A2000236800271A684146D20758BF1A68204623
:101A30005CBF42F001021A601A6822F400621A6068
:101A4000212384F83D30402384F83E300A9B2764EC
:101A50006362BDF82C30019563852A4B0096E362E2
:101A6000638D4A4623855346FFF742FD00282AD05E
:101A7000236C84F83C70042B07D10120BDE7FFF7ED
:101A800010FD20B1236C042B34D00320B5E7616A2C
:101A900027684B1C63620B78228D3B61638D501E5F
:101AA000013B9BB263857B6980B25B0720850AD5C9
:101AB00048B18B1C63624B78023A3B61638D22858F
:101AC000013B9BB26385238D2A4631462046002B7D
:101AD000D5D1FFF706FE0028D4D12268136843F45D
:101AE00000731360202384F83C0084F83D3084F8B0
:101AF0003E0082E72268136843F400731360BCE77A
:101B0000020010000000FFFF2DE9F047044686B0F8
:101B10009A460D469146109FFFF7E0FA94F83D3043
:101B20000646202B04D00225284606B0BDE8F087E3
:101B300000901923012281492046FFF784FC0028E8
:101B4000F1D194F83C30012BEDD0012384F83C30E6
:101B500023684FF000081A682946D20758BF1A6850
:101B600020465CBF42F001021A601A6822F400624B
:101B70001A60222384F83D30402384F83E300E9BC7
:101B8000C4F840806362BDF83C30019663856C4BBD
:101B90000097E362638D4A4623855346FFF7FAFCBC
:101BA000054630B1236C84F83C80042B3DD10125DF
:101BB000BAE7228D236892B902905A6902929A6913
:101BC0000292029A1A6842F400721A60202384F882
:101BD0003D30002384F83E3084F83C30A4E7012AED
:101BE00025D11A6822F480621A6072B623680390C5
:101BF0005A6903929A690392039A1A6842F400722E
:101C00001A6062B6DFF83C81238D002BDED0032BF7
:101C100077D8012B27D1324639462046FFF734FDCD
:101C200000283FD0236C202BC1D103257CE7022A5A
:101C30001A680ED142F400621A6072B623680490EA
:101C40005A6904929A690492049A1A6822F480628A
:101C5000D6E742F480621A6005905A6905929B6942
:101C60000593059BCEE7022B00963B464FF0000202
:101C70004146204624D1FFF7E6FB0028D5D172B6B5
:101C800023681A6842F400721A60626A1B69511C68
:101C900061621370238D013B2385638D013B9BB2F1
:101CA000638562B6636A5A1C6262226812691A709E
:101CB000238D013B2385638D013B9BB26385A3E7A5
:101CC000FFF7C1FB02460028AFD121680B6823F45F
:101CD00080630B6072B6636A2046591C616221689A
:101CE00009691970238D0096013B2385638D414658
:101CF000013B9BB263853B46FFF7A5FB0028BFD0A5
:101D000093E7324639462046FFF7BEFC002889D1CA
:101D1000636A5A1C6262226812691A70238D2268F3
:101D2000013B2385638D013B9BB2638553695B0750
:101D30007FF56AAF636A591C6162B7E70200100061
:101D40000000FFFF040001002DE9F04F044685B0BC
:101D5000984689469246FFF7C1F994F83D30064609
:101D6000202B03D0022005B0BDE8F08F009019238E
:101D700001224B492046FFF766FB0028F2D194F878
:101D80003C30012BEED0012384F83C302368002541
:101D90001A68DFF80CB1D20758BF1A6809F0FE09BB
:101DA0005CBF42F001021A601A6822F400621A60F5
:101DB000242384F83D303B4B2564E36222684FF0D6
:101DC00001111368204643F4807313600096434664
:101DD0000022FFF738FB08B10320C4E72368A027DF
:101DE000C3F81090FFF77AF90646236859695A69D3
:101DF00094F83D30C1F34001C2F38022DBB211B947
:101E00000AB9A02B20D12027236884F83D705A6995
:101E100012F0020F1A6842F400721A602AD00022EF
:101E200003925A691E4903929B6901220393039B03
:101E3000009619232046FFF706FB0028CCD184F832
:101E40003D7084F83C008EE7B8F1000F0CD184F8A7
:101E50003D70236859695A6994F83D30C1F34001D7
:101E6000C2F38022DBB2CAE7FFF738F9801B804556
:101E7000EDD3EEE76FF4806259465A612046009632
:101E800019230122FFF7DFFA0028A5D10135AA4561
:101E900094D884F83C0084F83D70012063E700BFCB
:101EA000020010000000FFFF03682DE9F341DB078B
:101EB000054610D42B689F075ED42B68190700F1E4
:101EC00095802B685A0700F1BF80EA69002A40F02C
:101ED0002D81002014E0904C636803F00C03042B68
:101EE00007D0636803F00C03082B0CD16368DE0392
:101EF00009D523689C03DDD56B68002BDAD101205E
:101F000002B0BDE8F0816B68B3F5803F10D1236863
:101F100043F480332360FFF7E1F806462368980313
:101F2000C8D4FFF7DBF8801B6428F7D90320E7E764
:101F30009BB9236823F480332360236823F4802330
:101F40002360FFF7CBF8064623689903B2D5FFF765
:101F5000C5F8801B6428F7D9E8E7B3F5A02F2368FC
:101F600003D143F480232360D1E723F4803323603B
:101F7000236823F48023CDE7674C636813F00C0FCC
:101F800007D0636803F00C03082B10D16368DA03F1
:101F90000DD423689B0702D52B69012BAFD1236891
:101FA0006A6923F0F80343EAC203236085E72A69DC
:101FB0005A4B6AB101221A60FFF790F8064623686F
:101FC0009F07ECD4FFF78AF8801B0228F7D9ADE70A
:101FD0001A60FFF783F80646236898077FF56DAF10
:101FE000FFF77CF8801B0228F6D99FE7AA694A4CC4
:101FF0004B4BDAB101221A60FFF770F80646636AAC
:102000009B070DD54FF4FA52464B1B68B3FBF2F316
:10201000019300BF019B5A1E0192002BF9D150E79A
:10202000FFF75CF8801B0228E9D97FE71A60FFF709
:1020300055F80646636A9F077FF543AFFFF74EF8F2
:10204000801B0228F6D971E7334CE369D80024D409
:102050000127E36943F08053E361E36903F08053B0
:102060000093009B304E3368D90518D5EB68012BDF
:1020700026D1236A43F001032362FFF72FF841F2D0
:1020800088368046236A9B073FD5002F3FF41DAF5B
:10209000E36923F08053E36117E70027E2E7336841
:1020A00043F480733360FFF719F880463368DA052C
:1020B000DCD4FFF713F8A0EB08006428F6D935E765
:1020C000ABB9236A41F2883823F001032362236A03
:1020D00023F004032362FFF701F80646236A9807FA
:1020E000D3D5FEF7FBFF801B4045F7D91EE7052B34
:1020F000236A03D143F004032362BAE723F0010308
:102100002362236A23F00403B6E7FEF7E7FFA0EBA0
:102110000800B042B6D909E7001002400000424270
:10212000800442421000002000700040224C63688E
:1021300003F00C03082B3FF4E2AE00231F4E022AEB
:1021400033602BD1FEF7CAFF0746236899011FD4DD
:102150002B6AB3F5803F05D16268A96822F400328A
:102160000A436260696A62680B4322F47412134383
:10217000636001233360FEF7B1FF054623689A01CF
:102180003FF5A7AEFEF7AAFF401B0228F6D9CDE621
:10219000FEF7A4FFC01B0228D7D9C7E6FEF79EFFB3
:1021A000054623689B017FF594AEFEF797FF401B21
:1021B0000228F6D9BAE600BF001002406000424291
:1021C00030B5194B87B002AC03F1100522461868F0
:1021D0005968083303C2AB421446F7D101238DF886
:1021E0000430022311498DF805304B6803F00C02CE
:1021F000082A17D1C3F3834206A80244DB0312F86E
:10220000102C0CD54B680A48C3F34043504306AA30
:10221000134413F8143CB0FBF3F007B030BD05488D
:102220005043FAE70248F8E79048000800100240DF
:1022300000127A0000093D00544A2DE9F04113686C
:10224000054603F007038B420E462AD329688C0704
:1022500034D4CA0747D44D4A136803F007039E429B
:10226000C0F082802A684A4C12F0040F40F0878048
:10227000130706D563682A6923F4605343EAC2034F
:102280006360FFF79DFF6368424AC3F30313D35CA7
:10229000D840414B18600020FEF7DEFE0020BDE86C
:1022A000F081136823F007030B431360136803F0F6
:1022B00007039942CAD00120BDE8F081344B11F0E8
:1022C000040F1EBF5A6842F4E0625A60080742BF1A
:1022D0005A6842F460525A605A68A86822F0F002C4
:1022E00002435A60B5E76A68294C012A23681CD169
:1022F00013F4003FDFD0636841F2883823F0030312
:1023000013436360FEF7EAFE6B680746012B14D1A6
:10231000636803F00C03042B9DD0FEF7DFFEC01BA7
:102320004045F5D90320BDE8F081022A02D113F01F
:10233000007FDFE713F0020FDCE7022B0FD16368A9
:1023400003F00C03082B86D0FEF7C8FEC01B4045E7
:10235000F5D9E7E7FEF7C2FEC01B4045E2D8636847
:1023600013F00C0FF6D176E7136823F0070333431D
:102370001360136803F007039E429CD172E7636801
:10238000E96823F4E0630B43636071E700200240D7
:1023900000100240A052000810000020044B054A23
:1023A0005B68C3F30223D35C034A1068D8407047CC
:1023B00000100240B052000810000020036A70B5FF
:1023C00023F001030362036A446882690D6822F006
:1023D00073022A438D6823F002032B430A4DA8425F
:1023E0000BD1CD6823F008032B438E694D6924F48B
:1023F0004074354323F004032C43446082614A68EF
:102400004263036270BD00BF002C0140036A70B5D7
:1024100023F480730362036A4468C2690D6822F082
:1024200073022A438D6823F4007343EA05230B4D9E
:10243000A8420DD1CD6823F4006343EA05238E69D9
:102440004D6924F44054354323F4806344EA051471
:102450004460C2614A68C263036270BD002C0140DF
:10246000036A30B523F480530362036A4468C26987
:102470000D6822F4E64242EA05228D6823F40053F7
:1024800043EA0533064DA84202BF4D6924F4804457
:1024900044EA85144460C2614A680264036230BD44
:1024A000002C014003680020DA6842F00102DA6083
:1024B0001A6842F001021A607047704790F83C3089
:1024C00070B5012B4FF002031CD0012280F83D3083
:1024D000036880F83C209A6822F47F4222F0770259
:1024E0009A600A68402A79D019D8102A00F093809F
:1024F0000AD8002A00F08980012380F83D300023AB
:1025000080F83C30184670BD202A00F08A80302ABE
:10251000F2D19A6822F0700242F0370236E0702A57
:1025200036D01BD8502A42D0602AE5D11C6A4D68AB
:1025300024F01004CE681C6299691A6A21F4704173
:1025400022F0A00242EA051241EA063199611A62BC
:102550009A6822F0700242F0670217E0B2F5805FDD
:1025600011D0B2F5005FC7D18A684D689C68C96810
:102570002A4324F47F4442EA012222439A609A6863
:1025800042F4804202E09A6822F007029A60B3E7C0
:102590008A684D689C68C9682A4324F47F4442EAEB
:1025A000012222439A609A6842F07702EEE74C6873
:1025B000CE68196A1D6A21F00A0125F001051D6225
:1025C0009A69214322F0F00242EA06129A611962E6
:1025D0009A6822F0700242F05702D7E74C68CE6842
:1025E000196A1D6A21F00A0125F001051D629A6928
:1025F000214322F0F00242EA06129A6119629A68B7
:1026000022F0700242F04702C0E79A6822F070029E
:1026100042F00702BAE79A6822F0700242F017020D
:10262000B4E79A6822F0700242F02702AEE77047E2
:102630007047704770477047036810B51A690446C1
:1026400091070ED5DA6892070BD56FF002021A6176
:1026500001229B6902779B0777D0FFF7EAFF0023EF
:10266000237723681A69500710D5DA6851070DD50A
:102670006FF004021A6102229B69227713F4407FF3
:10268000204668D0FFF7D5FF0023237723681A6917
:1026900012070FD5DA6810070CD56FF008021A611F
:1026A0000422DB692277990720465AD0FFF7C1FF41
:1026B0000023237723681A69D20610D5DA68D0067A
:1026C0000DD56FF010021A610822DB69227713F42E
:1026D000407F20464BD0FFF7ACFF002323772368D1
:1026E0001A69D10708D5DA68D20705D56FF001025B
:1026F00020461A61FFF79BFF23681A69100608D568
:10270000DA68110605D56FF0800220461A6100F0E4
:1027100074F923681A69520608D5DA68500605D597
:102720006FF0400220461A61FFF785FF23681A699F
:10273000910622D5DA6892061FD56FF02002204656
:10274000BDE810401A6100F057B9FFF771FF20464D
:10275000FFF770FF83E7FFF76BFF2046FFF76AFF85
:1027600092E7FFF765FF2046FFF764FFA0E7FFF75A
:102770005FFF2046FFF75EFFAFE710BD1A4A036810
:1027800090420AD0B0F1804F07D0A2F59432904227
:1027900003D002F58062904215D14A6823F070039D
:1027A0001343114A90420AD0B0F1804F07D0A2F5EE
:1027B0009432904203D002F58062904203D1CA68FD
:1027C00023F4407313434A6923F0800313430360E7
:1027D0008B68C3620B688362034B984204BF0B692A
:1027E0000363012343617047002C014010B5044688
:1027F000A0B190F83D3003F0FF021BB980F83C20F7
:1028000001F0B4F90223206884F83D30211DFFF760
:10281000B5FF0123002084F83D3010BD012010BD1C
:1028200010B50446A0B190F83D3003F0FF021BB98B
:1028300080F83C20FFF741FE0223206884F83D30F9
:10284000211DFFF79BFF0123002084F83D3010BDC0
:10285000012010BD036A70B523F010030362036A00
:10286000446882690D6822F4E64242EA05228D68D6
:1028700023F0200343EA05130B4DA8420DD1CD6888
:1028800023F0800343EA05138E694D6924F4406404
:10289000354323F0400344EA8504446082614A687A
:1028A0008263036270BD00BF002C014038B590F810
:1028B0003C300446012B4FF0020025D0012384F860
:1028C0003D0084F83C300C2A18D8DFE802F00717E6
:1028D00017171E1717172F17171740002068FFF735
:1028E0006DFD236809699A6942F008029A619A6944
:1028F00022F004029A619A690A439A610123002036
:1029000084F83D3084F83C0038BD2068FFF7A2FF12
:10291000236809699A6942F400629A619A6922F40B
:1029200080629A619A6942EA0122E6E72068FFF72D
:102930006DFD23680969DA6942F00802DA61DA6933
:1029400022F00402DA61DA690A43DA61D6E7206824
:10295000FFF786FD23680969DA6942F40062DA61EB
:10296000DA6922F48062DA61DA6942EA0122ECE78C
:1029700010B50124036A8C4023EA04030362036A4E
:102980008A401A43026210BD10B504460122006855
:10299000FFF7EEFF2368064A0020934202BF5A6CFD
:1029A00042F400425A641A6842F001021A6010BDF3
:1029B000002C014090F83C3010B5012B4FF0020381
:1029C00018D080F83D3003680C685A68496822F0D6
:1029D00070025A605A6822435A609A6822F0800254
:1029E0009A609A680A439A60012380F83D30002378
:1029F00080F83C30184610BD7047704780232DE9A1
:102A0000F04301244FF4803887B006AD1F4F05F81E
:102A1000043D6B222346D021CDF808800194009517
:102A20003846FEF7DBFF4FF00009194E30703220B8
:102A3000FEF75AFB2346CDF80880019400956B22DF
:102A4000D02138468DF81490FEF7C8FF0823307067
:102A50008DF81430CDF808802346019400951B2290
:102A6000D0213846FEF7BAFFCDF8088030700194C7
:102A7000009523461C22D02138468DF81490FEF78D
:102A8000ADFF307007B0BDE8F08300BFEC0400205C
:102A9000E0050020002210B586B00492ADF81420A5
:102AA0004FF480320292062204AB04460192009356
:102AB0003B220123D0210E48FFF726F80D4B9DF84D
:102AC000102018709DF8113003EB022323809DF82D
:102AD00012209DF8133003EB022363809DF814202D
:102AE0009DF8153003EB0223A38006B010BD00BF94
:102AF000EC040020E0050020002210B586B004920E
:102B0000ADF814204FF480320292062204AB044642
:102B10000192009343220123D0210E48FEF7F4FFD7
:102B20000D4B9DF8102018709DF8113003EB022317
:102B300023809DF812209DF8133003EB022363805D
:102B40009DF814209DF8153003EB0223A38006B0F6
:102B500010BD00BFEC040020E005002000000000D4
:102B600000232DE9F04F724C85B0724DDFF8E0A1E3
:102B700002A80293ADF80C3023802B80AAF8003015
:102B8000FFF788FFBDF90A00FDF734FC0646BDF9E2
:102B900008000F46FDF72EFC8046BDF90C00894663
:102BA000FDF728FC4246CDE900014B464046494628
:102BB000FDF786FCDDE9002380468946104619466C
:102BC000FDF77EFC02460B4640464946FDF7C6FA35
:102BD00001F062F902460B463046394601F0E2F850
:102BE0004DA3D3E90023FDF76BFCFDF719FFDFF8D8
:102BF00064B1ABF80000BDF90800FDF7FBFB8046AF
:102C0000BDF90A008946FDF7F5FB0646BDF90C0043
:102C10000F46FDF7EFFB3246CDE900013B4630465B
:102C20003946FDF74DFCDDE9002306460F46104608
:102C30001946FDF745FC02460B4630463946FDF77E
:102C40008DFA01F029F902460B464046494601F04B
:102C5000A9F831A3D3E90023FDF732FCFDF7E0FE2C
:102C6000354B0FFA80F8A3F80080344BBBF900B065
:102C7000B3F90000324B08EB00021A80314BB3F974
:102C80000090314B09EB0B021A80FDF7B3FB24A334
:102C9000D3E90023FDF714FC064640460F46FDF736
:102CA000A9FB21A3D3E90023FDF70AFC02460B464A
:102CB00030463946FDF752FAFDF7B2FEAAF8000099
:102CC0004846FDF797FB16A3D3E90023FDF7F8FB71
:102CD000064658460F46FDF78DFB13A3D3E90023A4
:102CE000FDF7EEFB02460B4630463946FDF736FA55
:102CF000FDF796FE154B2880B3F90000FDF77AFB2F
:102D000007A3D3E90023FDF7DBFBFDF789FE208055
:102D100005B0BDE8F08F00BF00000020DCA54C40EE
:102D20009A9999999999E93F9A9999999999C93F45
:102D3000CA0500209C050020C6050020CC05002007
:102D4000C4050020A005002094050020B80500203F
:102D5000C2050020C805002000232DE9F743444E9A
:102D6000444C454D68460093ADF8043033802380D1
:102D70002B80FFF7C1FE414BBDF900001B68288086
:102D8000C01A3F4B00B218803E4BBDF902501B6881
:102D90002580ED1A3C4B2DB21D803C4BBDF9044003
:102DA0001B683480E41A3A4B24B21C80FDF722FBE6
:102DB0002BA3D3E90023FDF7ADFC2BA3D3E900231C
:102DC000FDF77EFB334E8046B6F900008946FDF7DD
:102DD00011FB02460B4640464946FDF7BFF9FDF799
:102DE0001FFE30802846FDF705FB1DA3D3E9002315
:102DF000FDF790FC1CA3D3E90023FDF761FB264EF1
:102E00008046B6F900008946FDF7F4FA02460B4603
:102E100040464946FDF7A2F9FDF702FE3080204604
:102E2000FDF7E8FA0EA3D3E90023FDF773FC0EA328
:102E3000D3E90023FDF744FB184D0646B5F9000021
:102E40000F46FDF7D7FA02460B4630463946FDF7E6
:102E500085F9FDF7E5FD288003B0BDE8F08300BFEC
:102E600000000000006050409A9999999999B93FE3
:102E7000DE050020BA05002096050020A8050020E8
:102E8000B4050020AC050020D0050020A4050020DA
:102E9000CE050020CC050020A0050020B8050020AC
:102EA000F8B542F210740D4E0D4F0E4DFFF754FF62
:102EB0003268B7F90030013C134433600A4B2A688A
:102EC000B3F9003013442B60084A094B1168B3F979
:102ED00000300B441360E9D1F8BD00BFA805002005
:102EE00096050020AC050020BA050020A4050020AE
:102EF000DE05002042F2107207490B6893FBF2F3E3
:102F00000B6006490B6893FBF2F30B6004490B68F6
:102F100093FBF2F30B607047A8050020AC0500207E
:102F2000A40500202DE9F84F524B6FF07C04B3F953
:102F30000000FDF7C7FE504B01461868FDF70CFE78
:102F40004FF08241FDF712FFFEF760F80FFA80F9AB
:102F5000B9F17D0FA8BF4FF07D09A145B8BFA146CB
:102F6000DFF840B1454BBBF90060B3F90000A9EBB5
:102F700006067D2EA8BF7D26A642B8BF2646FDF7D1
:102F8000A1FE3F4B01461868FDF7E6FD4FF0824178
:102F9000FDF7ECFEFEF73AF80FFA80F8B8F17D0F76
:102FA000A8BF4FF07D08A045B8BFA046DFF8F8A045
:102FB000344BBAF90050B3F90000A8EB05057D2D9C
:102FC000A8BF7D25A542B8BF2546FDF77BFE2E4B49
:102FD00001461868FDF7C0FD4FF08241FDF7C6FEBF
:102FE000FEF714F807B27D2FA8BF7D27A742B8BF10
:102FF0002746264B76B2B3F900104FFA89F0791ABA
:103000007D29A8BF7D21A142B8BF21464CB23146DF
:103010001F80ABF80090AAF8008000F06FF81C4900
:10302000FDF7A4FE1B49FDF755FFFDF7EFFF1A4B17
:103030006DB2188029464FFA88F000F05FF8144905
:10304000FDF794FE1349FDF745FFFDF7DFFF134B36
:103050002146188078B200F051F80D49FDF786FE40
:103060000C49FDF737FFFDF7D1FF0D4B1880BDE888
:10307000F88F00BFC2050020DC0400209C05002062
:10308000E4040020CA050020A8040020A4040020B5
:103090000000B4420000FA42B0050020BE05002046
:1030A000DC050020E0040020E204002008B5401AFE
:1030B000FDF7A0F902460B46FDF702FA054B002288
:1030C000FDF728FB01F100431946BDE8084000F078
:1030D0006BBE00BF00209C4070B5064E064C357894
:1030E00004F8250004EB850001358270C37035704B
:1030F000417070BDE8040020AC0400202DE9F04FC1
:103100004FF0000A4FF0000B002585B0CDE900AB71
:10311000254C02900391254B1B789D420ADB5246B9
:10312000DDE900015B46FDF7F5FAFDF7C1FC05B0EE
:10313000BDE8F08F94F900100298FFF7B7FF06463C
:103140000F46039894F90210FFF7B0FF63788046AA
:103150008946024613BB0B4630463946FDF722FC32
:1031600008B946464F4694F90300FDF743F9324645
:103170003B46FDF7A5F902460B46DDE90001FCF7E9
:10318000EDFF3246CDE900013B4650465946FCF77B
:10319000E5FF013582468B460434BCE70B463046DA
:1031A0003946FDF71DFCDBE7AC040020E8040020F5
:1031B00010B50024284B22461C7021462346204689
:1031C000FFF78AFF6FF07C027D2310460121FFF795
:1031D00083FF7D226FF07C0310460121FFF77CFF07
:1031E00021467D236FF013026FF05900FFF774FF43
:1031F00021466FF07C0314225A20FFF76DFF6FF019
:103200001302214610461423FFF766FF14222146BD
:1032100010466FF01303FFF75FFF21461423372298
:103220006FF03600FFF758FF6FF036022146104668
:103230005A23FFF751FF21466FF013036FF0360258
:103240003720FFF749FF37222146BDE810406FF0D5
:1032500059031046FFF740BFE80400200F4B84B02D
:103260009A6942F020029A619A6902F02002019262
:10327000019A9A6942F004029A619A6902F0040282
:103280000292029A9A6942F008029A619B6903F0DD
:1032900008030393039B04B0704700BF0010024073
:1032A00008B50C480C4BDFF834E04FF4804280E85E
:1032B0000840002302618360C36043618361C3618E
:1032C0000362FEF735FA18B1BDE8084000F052B9C4
:1032D00008BD00BFEC04002000540040801A060026
:1032E00008B50C480C4BDFF834E04FF4804280E81E
:1032F0000840002302618360C36043618361C3614E
:103300000362FEF715FA18B1BDE8084000F032B9C3
:1033100008BD00BF4005002000580040A086010005
:10332000102210B5044688B00DEB0200002100F019
:1033300031FD2368214A93421ED1214C04A9A3697F
:10334000204843F00803A361A36903F00803009336
:10335000009BC02304931223059303230793FDF7D7
:103360003DFFE36943F40013E361E36903F40013F1
:103370000193019B08B010BD134A9342FAD1104C3F
:1033800004A9A3690F4843F00803A361A36903F0EC
:1033900008030293029B4FF44063049312230593A6
:1033A00003230793FDF71AFFE36943F48003E36106
:1033B000E36903F480030393039BDBE700540040BD
:1033C00000100240000C01400058004010B590B0C1
:1033D0002822002106A800F0DDFC0021142201A80B
:1033E00000F0D8FC4FF480330122022407930E939F
:1033F0004FF4E01306A806920A920F930D94FEF77D
:1034000053FD0F234FF4806201930023214601A84E
:103410000294039304920593FEF70EFF10B010BDC3
:103420000028B4BF012200224FF006034FF00A012A
:1034300030B5B8BF40420B4DB8BF00B2013BDBB264
:10344000FF2B06D122B1074B5A780AB12D221A70F0
:1034500030BD90FBF1F401FB14003030E85420B291
:10346000ECE700BFD205002080B5FDF719FEFFF79D
:10347000ADFFFFF7F3FE00F0E1FB00F00BFBFFF701
:103480000FFF00F03DFBFFF72BFFFFF7B7FAFFF749
:1034900007FDFFF72FFDFFF763FB00F015F9002193
:1034A0002948FFF771FA04212748FFF76DFA082130
:1034B0002548FFF769FA2548FEF7F4FF2448FEF790
:1034C000F1FF0023234A244C1380244A23801380D5
:1034D000FFF76EFE224E234D234B1A7802B9FEE70A
:1034E00000271F70FFF738FCFFF73AFBFFF71AFDC4
:1034F0001E4BB3F90000FFF793FF3846142100F08C
:103500007FF801223146284600F0BAF8184BB3F98B
:103510000000FFF785FF1421502000F071F8012210
:103520003146284600F0ACF8B4F90000FFF778FF08
:103530001E212D2000F064F801223146284600F0BB
:103540009FF800F019F8C7E7640600202406002061
:10355000E4050020A0050020B8050020CC050020CF
:1035600008000020D205002098050020C205002098
:103570009C05002070470000402307B5064A7821CB
:1035800013704FF47A730548009340F20143FEF73D
:103590004FF903B05DF804FB9E00002040050020B9
:1035A00000284FF4806214BFFF210021014800F081
:1035B000F1BB00BF9F0000207F2810B51AD83F291B
:1035C00018D80D4B1B7913B1B2FA82F25209CC080C
:1035D000012A0A4B01F0070100EBC41004D18A4014
:1035E000195C0A431A5410BD01228A40195C21EA71
:1035F0000201195410BD00BF980000209F00002058
:10360000014B188059807047980000202DE9F04741
:103610004FF0000A80460D4691465646174F6B788C
:103620009E4223D2002419E06968AA78D80808FBD2
:103630000212125C03F0070342FA03F3DB0758BFE0
:10364000B9FA89F279883888314420444CBF4A4617
:10365000520989B280B2FFF7AFFF01342A780AEB32
:1036600004039442E0D301369A46D8E7034A2B7804
:10367000118840460B441380BDE8F0879800002075
:1036800070B50D461646441E637843B1184632465F
:103690002946FFF7BBFF14F8013F9842F4D01846C3
:1036A00070BD00001FB50A238DF80C108DF80D2099
:1036B00000930146022303AA0248FEF7B9F805B0B9
:1036C0005DF804FB4005002010B544F6206301229C
:1036D00078215048FEF738FB0446002840F09780D8
:1036E0000146AE227820FFF7DDFF21462022782018
:1036F000FFF7D8FF214610227820FFF7D3FF21469D
:10370000B0227820FFF7CEFF2146C8227820FFF7AD
:10371000C9FF224621467820FFF7C4FF2146102228
:103720007820FFF7BFFF214640227820FFF7BAFF3D
:10373000214681227820FFF7B5FF2146FF2278201D
:10374000FFF7B0FF2146A1227820FFF7ABFF21460B
:10375000A6227820FFF7A6FF2146A8227820FFF7AF
:10376000A1FF21463F227820FFF79CFF2146A4229B
:103770007820FFF797FF2146D3227820FFF792FFAA
:10378000224621467820FFF78DFF2146D52278205A
:10379000FFF788FF2146F0227820FFF783FF2146BC
:1037A000D9227820FFF77EFF214622227820FFF7DA
:1037B00079FF2146DA227820FFF774FF2146122292
:1037C0007820FFF76FFF2146DB227820FFF76AFFA2
:1037D000214620227820FFF765FF21468D227820A0
:1037E000FFF760FF214614227820FFF75BFFAF222E
:1037F00021467820FFF756FF2046FFF7D1FEFFF75E
:10380000BBFE0120044B58711C805C8010BD002061
:1038100010BD00BF40050020980000200E4B82B074
:103820009A6942F001029A619A6902F001020092DB
:10383000009ADA6942F08052DA61DB69074A03F0E4
:1038400080530193019B536823F0E06343F00073BE
:10385000536002B0704700BF0010024000000140FA
:103860007047FEE7FEE7FEE7FEE7704770477047E8
:10387000FDF728BC00000000654B2DE9F047B3F9C7
:103880000030644A002B00F08D8003EB830303F2C9
:10389000DC531380604B1788604C614D614EB3F967
:1038A00000A027802F803780BAF1000F20D050462B
:1038B000FCF7A0FD54A3D3E90023FCF701FE00228E
:1038C000594BFCF7FDFD804638468946FCF792FDD2
:1038D0000B46024649464046FCF740FCFDF7C8F857
:1038E000CAEB8A33CAEB830ABA442880A4F800A042
:1038F0004E4BB3F900A0BAF1000F34D05046FCF79C
:1039000079FD41A3D3E90023FCF7DAFD0022464B01
:10391000FCF7D6FD804620888946FCF76BFD024601
:103920000B4640464946FCF719FCFDF7A1F82080FC
:10393000CAF10000FCF75EFD33A3D3E90023FCF7D6
:10394000BFFD0022384BFCF7BBFD80463846894658
:10395000FCF750FD02460B4640464946FCF7FEFB8D
:10396000FDF786F830803388B3F5FA6F84BF4FF4E3
:10397000FA6333802B883288B3F5FA6F84BF4FF433
:10398000FA632B802388B3F5FA6F84BF4FF4FA6390
:1039900023804FF08043596B8A4206D25A6B053A16
:1039A0005A630BE040F2DC5373E7596B8A4202D949
:1039B0005A6B0532F4E7596B8A42F1D04FF08043DD
:1039C0002A88996B8A4210D29A6B053A9A634FF013
:1039D00080432288D96B8A420DD2DA6B053ADA63CA
:1039E0001348BDE8F047FEF727BE996B8A4284BFB3
:1039F0009A6B0532EAE7D96B8A4284BFDA6B0532EB
:103A0000EDE700BFAFF30080AA4C58E87AB6EB3F71
:103A1000DC050020B2050020B0050020BC05002018
:103A2000B6050020DA05002000001440BE05002085
:103A3000240600200122024B02481A70FEF7FCBD4A
:103A400098050020E40500200F4B1A6842F001029F
:103A50001A6059680D4A0A405A601A6822F0847246
:103A600022F480321A601A6822F480221A605A689E
:103A700022F4FE025A604FF41F029A604FF0006277
:103A8000034B9A60704700BF001002400000FFF82F
:103A900000ED00E07FB51022002102A800F07AF9C5
:103AA00040F2CF2214481549002380E8060040F276
:103AB000E732009301938360C26003618361FEF784
:103AC00095FE08B1FFF756FD4FF4805302A90A484E
:103AD0000293FEF7F3FC08B1FFF74CFD00236946A3
:103AE000054800930193FEF765FF08B1FFF742FD1B
:103AF00007B05DF804FB00BF24060020000400406E
:103B00007FB51022002102A800F044F940F2CF2234
:103B100014481549002380E8060040F2E73200937C
:103B200001938360C26003618361FEF75FFE08B1A9
:103B3000FFF720FD4FF4805302A90A480293FEF7D5
:103B4000BDFC08B1FFF716FD002369460548009348
:103B50000193FEF72FFF08B1FFF70CFD07B05DF8EA
:103B600004FB00BFE4050020000800401FB5036807
:103B7000B3F1804F0DD103F50433DA6942F001024D
:103B8000DA61DB6903F001030193019B05B05DF885
:103B900004FB154A934212D1144B1D20DA6942F0FE
:103BA0000202DA610022DB69114603F0020302938C
:103BB000029BFDF7BDFA1D20FDF7EEFAE6E70C4A81
:103BC0009342E3D1094B1E20DA6942F00402DA6124
:103BD0000022DB69114603F004030393039BFDF706
:103BE000A7FA1E20E8E700BF0004004000100240D2
:103BF0000008004010B5044686B01022002102A83B
:103C000000F0C8F82368B3F1804F13D103F50433F3
:103C10009A6902A942F004029A619B69064803F07E
:103C200004030193019B072302930223039305934B
:103C3000FDF7D4FA06B010BD0008014010B58EB0F3
:103C40001022002103A800F0A5F800241C22214620
:103C50000DEB02000194029400F09CF847234FF012
:103C60008042264880E80C0044F61F63C36080232E
:103C7000846004618361FEF7B9FD08B1FFF77AFC47
:103C80004FF4805303A91D480393FEF717FC08B1B6
:103C9000FFF770FC1948FEF7C3FD08B1FFF76AFC97
:103CA000002301A9154801930293FEF783FE08B192
:103CB000FFF760FC60230022079340F2DC5307A962
:103CC0000E48089309920B92FEF7F0FD08B1FFF73A
:103CD00051FC042207A90948FEF7E8FD08B1FFF7E7
:103CE00049FC082207A90548FEF7E0FD08B1FFF7E7
:103CF00041FC0248FFF77EFF0EB010BD64060020B5
:103D0000002103E00B4B5B58435004310A480B4B36
:103D100042189A42F6D30A4A02E0002342F8043BD2
:103D2000084B9A42F9D3FFF78FFE00F00FF8FFF728
:103D30009BFB704740530008000000207C000020DF
:103D40007C000020A4060020FEE7000070B50025DE
:103D50000C4E0D4CA41BA410A54209D100F08CFD03
:103D600000250A4E0A4CA41BA410A54205D170BD23
:103D700056F8253098470135EEE756F82530984734
:103D80000135F2E73853000838530008385300086B
:103D90003C53000803460244934200D1704703F8A5
:103DA000011BF9E700F0CCB82DE9F0438BB00446D5
:103DB0000D4600F0A1F9DFF8DC80064698F90030E6
:103DC0000F4601332CD02046294600F046FD38B37B
:103DD00029A3D3E9002320462946FCF701FE8146AA
:103DE00000282DD003230093274BCDE904450193F0
:103DF0000023089398F90030CDE90245ABB94FF0A4
:103E00006042224BCDE90623684600F02CFD90B1BC
:103E1000089B1BB100F02AFD089B0360DDE90667E3
:103E2000304639460BB0BDE8F08300201849CDE993
:103E30000601022BE8D100F019FD22230360E7E719
:103E40000FA3D3E9002320462946FCF7ABFD002849
:103E5000E6D0042300930C4B002201930023CDF8FD
:103E60002090CDE90623CDE90445CDE9024598F936
:103E70000030DEE7AFF30080EF39FAFE422E8640D5
:103E800051302DD5104987C0B8520008FFFFEF47C9
:103E90000000F07F140000202DE9F04F8BB00446A5
:103EA0000D4600F097FA244B804693F900A089460E
:103EB000BAF1FF3F2BD022462B4620462946FCF77D
:103EC00099FD834618BB0026002732463B46204614
:103ED0002946FCF767FDD0B101230093174BCDF8BD
:103EE00020B00193CDE90445CDE90245BAF1000FB8
:103EF00012D1CDE90667684600F0B5FCB8B1089B61
:103F00001BB100F0B3FC089B0360DDE90689404665
:103F100049460BB0BDE8F08F32463B463046394645
:103F2000FCF7F8FBBAF1020FCDE90601E3D100F08E
:103F30009DFC21230360E2E714000020BC5200082E
:103F40002DE9F84F564223F0004E1643DFF8A091BA
:103F50004EEAD6764E4504460D46884607D8464278
:103F600021F00047064347EAD6764E4506D920465B
:103F70002946FCF7F3F804460D4615E003F14046E8
:103F800006F58016164303D1BDE8F84F00F0D0BA0D
:103F90009E1706F0020646EAD17650EA070107D1DD
:103FA000022E30D0032E32D020462946BDE8F88FAD
:103FB00052EA0E0106D1B8F1000F71DA3AA5D5E93F
:103FC0000045F1E7CE4526D1774511D1022E07D025
:103FD000032E09D0012E5DD135A5D5E90045E3E7D3
:103FE00035A5D5E90045DFE735A5D5E90045DBE78F
:103FF000022E08D0032E0AD0012E4FF000044DD11E
:104000004FF00045D0E730A5D5E90045CCE730A515
:10401000D5E90045C8E74F45CDD0A7EB0E073F15C2
:104020003C2F1EDC002B01DA3C371EDB20462946E4
:10403000FCF770FB00F00EFC00F07AFA04460D4627
:10404000012E15D0022E16D0002EADD022A3D3E91A
:10405000002320462946FCF77FF81BA3D3E9002361
:1040600015E01FA5D5E90045EAE700240025E7E7AC
:1040700005F1004598E718A3D3E900232046294617
:10408000FCF76AF802460B460FA1D1E90001FCF7E4
:1040900063F870E714A5D5E9004585E7002583E7B7
:1040A0000FA5D5E900457FE7182D4454FB21F9BF42
:1040B000182D4454FB21E9BFD221337F7CD9024023
:1040C000D221337F7CD902C0182D4454FB210940F2
:1040D000182D4454FB2109C0075C143326A6A13CCB
:1040E000182D4454FB21F93F182D4454FB21E93F7E
:1040F0000000F07F000000002DE9F74FAC4A21F0EE
:104100000046964205460C464FEAD17740F2AB8016
:10411000A84A964212D9C1F31303034306D00246BC
:104120000B46FCF71BF805460C4602E00FB10025D4
:104130002C462846214603B0BDE8F08F86A3D3E97C
:104140000023FCF74DFC38B185A3D3E900231046CA
:104150001946FCF7B5F9E6E783A3D3E9002328461F
:104160002146FCF71FFC0028E1D1934B4FEAC7081A
:104170009E4200F28E80914B21464344D3E90023B6
:104180002846FBF7E9FF82468B468D4E464496E86B
:1041900018008DE81800C7F10108A8EB0708DDE951
:1041A000002350465946FBF7D7FF05460C462A46E2
:1041B000234628462146FCF783F96DA3D3E9002363
:1041C00006460F46FCF77CF96BA3D3E90023FBF707
:1041D000C3FF32463B46FCF773F969A3D3E90023DA
:1041E000FBF7BCFF32463B46FCF76AF966A3D3E90E
:1041F0000023FBF7B1FF32463B46FCF761F964A3AD
:10420000D3E90023FBF7AAFF32463B46FCF758F9F7
:1042100002460B4628462146FBF79EFF06460F4600
:1042200002460B4628462146B8F1000F61D1FCF743
:1042300047F90022804689464FF080433046394690
:10424000FBF78AFF02460B4640464946FCF762FAF6
:104250002A462346FBF780FF02460B4600205949B9
:10426000FBF77AFF5FE7584B9E423FF67EAF574B16
:104270009E4239D83AA3D3E90023FBF76FFF00220F
:10428000504BFCF7ADFB90B300224E4B2846214625
:1042900047E74F4E40A3D3E9002346442846214632
:1042A000FCF70EF9D6E90023FBF758FFFCF7B8FB43
:1042B0008046FCF79FF83AA3D3E9002306460F4651
:1042C000FCF7FEF802460B4628462146FBF744FF62
:1042D00035A3D3E9002382468B4630463946FCF7A6
:1042E000EFF8CDE900015AE74FF000085FE780469C
:1042F0005DE7FCF7E5F8324604460D463B460020F4
:104300004FF08041FBF728FF02460B462046294626
:10431000FCF700FA02460B46DDE90001FBF71CFF43
:1043200052465B46FBF718FF0B4602462549002024
:10433000FBF712FF6FF47F73984502DB01EB085126
:10434000F1E608F57A7801EB085100224FF0B873D6
:10435000FFE600BFAFF30080EF39FAFE422E864041
:104360009C7500883CE4377E51302DD5104987C0BC
:10437000D0A4BE726937663EF16BD2C541BDBB3E6B
:104380002CDE25AF6A56113F93BDBE166CC1663F49
:104390003E5555555555C53FFE822B654715F73F90
:1043A0000000E0FE422EE63F763C7935EF39EA3DEB
:1043B000412E8640FFFFEF7FB1A2F03FD8520008A8
:1043C000E85200080000F03F422ED63FFFFF2F3E8C
:1043D000C85200082DE9F041DFF84CE106463EEAFC
:1043E000010E0D4607460A460C4603460FD102460B
:1043F0000B46FCF765F802460B4630462946FBF7AC
:10440000ADFE06460D4630462946BDE8F08100293E
:104410000EDC21F0004E5EEA0707F4D041B10246FF
:104420000B46FBF799FE02460B46FCF773F9E8E7EB
:1044300012150CD1002C6ED00021E6026FD5481E5B
:10444000121AC1F1200023FA00F004438B40A2F2BB
:10445000FF32D5074FF00005C4F3130444F4801471
:1044600042BF640004EBD3745B0004EBD3715010C3
:10447000214416222C464FF400165B00A7198F42E8
:10448000DEBFC91BBC19AD194900013A01EBD3715C
:104490004FEA56064FEA4303F0D14FF0200E944600
:1044A0004FF00046A14206EB0C0702DC12D19F42FE
:1044B00010D8002F07EB060C34DABCF1000F31DB0B
:1044C00004F10108091B44469F4288BF01F1FF31F6
:1044D000DB1B324401EBD377BEF1010E39444FEAC6
:1044E00043034FEA5606DDD10B4306D0541C0BBFE5
:1044F00072460132013522F001026B105208E907C1
:1045000003F17F5303F5001348BF42F0004203EB71
:104510000055164677E7DC0A153A5B058AE7640022
:1045200001318AE7A046CDE70000F07F00000000DF
:104530002DE9F84FBA4B21F000469E4204460D4645
:104540008B4617DDB74A964201DC09D140B12246BD
:104550002B4620462946FBF701FE04460D4605E0A2
:10456000BBF1000FB04C00F32981B04D2046294625
:10457000BDE8F88FAE4B9E4211DCA3F1DE739E4284
:104580000ADC8FA3D3E90023FBF7E8FD0022A94B47
:10459000FCF726FA0028E9D14FF0FF3A27E000F0B7
:1045A00059F9A54B04469E420D4600F3B880A3F589
:1045B00050239E4200F39C8002460B46FBF7CEFD43
:1045C00000229C4BFBF7C8FD002206460F464FF029
:1045D000804320462946FBF7C1FD02460B46304684
:1045E0003946FCF797F84FF0000A04460D4622467C
:1045F0002B4620462946FBF763FF02460B468046C2
:104600008946FBF75DFF70A3D3E9002306460F46FA
:10461000FBF756FF6EA3D3E90023FBF79FFD32465D
:104620003B46FBF74DFF6CA3D3E90023FBF796FD58
:1046300032463B46FBF744FF69A3D3E90023FBF76F
:104640008DFD32463B46FBF73BFF67A3D3E90023D2
:10465000FBF784FD32463B46FBF732FF64A3D3E908
:104660000023FBF77BFD42464B46FBF729FF62A385
:10467000D3E900238046894630463946FBF720FFC0
:104680005FA3D3E90023FBF767FD32463B46FBF708
:1046900017FF5DA3D3E90023FBF75EFD32463B46DF
:1046A000FBF70EFF5AA3D3E90023FBF755FD324673
:1046B0003B46FBF705FF58A3D3E90023FBF74CFD6E
:1046C00032463B46FBF7FCFEBAF1FF3F02460B4683
:1046D0004ED140464946FBF741FD22462B46FBF7AB
:1046E000EFFE02460B4620462946FBF735FD34E730
:1046F0000022504BFBF730FD002206460F464D4B83
:1047000020462946FBF72AFD02460B46304639462D
:10471000FCF700F84FF0010A04460D4667E7474BE7
:104720009E421ADC0022464BFBF716FD002206468D
:104730000F46434B20462946FBF7C2FE00223D4B65
:10474000FBF70CFD02460B4630463946FBF7E2FF0D
:104750004FF0020A04460D4649E702460B46002088
:104760003849FBF7D7FF4FF0030A04460D463EE7F2
:1047700040464946FBF7F2FC22462B46FBF7A0FEDB
:10478000314E324B4FEACA0A56449A44DAE90023C2
:10479000FBF7E2FC22462B46FBF7DEFC02460B460B
:1047A000D6E90001FBF7D8FCBBF1000F04460D462B
:1047B000BFF6DCAE01F100431D46D7E6244DD5E639
:1047C0009C7500883CE4377E11DA22E33AAD903FD5
:1047D000EB0D76244B7BA93F513DD0A0660DB13F38
:1047E0006E204CC5CD45B73FFF8300922449C23FA0
:1047F0000D5555555555D53F2F6C6A2C44B4A2BF65
:104800009AFDDE522DDEAD3F6D9A74AFF2B0B33F2C
:10481000711623FEC671BC3FC4EB98999999C93FA4
:10482000FFFF0F440000F07F182D4454FB21F9BF17
:10483000FFFFDB3F0000F03FFFFFF23FFF7F034041
:104840000000F83F0000F0BFF852000818530008BD
:10485000FB21F93F21F00041704741F0004101F593
:104860008010C00F7047002070470000014B18688F
:10487000704700BF18000020F8B500BFF8BC08BCA6
:104880009E467047F8B500BFF8BC08BC9E4670470E
:1048900002030405060708090A0B0C0D0E0F101081
:1048A00000000000000000000000000487E3E37047
:1048B00010000000001545454151540000000089DA
:1048C000C42391F0201008000087C020D0213008B8
:1048D0000400008E40C0E19038241200008140E0C6
:1048E000E11138040200000E85C201000000000042
:1048F000000002E143207C0000000089C5A2911065
:1049000008041E0000000000000000000000080471
:1049100002F1000000000000000000F0402010083C
:1049200004000000008043201008040008040281F5
:10493000030000000000080402F1432010080400F6
:104940003F00000000000000000000C00F00000059
:1049500000000000000000F0030000000000000064
:10496000000000FC00000000000000000000003F0C
:10497000000008040281432010080400080402F12A
:10498000402010080400080402F1030000000000A9
:10499000000000F0432010080400080402814020B9
:1049A00010080400001084202040403E0000000158
:1049B00001028210043E00000000C047A150280000
:1049C00000000010C487F01104000000000C89E012
:1049D00021706C0400000000008000000000000056
:1049E0000000000000000000000000040281400000
:1049F00010000000000A8502000000000000000A0C
:104A0000C547F15128000000000447C14171100062
:104A1000000000928A82A0A8240000000082424187
:104A2000504958000000000C820000000000000007
:104A300000088240202020000000000202028120A5
:104A400008000000008088E2A38800000000000049
:104A500002E143200000000000000000006010049C
:104A60000000000000E00300000000000000000063
:104A70000020380800000010088220080400000010
:104A8000000445241251100000000004438140201E
:104A90007C000000008E088421087C000000001FBC
:104AA000088201893800000000088622F1412000B8
:104AB0000000009F4063028938000000000C41A004
:104AC000318938000000001F080241100800000072
:104AD000008E48C4118938000000008E48C602418B
:104AE0001800000000008283002038080000000049
:104AF0008283006010040000001004414040400028
:104B000000000000C007F0010000000000010101EA
:104B1000411004000000008E0882400010000000D8
:104B2000008E48A6D2083800000000044524F2890F
:104B300044000000000F89C421913C000000008E59
:104B40004820108838000000000F894422913C0062
:104B50000000009F40E011087C000000009F40E042
:104B6000110804000000008E4820908938000000E1
:104B7000009148E4138944000000000E02814020A7
:104B800038000000001C0804028938000000009171
:104B900044615048440000000081402010087C001F
:104BA00000000091C8A61289440000000091C8A42A
:104BB000928944000000008E4824128938000000C9
:104BC000008F48E4110804000000008E482412A958
:104BD00038200000008F48E4514844000000008E57
:104BE00048C0018938000000001F028140201000E9
:104BF00000000091482412893800000000914844C8
:104C0000A15010000000009148A452D944000000B7
:104C100000918882A0884400000000918882402092
:104C200010000000001F088220087C000000000E19
:104C3000814020103800000000818080808040008A
:104C40000000000E0402814038000000000445040A
:104C5000000000000000000000000000003E000016
:104C60000006020200000000000000008003E2894C
:104C700078000000008140631299340000000000B9
:104C800080231288380000000010882513C95800BE
:104C9000000000008023F20938000000000C89E0C9
:104CA00021100800000000008025610838220E0055
:104CB000008140631289440000000004808140208C
:104CC0003800000000080003814024120600008123
:104CD0004024714844000000000602814020380052
:104CE00000000000C0A252A9440000000000406380
:104CF000128944000000000080231289380000005F
:104D0000000040633269040201000000802593B175
:104D10004020100000004063120804000000000062
:104D20008023E0803C0000000002C143209030005E
:104D300000000000402412C9580000000000402478
:104D4000A250100000000000402452A928000000DA
:104D5000000040444150440000000000402492B153
:104D600040220E000000C00741107C000000001827
:104D700002C2802060000000000402814020100078
:104D800000000003828021200C00000000924A02F3
:104D90000000000000000000000000000000000013
:104DA0000000000000000000000000000000000003
:104DB00000000000000000000000000000000000F3
:104DC00000000000000000000000000000000000E3
:104DD00000000000000000000000000000000000D3
:104DE00000000000000000000000000000000000C3
:104DF00000000000000000000000000000000000B3
:104E000000000000000000000000000000000000A2
:104E10000000000000000000000000000000000092
:104E20000000000000000000000000000000000082
:104E30000000000000000000000000000000000072
:104E40000000000000000000000000000000000062
:104E50000000000000000000000000000000000052
:104E60000000000000000000000000000000000042
:104E70000000000000000000000000000000000032
:104E80000000000000000000000000000000000022
:104E90000000000000000000000000000000000012
:104EA0000000000000000000000000000000000002
:104EB00000000000000000000000000000000000F2
:104EC00000000000000000000000000000000000E2
:104ED00000000000000000000000000000000000D2
:104EE00000000000000000000000000000000000C2
:104EF00000000000000000000000000000000000B2
:104F000000000000000000000000000000000000A1
:104F10000000000000000000000000000000000091
:104F20000000000000000000000000000000000081
:104F300014804FE011087C0000001C51B25ACC8A4A
:104F40003800000000000000000000000000000029
:104F50000000000000000000000000000000000051
:104F60000000000000000000000000000000000041
:104F70000000000000000000000000000000000031
:104F80000004050100000000000000000000000017
:104F90000000000000000000000000000000000011
:104FA0000000000000000000000000000000000001
:104FB00000000000000000000000000000000000F1
:104FC0000000000000000000008000000000000061
:104FD000000A8023F20938000000000000000000F1
:104FE00000000000000000000000000000000000C1
:104FF00000000000000000000000000000000000B1
:1050000000000000000000000000000000000000A0
:105010000000000000000000000000000000000090
:1050200000822212F94422000000804720F08844C8
:105030001E000000804724F288441E000000804FBC
:105040002010080402000000000C852291483E1147
:105050000000804F20F008043E000000804AA5E2D6
:10506000A8542A000000004704C280441C0000002D
:10507000804824539944220000000A422453994452
:10508000220000008048A230282422000000008E68
:105090004422914822000000804864538944220041
:1050A0000000804824F289442200000000472412B6
:1050B00089441C000000804F241289442200000013
:1050C000804724F20804020000000047241008442E
:1050D0001C000000800F8140201008000000804864
:1050E00024A22008020000000082A352A938080070
:1050F0000000804844415044220000008044229136
:1051000048243E100800804824E28140200000002E
:10511000804AA552A9543E000000804AA552A954D5
:105120003E100800808140E090481C00000080484C
:105130002472C9642E000000008140E090481C00E9
:105140000000004704C281441C0000008044A57296
:10515000A95412000000004F24E2A14822000000E0
:105160000000C001F1443C000000004FC011894420
:105170001C0000000000E01179441E000000000047
:10518000C023100804000000000080A150283E1138
:1051900000000000C011F9041C0000000000A05233
:1051A00071542A0000000000C01161441C0000007E
:1051B00000002092A94C2200000000052192A94C79
:1051C000220000000000209238242200000000008D
:1051D0008023914822000000000020B2A944220050
:1051E000000000002012F944220000000000C0115D
:1051F00089441C0000000000E013894422000000E4
:105200000000A031894C1A8100000000C01109443F
:105210001C0000000000E043201008000000000017
:1052200020128978201107000002C151A9541C04E2
:105230000200000020A2202822000000000020918F
:1052400048243E10080000002012F1402000000019
:105250000000A052A9543E0000000000A052A95432
:105260003E1008000000602070481C000000000094
:105270002012B9642E0000000000402070481C007D
:1052800000000000C011E1441C000000000020519B
:10529000B954120000000000C013F14422000000C5
:1052A00000000000000000000102030406070809D6
:1052B00000000000010203046578700073717274CD
:1052C0000000000000000000000000000000E03FBF
:1052D000000000000000E0BF0000E0FE422EE63FBC
:1052E0000000E0FE422EE6BF763C7935EF39EA3D1C
:1052F000763C7935EF39EABD4FBB610567ACDD3FE0
:10530000182D4454FB21E93F9BF681D20B73EF3FEC
:10531000182D4454FB21F93FE2652F227F2B7A3C64
:10532000075C143326A6813CBDCBF07A8807703C1D
:08533000075C143326A6913C32
:045338003501000833
:04533C001101000853
:105340000100000010000000070A0A00A048000841
:1053500000A24A04010000001C0000200000000020
:10536000000000000000000000000000000000003D
:10537000000000000000000000000000000000002D
:10538000000000000000000000000000000000001D
:10539000000000000000000000000000000000000D
:1053A00000000000000000000000000000000000FD
:0C53B000000000000000000000000000F1
:0400000508003D01B1
:00000001FF
