:020000040800F2
:10000000005000207D5F00085D5800086958000816
:100010006F580008755800087B5800080000000061
:1000200000000000000000000000000081580008EF
:100030008D5800080000000099580008A5580008D5
:10004000C55F0008C55F0008C55F0008C55F000800
:10005000C55F0008C55F0008C55F0008C55F0008F0
:10006000C55F0008C55F0008C55F0008C55F0008E0
:10007000C55F0008C55F0008C55F0008C55F0008D0
:10008000C55F0008C55F0008C55F0008C55F0008C0
:10009000C55F0008C55F0008C55F0008C55F0008B0
:1000A000C55F0008C55F0008C55F0008C55F0008A0
:1000B000C55F0008B1580008A15B0008C55F0008D3
:1000C000C55F0008C55F0008C55F0008C55F000880
:1000D000C55F00087D480008C55F0008C55F0008CF
:1000E000C55F0008C55F0008C55F0008000000008C
:1000F0000000000000000000000000000000000000
:0C01000000000000000000005FF808F1A3
:1001100010B5054C237833B9044B13B10448AFF341
:1001200000800123237010BD80000020000000002B
:10013000E075000808B5034B1BB103490348AFF352
:10014000008008BD0000000084000020E075000869
:1001500081F0004102E000BF83F0004330B54FEA78
:1001600041044FEA430594EA050F08BF90EA020FE5
:100170001FBF54EA000C55EA020C7FEA645C7FEA78
:10018000655C00F0E2804FEA5454D4EB5555B8BF9B
:100190006D420CDD2C4480EA020281EA030382EA0C
:1001A000000083EA010180EA020281EA0303362D9E
:1001B00088BF30BD11F0004F4FEA01314FF4801C71
:1001C0004CEA113102D0404261EB410113F0004F83
:1001D0004FEA03334CEA133302D0524263EB43033A
:1001E00094EA050F00F0A780A4F10104D5F1200ED8
:1001F0000DDB02FA0EFC22FA05F2801841F1000133
:1002000003FA0EF2801843FA05F359410EE0A5F106
:1002100020050EF1200E012A03FA0EFC28BF4CF037
:10022000020C43FA05F3C01851EBE37101F00045ED
:1002300007D54FF0000EDCF1000C7EEB00006EEBFA
:100240000101B1F5801F1BD3B1F5001F0CD3490884
:100250005FEA30004FEA3C0C04F101044FEA4452DB
:1002600012F5800F80F09A80BCF1004F08BF5FEA62
:10027000500C50F1000041EB045141EA050130BD42
:100280005FEA4C0C404141EB010111F4801FA4F1E5
:100290000104E9D191F0000F04BF01460020B1FA3A
:1002A00081F308BF2033A3F10B03B3F120020CDA72
:1002B0000C3208DD02F1140CC2F10C0201FA0CF050
:1002C00021FA02F10CE002F11402D8BFC2F1200CB5
:1002D00001FA02F120FA0CFCDCBF41EA0C0190406B
:1002E000E41AA2BF01EB0451294330BD6FEA0404B4
:1002F0001F3C1CDA0C340EDC04F11404C4F120029F
:1003000020FA04F001FA02F340EA030021FA04F3B0
:1003100045EA030130BDC4F10C04C4F1200220FA07
:1003200002F001FA04F340EA0300294630BD21FA45
:1003300004F0294630BD94F0000F83F4801306BF0B
:1003400081F480110134013D4EE77FEA645C18BFFF
:100350007FEA655C29D094EA050F08BF90EA020F96
:1003600005D054EA000C04BF1946104630BD91EA8E
:10037000030F1EBF0021002030BD5FEA545C05D191
:100380004000494128BF41F0004130BD14F58004D0
:100390003CBF01F5801130BD01F0004545F0FE4144
:1003A00041F470014FF0000030BD7FEA645C1ABF79
:1003B000194610467FEA655C1CBF0B46024650EAB0
:1003C000013406BF52EA033591EA030F41F40021DC
:1003D00030BD00BF90F0000F04BF0021704730B562
:1003E0004FF4806404F132044FF000054FF0000137
:1003F00050E700BF90F0000F04BF0021704730B5F8
:100400004FF4806404F1320410F0004548BF4042CC
:100410004FF000013EE700BF42004FEAE2014FEA21
:1004200031014FEA02701FBF12F07F4393F07F4FFC
:1004300081F06051704792F0000F14BF93F07F4F2E
:10044000704730B54FF4607401F0004521F0004171
:1004500020E700BF50EA010208BF704730B54FF0F7
:1004600000050AE050EA010208BF704730B511F0FC
:10047000004502D5404261EB41014FF4806404F134
:1004800032045FEA915C3FF4DCAE4FF003025FEAB6
:10049000DC0C18BF03325FEADC0C18BF033202EB3E
:1004A000DC02C2F1200300FA03FC20FA02F001FA98
:1004B00003FE40EA0E0021FA02F11444C1E600BF37
:1004C00070B54FF0FF0C4CF4E06C1CEA11541DBFEA
:1004D0001CEA135594EA0C0F95EA0C0F00F0DEF8B5
:1004E0002C4481EA030621EA4C5123EA4C5350EA9A
:1004F000013518BF52EA033541F4801143F48013EB
:1005000038D0A0FB02CE4FF00005E1FB02E506F07B
:100510000042E0FB03E54FF00006E1FB03569CF0D0
:10052000000F18BF4EF0010EA4F1FF04B6F5007FD6
:1005300064F5407404D25FEA4E0E6D4146EB060648
:1005400042EAC62141EA55514FEAC52040EA5E50D1
:100550004FEACE2EB4F1FD0C88BFBCF5E06F1ED87B
:10056000BEF1004F08BF5FEA500E50F1000041EBB2
:10057000045170BD06F0004646EA010140EA02005F
:1005800081EA0301B4EB5C04C2BFD4EB0C0541EA81
:10059000045170BD41F480114FF0000E013C00F396
:1005A000AB8014F1360FDEBF002001F0004170BDBA
:1005B000C4F10004203C35DA0C341BDC04F11404D3
:1005C000C4F1200500FA05F320FA04F001FA05F25F
:1005D00040EA020001F0004221F0004110EBD3702C
:1005E00021FA04F642EB06015EEA430E08BF20EA58
:1005F000D37070BDC4F10C04C4F1200500FA04F3FB
:1006000020FA05F001FA04F240EA020001F000418C
:1006100010EBD37041F100015EEA430E08BF20EAFF
:10062000D37070BDC4F1200500FA05F24EEA020E47
:1006300020FA04F301FA05F243EA020321FA04F076
:1006400001F0004121FA04F220EA020000EBD3702D
:100650005EEA430E08BF20EAD37070BD94F0000F2D
:100660000FD101F00046400041EB010111F4801F61
:1006700008BF013CF7D041EA060195F0000F18BF12
:10068000704703F00046520043EB030313F4801F4E
:1006900008BF013DF7D043EA0603704794EA0C0F08
:1006A0000CEA135518BF95EA0C0F0CD050EA41061E
:1006B00018BF52EA4306D1D181EA030101F000419B
:1006C0004FF0000070BD50EA410606BF10461946C3
:1006D00052EA430619D094EA0C0F02D150EA0136CF
:1006E00013D195EA0C0F05D152EA03361CBF104610
:1006F00019460AD181EA030101F0004141F0FE41AF
:1007000041F470014FF0000070BD41F0FE4141F432
:10071000780170BD70B54FF0FF0C4CF4E06C1CEA32
:1007200011541DBF1CEA135594EA0C0F95EA0C0FE7
:1007300000F0A7F8A4EB050481EA030E52EA0335A2
:100740004FEA013100F088804FEA03334FF08055C3
:1007500045EA131343EA12634FEA022245EA1115F0
:1007600045EA10654FEA00260EF000419D4208BFA1
:10077000964244F1FD0404F5407402D25B084FEA4E
:100780003202B61A65EB03055B084FEA32024FF4FA
:1007900080104FF4002CB6EB020E75EB030E22BF57
:1007A000B61A754640EA0C005B084FEA3202B6EB17
:1007B000020E75EB030E22BFB61A754640EA5C00C6
:1007C0005B084FEA3202B6EB020E75EB030E22BF56
:1007D000B61A754640EA9C005B084FEA3202B6EB57
:1007E000020E75EB030E22BFB61A754640EADC0016
:1007F00055EA060E18D04FEA051545EA16754FEA78
:1008000006164FEAC30343EA52734FEAC2025FEA95
:100810001C1CC0D111F4801F0BD141EA00014FF024
:1008200000004FF0004CB6E711F4801F04BF0143F5
:100830000020B4F1FD0C88BFBCF5E06F3FF6AFAE11
:10084000B5EB030C04BFB6EB020C5FEA500C50F1A1
:10085000000041EB045170BD0EF0004E4EEA113124
:1008600014EB5C04C2BFD4EB0C0541EA045170BD2B
:1008700041F480114FF0000E013C90E645EA060E6F
:100880008DE60CEA135594EA0C0F08BF95EA0C0F9D
:100890003FF43BAF94EA0C0F0AD150EA01347FF4E5
:1008A00034AF95EA0C0F7FF425AF104619462CE7BC
:1008B00095EA0C0F06D152EA03353FF4FDAE10461F
:1008C000194622E750EA410618BF52EA43067FF470
:1008D000C5AE50EA41047FF40DAF52EA43057FF400
:1008E000EBAE12E74FF0FF3C06E000BF4FF0010C0B
:1008F00002E000BF4FF0010C4DF804CD4FEA410C6F
:100900007FEA6C5C4FEA430C18BF7FEA6C5C1BD03B
:1009100001B050EA410C0CBF52EA430C91EA030FBC
:1009200002BF90EA020F0020704710F1000F91EA19
:10093000030F58BF994208BF90422CBFD8176FEAE7
:10094000E37040F0010070474FEA410C7FEA6C5CB5
:1009500002D150EA013C07D14FEA430C7FEA6C5CBC
:10096000D6D152EA033CD3D05DF8040B704700BFE8
:100970008446104662468C461946634600E000BF36
:1009800001B5FFF7B7FF002848BF10F1000F01BD08
:100990004DF808EDFFF7F4FF0CBF012000205DF8D3
:1009A00008FB00BF4DF808EDFFF7EAFF34BF012058
:1009B00000205DF808FB00BF4DF808EDFFF7E0FFF1
:1009C00094BF012000205DF808FB00BF4DF808ED42
:1009D000FFF7CEFF94BF012000205DF808FB00BFA9
:1009E0004DF808EDFFF7C4FF34BF012000205DF88B
:1009F00008FB00BF4FEA410C7FEA6C5C02D150EA71
:100A0000013C0AD14FEA430C7FEA6C5C02D152EA06
:100A1000033C02D14FF0000070474FF001007047D7
:100A20004FEA410212F5001215D211D56FF4787316
:100A3000B3EB625212D94FEAC12343F0004343EAB9
:100A4000505311F0004F23FA02F018BF4042704794
:100A50004FF00000704750EA013005D111F000401E
:100A600008BF6FF0004070474FF00000704700BFB4
:100A70004A0011D212F5001211D20DD56FF478731D
:100A8000B3EB62520ED44FEAC12343F0004343EA72
:100A9000505323FA02F070474FF00000704750EABD
:100AA000013002D14FF0FF3070474FF00000704727
:100AB00080F0004002E000BF81F0004142001FBF13
:100AC0005FEA410392EA030F7FEA226C7FEA236C1C
:100AD0006AD04FEA1262D2EB1363C1BFD218414011
:100AE00048404140B8BF5B42192B88BF704710F0A7
:100AF000004F40F4000020F07F4018BF404211F04A
:100B0000004F41F4000121F07F4118BF494292EAB1
:100B1000030F3FD0A2F1010241FA03FC10EB0C00DD
:100B2000C3F1200301FA03F100F0004302D549426A
:100B300060EB4000B0F5000F13D3B0F1807F06D317
:100B400040084FEA310102F10102FE2A51D2B1F10F
:100B5000004F40EBC25008BF20F0010040EA030004
:100B60007047490040EB000010F4000FA2F10102B1
:100B7000EDD1B0FA80FCACF1080CB2EB0C0200FA3B
:100B80000CF0AABF00EBC25052421843BCBFD04089
:100B90001843704792F0000F81F4000106BF80F403
:100BA00000000132013BB5E74FEA41037FEA226CC6
:100BB00018BF7FEA236C21D092EA030F04D092F091
:100BC000000F08BF0846704790EA010F1CBF0020C5
:100BD000704712F07F4F04D1400028BF40F0004022
:100BE000704712F100723CBF00F50000704700F042
:100BF000004343F0FE4040F4000070477FEA226269
:100C000016BF08467FEA23630146420206BF5FEA39
:100C1000412390EA010F40F4800070474FF0000339
:100C200004E000BF10F0004348BF40425FEA000C00
:100C300008BF704743F0964301464FF000001CE0A8
:100C400050EA010208BF70474FF000030AE000BFFE
:100C500050EA010208BF704711F0004302D540423C
:100C600061EB41015FEA010C02BF844601460020AE
:100C700043F0B64308BFA3F18053A3F50003BCFAC9
:100C80008CF2083AA3EBC25310DB01FA02FC634476
:100C900000FA02FCC2F12002BCF1004F20FA02F27D
:100CA00043EB020008BF20F00100704702F1200270
:100CB00001FA02FCC2F1200250EA4C0021FA02F2D1
:100CC00043EB020008BF20EADC7070474FF0FF0CD6
:100CD0001CEAD0521EBF1CEAD15392EA0C0F93EAD1
:100CE0000C0F6FD01A4480EA010C400218BF5FEA73
:100CF00041211ED04FF0006343EA501043EA5111E6
:100D0000A0FB01310CF00040B1F5000F3EBF4900DF
:100D100041EAD3715B0040EA010062F17F02FD2AE3
:100D20001DD8B3F1004F40EBC25008BF20F00100C6
:100D3000704790F0000F0CF0004C08BF49024CEADD
:100D4000502040EA51207F3AC2BFD2F1FF0340EA6F
:100D5000C250704740F400004FF00003013A5DDCE0
:100D600012F1190FDCBF00F000407047C2F1000221
:100D7000410021FA02F1C2F1200200FA02FC5FEA0E
:100D8000310040F1000053EA4C0308BF20EADC7058
:100D9000704792F0000F00F0004C02BF400010F4CA
:100DA000000F013AF9D040EA0C0093F0000F01F077
:100DB000004C02BF490011F4000F013BF9D041EA99
:100DC0000C018FE70CEAD15392EA0C0F18BF93EA9B
:100DD0000C0F0AD030F0004C18BF31F0004CD8D1C5
:100DE00080EA010000F00040704790F0000F17BF4C
:100DF00090F0004F084691F0000F91F0004F14D092
:100E000092EA0C0F01D142020FD193EA0C0F03D1E9
:100E10004B0218BF084608D180EA010000F00040EC
:100E200040F0FE4040F40000704740F0FE4040F4C7
:100E3000400070474FF0FF0C1CEAD0521EBF1CEA66
:100E4000D15392EA0C0F93EA0C0F69D0A2EB030284
:100E500080EA010C49024FEA402037D04FF080531E
:100E600043EA111143EA10130CF000408B4238BFE3
:100E70005B0042F17D024FF4000C8B4224BF5B1AF1
:100E800040EA0C00B3EB510F24BFA3EB510340EA3F
:100E90005C00B3EB910F24BFA3EB910340EA9C00ED
:100EA000B3EBD10F24BFA3EBD10340EADC001B015D
:100EB00018BF5FEA1C1CE0D1FD2A3FF650AF8B4201
:100EC00040EBC25008BF20F0010070470CF0004C0E
:100ED0004CEA50207F32C2BFD2F1FF0340EAC25039
:100EE000704740F400004FF00003013A37E792F0FA
:100EF000000F00F0004C02BF400010F4000F013A58
:100F0000F9D040EA0C0093F0000F01F0004C02BF52
:100F1000490011F4000F013BF9D041EA0C0195E7BB
:100F20000CEAD15392EA0C0F08D142027FF47DAF54
:100F300093EA0C0F7FF470AF084676E793EA0C0F44
:100F400004D14B023FF44CAF08466EE730F0004C42
:100F500018BF31F0004CCAD130F000427FF45CAFD2
:100F600031F000437FF43CAF5FE700BF4FEA40023F
:100F7000B2F1FE4F0FD34FF09E03B3EB12620DD9C7
:100F80004FEA002343F0004310F0004F23FA02F031
:100F900018BF404270474FF00000704712F1610FD8
:100FA00001D1420205D110F0004008BF6FF00040AF
:100FB00070474FF00000704780B500AF084A084BFB
:100FC0001B6843F010031360032000F03FF900207A
:100FD00000F008F804F010FC0023184680BD00BFA4
:100FE0000020024080B582B000AF7860124B1A68D2
:100FF000124B1B7819464FF47A73B3FBF1F3B2FB33
:10100000F3F3184600F057F90346002B01D00123F3
:101010000EE07B680F2B0AD8002279684FF0FF3072
:1010200000F01FF9064A7B681360002300E00123EB
:1010300018460837BD4680BD14000020040000207B
:101040000000002080B400AF054B1B781A46054B0A
:101050001B681344034A136000BFBD4680BC704741
:1010600004000020A804002080B400AF024B1B68DD
:101070001846BD4680BC7047A804002080B584B0E7
:1010800000AF7860FFF7F0FFB8607B68FB60FB683B
:10109000B3F1FF3F05D0094B1B781A46FB68134498
:1010A000FB6000BFFFF7E0FF0246BB68D21AFB6897
:1010B0009A42F7D300BF1037BD4680BD0400002020
:1010C00080B485B000AF78607B6803F00703FB60F5
:1010D0000C4BDB68BB60BA684FF6FF031340BB6084
:1010E000FB681A02BB68134343F0BF6343F4003349
:1010F000BB60044ABB68D36000BF1437BD4680BCE8
:10110000704700BF00ED00E080B400AF044BDB6827
:101110001B0A03F007031846BD4680BC704700BF9A
:1011200000ED00E080B483B000AF0346FB710849D6
:1011300097F907305B09FA7902F01F02012000FAE3
:1011400002F241F8232000BF0C37BD4680BC704737
:1011500000E100E080B483B000AF03463960FB716A
:1011600097F90730002B0BDA0D49FB7903F00F03D9
:10117000043B3A68D2B21201D2B20B441A7609E0AB
:10118000084997F907303A68D2B21201D2B20B443B
:1011900083F8002300BF0C37BD4680BC704700BFFA
:1011A00000ED00E000E100E080B489B000AFF8603D
:1011B000B9607A60FB6803F00703FB61FB69C3F168
:1011C0000703042B28BF0423BB61FB690433062BF0
:1011D00002D9FB69033B00E000237B610122BB696C
:1011E00002FA03F35A1EBB681A407B699A40012138
:1011F0007B6901FA03F3591E7B680B4013431846C1
:101200002437BD4680BC704780B582B000AF78609F
:101210007B68013BB3F1807F01D301230FE00A4AD1
:101220007B68013B53600F214FF0FF30FFF792FFC7
:10123000054B00229A60044B07221A6000231846CF
:101240000837BD4680BD00BF10E000E080B582B029
:1012500000AF78607868FFF733FF00BF0837BD46FE
:1012600080BD80B586B000AF0346B9607A60FB737D
:1012700000237B61FFF748FF78617A68B968786975
:10128000FFF792FF024697F90F3011461846FFF715
:1012900061FF00BF1837BD4680BD80B582B000AF8A
:1012A0000346FB7197F907301846FFF73BFF00BF75
:1012B0000837BD4680BD80B582B000AF78607868E1
:1012C000FFF7A2FF034618460837BD4680BD000061
:1012D00080B48BB000AF786039600023FB610023DD
:1012E000BB6100237B6100233B6200233B61002341
:1012F0007B6227E101227B6A02FA03F3FB613B6810
:101300001A68FB691340BB61BA69FB699A4240F0F5
:1013100016813B685B68122B34D0122B0DD8022B40
:101320002BD0022B04D8002B31D0012B1CD048E04D
:10133000032B43D0112B1BD043E0874A934226D086
:10134000854A934206D8854A934220D0844A9342E4
:101350001DD036E0834A934219D0834A934216D077
:10136000824A934213D02CE03B68DB683B6228E062
:101370003B68DB6804333B6223E03B68DB6808338F
:101380003B621EE03B68DB680C333B6219E03B6864
:101390009B68002B02D104233B6212E03B689B68F0
:1013A000012B05D108233B627B68FA691A6108E0CA
:1013B00008233B627B68FA695A6102E000233B62C2
:1013C00000BFBB69FF2B01D87B6801E07B68043359
:1013D000FB60BB69FF2B02D87B6A9B0002E07B6A43
:1013E000083B9B003B61FB681A680F213B6901FACF
:1013F00003F3DB431A40396A3B6901FA03F31A43EA
:10140000FB681A603B685B6803F08053002B00F0B8
:101410009680574A564B9B6943F001039361544BA6
:101420009B6903F00103BB60BB68524A7B6A9B085F
:10143000023352F823307B617B6A03F003039B0085
:101440000F2202FA03F3DB437A6913407B617B6866
:10145000494A934213D07B68484A93420DD07B6837
:10146000474A934207D07B68464A934201D10323FF
:1014700006E0042304E0022302E0012300E000234D
:101480007A6A02F00302920093407A6913437B6107
:1014900038497B6A9B0802337A6941F823203B680C
:1014A0005B6803F48033002B06D03749364B1A684B
:1014B000BB6913430B6006E03349334B1A68BB69C1
:1014C000DB4313400B603B685B6803F40033002B85
:1014D00006D02D492C4B5A68BB6913434B6006E07C
:1014E0002949294B5A68BB69DB4313404B603B6871
:1014F0005B6803F48013002B06D02349224B9A68C3
:10150000BB6913438B6006E01F491F4B9A68BB6998
:10151000DB4313408B603B685B6803F40013002BD4
:1015200006D01949184BDA68BB691343CB6006E053
:101530001549154BDA68BB69DB431340CB607B6A06
:1015400001337B627B6A0F2B7FF6D4AE00BF2C3752
:10155000BD4680BC704700BF000021100000111084
:1015600000001210000031100000321000002210A4
:10157000001002400000014000080140000C014042
:1015800000100140001401400004014080B584B007
:1015900000AF78600023FB600023BB607B68002BFA
:1015A00001D10123E7E07B6893F83D30DBB2002BEB
:1015B00006D17B68002283F83C20786803F032FD76
:1015C0007B68242283F83D207B681B687A68126858
:1015D000126822F001021A6001F0E2FDB8607B6837
:1015E0005B68674A934207D8BB68664A934294BFD8
:1015F00001230023DBB206E0BB68634A934294BF39
:1016000001230023DBB2002B01D00123B3E0BB6830
:101610005E4AA2FB03239B0CFB607B681B68FA6895
:101620005A607B681A687B685B6855498B4202D8B0
:10163000FB68013309E0FB684FF4967101FB03F38B
:101640005349A1FB03139B09013313627B6819689B
:101650007B685B684A4A93420DD8BB685A1E7B6818
:101660005B685B00B2FBF3F30133C3F30B03042BA2
:1016700038BF04234FE07B689B68002B11D1BB6807
:10168000581E7B685A6813465B001344B0FBF3F3A3
:101690000133C3F30B03002B0CBF01230023DBB288
:1016A00012E0BB68581E7B685A6813469B001344BF
:1016B0009A001344B0FBF3F30133C3F30B03002B85
:1016C0000CBF01230023DBB2002B01D0012322E059
:1016D0007B689B68002B0ED1BB68581E7B685A68DC
:1016E00013465B001344B0FBF3F30133C3F30B0366
:1016F00043F400430FE0BB68581E7B685A681346EA
:101700009B0013449A001344B0FBF3F30133C3F37B
:101710000B0343F44043CB617B681B687A68D16953
:101720007A68126A0A431A607B681B687A681169D2
:101730007A68D2680A439A607B681B687A68516944
:101740007A6892690A43DA607B681B687A68126873
:10175000126842F001021A607B6800221A647B68FA
:10176000202283F83D207B6800221A637B680022D8
:1017700083F83E20002318461037BD4680BD00BFC9
:10178000A08601007F841E00FF083D0083DE1B430E
:10179000D34D621080B588B002AFF8607A601A4607
:1017A0000B467B8113463B8100237B61FFF75CFC8A
:1017B0007861FB6893F83D30DBB2202B40F0EE807F
:1017C0007B690093192301227749F86800F062FFD2
:1017D0000346002B01D00223E1E0FB6893F83C3084
:1017E000012B01D10223DAE0FB68012283F83C20BF
:1017F000FB681B681B6803F00103012B07D0FB6823
:101800001B68FA681268126842F001021A60FB68ED
:101810001B68FA681268126822F400621A60FB689A
:10182000212283F83D20FB68102283F83E20FB68CC
:1018300000221A64FB687A685A62FB683A895A8502
:10184000FB685A4ADA62FB685B8D9AB2FB681A85BC
:1018500079897B693A6AF86800F026FD0346002B17
:101860000FD0FB681B6C042B05D1FB68002283F8AA
:101870003C20012393E0FB68002283F83C200323F3
:101880008DE000233B61FB681B685B693B61FB6883
:101890001B689B693B613B6966E07A69396AF86855
:1018A00000F0B7FF0346002B0FD0FB681B6C042B26
:1018B00009D1FB681B68FA681268126842F400726A
:1018C0001A6001236BE0032369E0FB681A68FB6878
:1018D0005B6A581CF96848621B781361FB685B8D72
:1018E0009BB2013B9AB2FB685A85FB681B8D013B9A
:1018F0009AB2FB681A85FB681B685B6903F00403F6
:10190000042B19D1FB681B8D002B15D0FB681A68BE
:10191000FB685B6A581CF96848621B781361FB68B6
:101920005B8D9BB2013B9AB2FB685A85FB681B8DAD
:10193000013B9AB2FB681A857A69396AF86800F047
:10194000A5FF0346002B0FD0FB681B6C042B09D1AD
:10195000FB681B68FA681268126842F400721A6029
:1019600001231CE003231AE0FB681B8D002B94D19C
:10197000FB681B68FA681268126842F400721A6009
:10198000FB68202283F83D20FB68002283F83E207C
:10199000FB68002283F83C20002300E00223184665
:1019A0001837BD4680BD00BF020010000000FFFFD9
:1019B00080B588B002AFF860084611461A46034663
:1019C0007B810B463B811346FB8000237B61FFF745
:1019D0004BFB7861FB6893F83D30DBB2202B40F085
:1019E000E7807B690093192301227449F86800F0AD
:1019F00051FE0346002B01D00223DAE0FB6893F886
:101A00003C30012B01D10223D3E0FB68012283F893
:101A10003C20FB681B681B6803F00103012B07D007
:101A2000FB681B68FA681268126842F001021A60CB
:101A3000FB681B68FA681268126822F400621A6078
:101A4000FB68212283F83D20FB68402283F83E207A
:101A5000FB6800221A64FB683A6A5A62FB68BA8C17
:101A60005A85FB68564ADA62FB685B8D9AB2FB685E
:101A70001A85F8883A8979897B690193BB6A009352
:101A80000346F86800F092FC0346002B5ED0FB682A
:101A90001B6C042B05D1FB68002283F83C2001233A
:101AA00087E0FB68002283F83C20032381E07A6909
:101AB000B96AF86800F0ADFE0346002B0FD0FB6852
:101AC0001B6C042B09D1FB681B68FA68126812684A
:101AD00042F400721A6001236BE0032369E0FB68A3
:101AE0001A68FB685B6A581CF96848621B781361C6
:101AF000FB681B8D013B9AB2FB681A85FB685B8D06
:101B00009BB2013B9AB2FB685A85FB681B685B6914
:101B100003F00403042B19D1FB681B8D002B15D097
:101B2000FB681A68FB685B6A581CF96848621B7896
:101B30001361FB681B8D013B9AB2FB681A85FB6839
:101B40005B8D9BB2013B9AB2FB685A85FB681B8D8B
:101B5000002BACD17A69B96AF86800F097FE0346A9
:101B6000002B0FD0FB681B6C042B09D1FB681B6892
:101B7000FA681268126842F400721A60012318E0D1
:101B8000032316E0FB681B68FA681268126842F4C7
:101B900000721A60FB68202283F83D20FB68002257
:101BA00083F83E20FB68002283F83C20002300E0FD
:101BB000022318461837BD4680BD00BF0200100042
:101BC0000000FFFF80B58CB002AFF86008461146F8
:101BD0001A4603467B810B463B811346FB8000235C
:101BE0007B62FFF741FA7862FB6893F83D30DBB225
:101BF000202B40F022827B6A0093192301228A491C
:101C0000F86800F047FD0346002B01D0022315E2DF
:101C1000FB6893F83C30012B01D102230EE2FB68F4
:101C2000012283F83C20FB681B681B6803F001035A
:101C3000012B07D0FB681B68FA681268126842F033
:101C400001021A60FB681B68FA681268126822F4C5
:101C500000621A60FB68222283F83D20FB68402264
:101C600083F83E20FB6800221A64FB683A6B5A62D4
:101C7000FB68BA8E5A85FB686C4ADA62FB685B8D3A
:101C80009AB2FB681A85F8883A8979897B6A019348
:101C9000BB6B00930346F86800F01AFC0346002B68
:101CA0000FD0FB681B6C042B05D1FB68002283F866
:101CB0003C200123C2E1FB68002283F83C2003237F
:101CC000BCE1FB681B8D002B13D100233B62FB683A
:101CD0001B685B693B62FB681B689B693B623B6AF4
:101CE000FB681B68FA681268126842F400721A6096
:101CF00090E1FB681B8D012B1DD1FB681B68FA6806
:101D00001268126822F480621A6072B60023FB61C6
:101D1000FB681B685B69FB61FB681B689B69FB6177
:101D2000FB69FB681B68FA681268126842F400726B
:101D30001A6062B66EE1FB681B8D022B1DD1FB6839
:101D40001B68FA681268126842F400621A6072B680
:101D50000023BB61FB681B685B69BB61FB681B6898
:101D60009B69BB61BB69FB681B68FA6812681268F3
:101D700022F480621A6062B64CE1FB681B68FA6864
:101D80001268126842F480621A6000237B61FB686B
:101D90001B685B697B61FB681B689B697B617B6976
:101DA00038E1FB681B8D032B00F2EF80FB681B8D75
:101DB000012B27D17A6AB96BF86800F0A4FD0346BD
:101DC000002B07D0FB681B6C202B01D1032335E1CE
:101DD000012333E1FB685B6A591CFA685162FA68B7
:101DE00012681269D2B21A70FB681B8D013B9AB25D
:101DF000FB681A85FB685B8D9BB2013B9AB2FB685E
:101E00005A8507E1FB681B8D022B4CD17B6A00933E
:101E1000BB6B00220649F86800F03CFC0346002B2F
:101E200008D003230AE100BF020010000000FFFFFA
:101E30000400010072B6FB681B68FA681268126839
:101E400042F400721A60FB685B6A591CFA685162BE
:101E5000FA6812681269D2B21A70FB681B8D013BD6
:101E60009AB2FB681A85FB685B8D9BB2013B9AB204
:101E7000FB685A8562B6FB685B6A591CFA68516256
:101E8000FA6812681269D2B21A70FB681B8D013BA6
:101E90009AB2FB681A85FB685B8D9BB2013B9AB2D4
:101EA000FB685A85B6E07B6A0093BB6B00226549EC
:101EB000F86800F0EFFB0346002B01D00323BDE0E0
:101EC000FB681B68FA681268126822F480621A6064
:101ED00072B6FB685B6A591CFA685162FA6812684C
:101EE0001269D2B21A70FB681B8D013B9AB2FB6873
:101EF0001A85FB685B8D9BB2013B9AB2FB685A85E1
:101F00007B6A0093BB6B00224E49F86800F0C2FB6D
:101F10000346002B01D0032390E0FB681B68FA689E
:101F20001268126842F400721A60FB685B6A591CFE
:101F3000FA685162FA6812681269D2B21A70FB68C4
:101F40001B8D013B9AB2FB681A85FB685B8D9BB2C7
:101F5000013B9AB2FB685A8562B6FB685B6A591C02
:101F6000FA685162FA6812681269D2B21A70FB6894
:101F70001B8D013B9AB2FB681A85FB685B8D9BB297
:101F8000013B9AB2FB685A8544E07A6AB96BF868FB
:101F900000F0B9FC0346002B07D0FB681B6C202B1C
:101FA00001D103234AE0012348E0FB685B6A591C26
:101FB000FA685162FA6812681269D2B21A70FB6844
:101FC0001B8D013B9AB2FB681A85FB685B8D9BB247
:101FD000013B9AB2FB685A85FB681B685B6903F09A
:101FE0000403042B16D1FB685B6A591CFA68516222
:101FF000FA6812681269D2B21A70FB681B8D013B35
:102000009AB2FB681A85FB685B8D9BB2013B9AB262
:10201000FB685A85FB681B8D002B7FF4C2AEFB6802
:10202000202283F83D20FB68002283F83E20FB68D5
:10203000002283F83C20002300E0022318462837C2
:10204000BD4680BD0400010080B58CB002AFF860D1
:102050007A603B600B467B8100237B6200233B62FE
:102060000023FB610023BB6101237B61FEF7FCFFC2
:102070007862FB6893F83D30DBB2202B40F00A8198
:102080007B6A0093192301228549F86800F002FB5E
:102090000346002B01D00223FDE0FB6893F83C309F
:1020A000012B01D10223F6E0FB68012283F83C20DA
:1020B000FB681B681B6803F00103012B07D0FB685A
:1020C0001B68FA681268126842F001021A60FB6825
:1020D0001B68FA681268126822F400621A60FB68D2
:1020E000242283F83D20FB6800221A64FB686D4AB5
:1020F000DA62FB681B68FA681268126842F4807240
:102100001A607B6A00933B6800224FF00111F86867
:1021100000F0C0FA0346002B01D00323BBE0FB68AC
:102120001B687A89D2B202F0FE021A61FEF79CFFA8
:102130007862FB681B685B6903F00203022B0CBF2B
:1021400001230023DBB23B62FB681B685B6903F47D
:102150008063B3F5806F0CBF01230023DBB2FB610A
:10216000FB6893F83D30DBB2BB612AE03B68002B93
:1021700007D0FEF779FF02467B6AD21A3B689A4283
:1021800003D9FB68A02283F83D20FB681B685B69CC
:1021900003F00203022B0CBF01230023DBB23B62DE
:1021A000FB681B685B6903F48063B3F5806F0CBF49
:1021B00001230023DBB2FB61FB6893F83D30DBB207
:1021C000BB613B6A002B05D1FB69002B02D1BB69C7
:1021D000A02BCBD1FB68202283F83D20FB681B6835
:1021E0005B6903F00203022B29D1FB681B68FA68C4
:1021F0001268126842F400721A6000233B61FB68A7
:102200001B685B693B61FB681B689B693B613B69C1
:102210007B6A0093192301222149F86800F03AFAF9
:102220000346002B01D0032335E0FB68202283F80E
:102230003D20FB68002283F83C2000232BE0FB6854
:102240001B68FA681268126842F400721A60FB6830
:102250001B686FF480625A617B6A00931923012224
:102260000F49F86800F016FA0346002B01D003234B
:1022700011E07B695A1C7A617A689342FFF439AFA6
:10228000FB68202283F83D20FB68002283F83C2075
:10229000012300E0022318462837BD4680BD00BF59
:1022A000020010000000FFFF80B588B002AFF860A8
:1022B0007A603B600B467B81FB68DB6A7B617B69F4
:1022C000042B06D07B69012B03D07B6913F5803F7B
:1022D00008D1FB681B68FA681268126842F48072C1
:1022E0001A600BE0FB681B6B122B07D1FB681B68A5
:1022F000FA681268126842F480721A603B680093B0
:102300007B6800224FF00111F86800F0C3F9034622
:10231000002B01D0032340E0FB681B69B3F5804F1D
:1023200007D1FB681B687A89D2B202F0FE021A61FB
:1023300021E0FB681B687A89D211D2B202F0060252
:10234000D2B262F00F02D2B21A613B687A681549C4
:10235000F86800F0F0F90346002B07D0FB681B6C0F
:10236000042B01D1012318E0032316E0FB681B684E
:102370007A89D2B21A613B687A680B49F86800F032
:10238000DAF90346002B07D0FB681B6C042B01D144
:10239000012302E0032300E0002318461837BD465E
:1023A00080BD00BF080001000200010080B588B0B8
:1023B00002AFF860084611461A4603467B810B4679
:1023C0003B811346FB80FB681B68FA681268126841
:1023D00042F480721A607B6A00933B6A00224FF0DD
:1023E0000111F86800F056F90346002B01D00323D1
:1023F00068E0FB681B687A89D2B202F0FE021A61BB
:102400007B6A3A6A3149F86800F095F90346002B77
:1024100007D0FB681B6C042B01D1012352E003237E
:1024200050E000237B61FB681B685B697B61FB6894
:102430001B689B697B617B697A6A396AF86800F07E
:10244000E8F90346002B0FD0FB681B6C042B09D165
:10245000FB681B68FA681268126842F400721A601E
:1024600001232FE003232DE0FB88012B05D1FB681E
:102470001B683A89D2B21A6123E0FB681B683A896B
:10248000120A92B2D2B21A617A6A396AF86800F016
:10249000C0F90346002B0FD0FB681B6C042B09D13D
:1024A000FB681B68FA681268126842F400721A60CE
:1024B000012307E0032305E0FB681B683A89D2B2D9
:1024C0001A61002318461837BD4680BD020001007E
:1024D00080B588B002AFF860084611461A46034638
:1024E0007B810B463B811346FB80FB681B68FA68C7
:1024F0001268126842F480621A60FB681B68FA680E
:102500001268126842F480721A607B6A00933B6A18
:1025100000224FF00111F86800F0BCF80346002BD0
:1025200001D00323AFE0FB681B687A89D2B202F0C6
:10253000FE021A617B6A3A6A5549F86800F0FBF8B6
:102540000346002B07D0FB681B6C042B01D1012331
:1025500099E0032397E000237B61FB681B685B69BC
:102560007B61FB681B689B697B617B697A6A396A5E
:10257000F86800F04EF90346002B0FD0FB681B6C87
:10258000042B09D1FB681B68FA681268126842F4D0
:1025900000721A60012376E0032374E0FB88012BAC
:1025A00005D1FB681B683A89D2B21A6123E0FB6847
:1025B0001B683A89120A92B2D2B21A617A6A396AEF
:1025C000F86800F026F90346002B0FD0FB681B6C5F
:1025D000042B09D1FB681B68FA681268126842F480
:1025E00000721A6001234EE003234CE0FB681B6875
:1025F0003A89D2B21A617A6A396AF86800F009F940
:102600000346002B0FD0FB681B6C042B09D1FB6821
:102610001B68FA681268126842F400721A6001239B
:1026200031E003232FE0FB681B68FA681268126828
:1026300042F480721A607B6A00933B6A00224FF07A
:102640000111F86800F026F80346002B01D003239F
:1026500019E0FB681B687A89D2B242F00102D2B25B
:102660001A617B6A3A6A0A49F86800F064F803461E
:10267000002B07D0FB681B6C042B01D1012302E067
:10268000032300E0002318461837BD4680BD00BF75
:102690000200010080B584B000AFF860B9603B6013
:1026A0001346FB711FE03B68B3F1FF3F1BD03B6853
:1026B000002B07D0FEF7D8FC0246BB69D21A3B6854
:1026C0009A4210D9FB6800221A63FB68202283F823
:1026D0003D20FB68002283F83E20FB68002283F83F
:1026E0003C20032323E0BB681B0CDBB2012B0DD184
:1026F000FB681B685B69DA43BB6813409BB2002B25
:102700000CBF01230023DBB21A460CE0FB681B68F8
:102710009B69DA43BB6813409BB2002B0CBF0123BB
:102720000023DBB21A46FB799A42BCD0002318463C
:102730001037BD4680BD80B584B000AFF860B96089
:102740007A603B6040E0FB681B685B6903F4806370
:10275000B3F5806F1CD1FB681B68FA6812681268B9
:1027600042F400721A60FB681B686FF480625A6161
:10277000FB6804221A64FB6800221A63FB682022AB
:1027800083F83D20FB68002283F83C2001233CE0D5
:102790007B68B3F1FF3F17D07B68002B07D0FEF7B3
:1027A00063FC02463B68D21A7B689A420CD9FB68EC
:1027B00000221A63FB68202283F83D20FB68002278
:1027C00083F83C20032320E0BB681B0CDBB2012B09
:1027D0000CD1FB681B685B69DA43BB6813409BB292
:1027E000002B14BF01230023DBB20BE0FB681B6846
:1027F0009B69DA43BB6813409BB2002B14BF0123D3
:102800000023DBB2002B9ED1002318461037BD46B3
:1028100080BD80B584B000AFF860B9607A6029E00F
:10282000F86800F0BAF80346002B01D0012329E034
:10283000BB68B3F1FF3F1DD0BB68002B07D0FEF78C
:1028400013FC02467B68D21ABB689A4212D9FB6815
:102850001B6C43F02002FB681A64FB6800221A63B9
:10286000FB68202283F83D20FB68002283F83C208F
:10287000032307E0FB681B685B6903F08003802B80
:10288000CED1002318461037BD4680BD80B584B038
:1028900000AFF860B9607A6029E0F86800F07DF870
:1028A0000346002B01D0012329E0BB68B3F1FF3FB1
:1028B0001DD0BB68002B07D0FEF7D6FB02467B6815
:1028C000D21ABB689A4212D9FB681B6C43F02002F3
:1028D000FB681A64FB6800221A63FB68202283F8F5
:1028E0003D20FB68002283F83C20032307E0FB68BF
:1028F0001B685B6903F00403042BCED10023184648
:102900001037BD4680BD80B584B000AFF860B960B7
:102910007A6036E0FB681B685B6903F01003102BDC
:1029200014D1FB681B686FF010025A61FB6800222B
:102930001A64FB6800221A63FB68202283F83D209A
:10294000FB68002283F83C20012322E0BB68002BB7
:1029500007D0FEF789FB02467B68D21ABB689A4211
:102960000FD9FB681B6C43F02002FB681A64FB68FC
:10297000202283F83D20FB68002283F83C200323BB
:1029800007E0FB681B685B6903F04003402BC1D183
:10299000002318461037BD4680BD80B483B000AF19
:1029A00078607B681B685B6903F48063B3F5806FB4
:1029B00014D17B681B686FF480625A617B680422C3
:1029C0001A647B6800221A637B68202283F83D200A
:1029D0007B68002283F83C20012300E00023184696
:1029E0000C37BD4680BC704780B586B000AF7860BC
:1029F00000233B617B681B6803F00103002B00F0A0
:102A00008780924B5B6803F00C03042B0CD08F4B38
:102A10005B6803F00C03082B12D18C4B5B6803F44A
:102A20008033B3F5803F0BD1884B1B6803F4003330
:102A3000002B6CD07B685B68002B68D101232DE2F2
:102A40007B685B68B3F5803F06D1804A7F4B1B688B
:102A500043F4803313602EE07B685B68002B0CD15D
:102A60007A4A7A4B1B6823F480331360774A774B9A
:102A70001B6823F4802313601DE07B685B68B3F55B
:102A8000A02F0CD1714A714B1B6843F48023136053
:102A90006E4A6E4B1B6843F4803313600BE06B4A45
:102AA0006A4B1B6823F480331360684A674B1B68CA
:102AB00023F4802313607B685B68002B13D0FEF740
:102AC000D3FA386108E0FEF7CFFA02463B69D31A21
:102AD000642B01D90323E1E15C4B1B6803F4003351
:102AE000002BF0D014E0FEF7BFFA386108E0FEF7E3
:102AF000BBFA02463B69D31A642B01D90323CDE10B
:102B0000524B1B6803F40033002BF0D100E000BFF0
:102B10007B681B6803F00203002B63D04B4B5B68A0
:102B200003F00C03002B0BD0484B5B6803F00C0345
:102B3000082B1CD1454B5B6803F48033002B16D166
:102B4000424B1B6803F00203002B05D07B681B6916
:102B5000012B01D00123A1E13C493C4B1B6823F030
:102B6000F8027B685B69DB0013430B603AE07B682B
:102B70001B69002B20D0364B01221A60FEF774FA35
:102B8000386108E0FEF770FA02463B69D31A022B5F
:102B900001D9032382E12D4B1B6803F00203002BB4
:102BA000F0D02A49294B1B6823F0F8027B685B6947
:102BB000DB0013430B6015E0254B00221A60FEF783
:102BC00053FA386108E0FEF74FFA02463B69D31A20
:102BD000022B01D9032361E11C4B1B6803F00203A4
:102BE000002BF0D17B681B6803F00803002B39D061
:102BF0007B689B69002B19D0164B01221A60FEF7E7
:102C000033FA386108E0FEF72FFA02463B69D31A1F
:102C1000022B01D9032341E10C4B5B6A03F0020351
:102C2000002BF0D0012000F0CFFA1BE0094B00226E
:102C30001A60FEF719FA38610EE0FEF715FA02463F
:102C40003B69D31A022B07D9032327E10010024066
:102C50000000424280044242924B5B6A03F002034E
:102C6000002BEAD17B681B6803F00403002B00F003
:102C7000A6800023FB758B4BDB6903F08053002B90
:102C80000DD1884A874BDB6943F08053D361854B74
:102C9000DB6903F08053FB60FB680123FB75824B0B
:102CA0001B6803F48073002B18D17F4A7E4B1B688E
:102CB00043F480731360FEF7D7F9386108E0FEF73C
:102CC000D3F902463B69D31A642B01D90323E5E00B
:102CD000754B1B6803F48073002BF0D07B68DB68B6
:102CE000012B06D16F4A6F4B1B6A43F0010313623D
:102CF0002DE07B68DB68002B0CD16A4A694B1B6AAC
:102D000023F001031362674A664B1B6A23F0040336
:102D100013621CE07B68DB68052B0CD1614A614BB8
:102D20001B6A43F0040313625E4A5E4B1B6A43F066
:102D3000010313620BE05B4A5A4B1B6A23F0010349
:102D40001362584A574B1B6A23F0040313627B68D3
:102D5000DB68002B15D0FEF787F938610AE0FEF733
:102D600083F902463B69D31A41F28832934201D972
:102D7000032393E04B4B1B6A03F00203002BEED0BE
:102D800014E0FEF771F938610AE0FEF76DF90246CA
:102D90003B69D31A41F28832934201D903237DE083
:102DA000404B1B6A03F00203002BEED1FB7D012B8D
:102DB00005D13C4A3B4BDB6923F08053D3617B68F0
:102DC000DB69002B69D0374B5B6803F00C03082BE1
:102DD00061D07B68DB69022B46D1344B00221A603C
:102DE000FEF742F9386108E0FEF73EF902463B691A
:102DF000D31A022B01D9032350E02A4B1B6803F09E
:102E00000073002BF0D17B681B6AB3F5803F08D1BB
:102E10002449244B5B6823F400327B689B6813438E
:102E20004B6020481F4B5B6823F474127B68196A5F
:102E30007B685B6A0B43134343601C4B01221A609F
:102E4000FEF712F9386108E0FEF70EF902463B6919
:102E5000D31A022B01D9032320E0124B1B6803F085
:102E60000073002BF0D018E0104B00221A60FEF720
:102E7000FBF8386108E0FEF7F7F802463B69D31A21
:102E8000022B01D9032309E0064B1B6803F00073F2
:102E9000002BF0D101E0012300E000231846183791
:102EA000BD4680BD001002400070004060004242FC
:102EB00080B584B000AF786039600023FB607E4B42
:102EC0001B6803F007023B689A4210D27A497A4B9A
:102ED0001B6823F007023B6813430B60764B1B68AB
:102EE00003F007023B689A4201D00123E0E07B68CF
:102EF0001B6803F00203002B20D07B681B6803F0E3
:102F00000403002B05D06D4A6C4B5B6843F4E0630F
:102F100053607B681B6803F00803002B05D0674AE9
:102F2000664B5B6843F4605353606449634B5B6872
:102F300023F0F0027B689B6813434B607B681B683F
:102F400003F00103002B6AD07B685B68012B07D17B
:102F50005A4B1B6803F40033002B15D10123A7E063
:102F60007B685B68022B07D1544B1B6803F000732E
:102F7000002B09D101239BE0504B1B6803F0020397
:102F8000002B01D1012393E04C494C4B5B6823F0AB
:102F900003027B685B6813434B60FEF765F8F860DB
:102FA0007B685B68012B12D10AE0FEF75DF80246F0
:102FB000FB68D31A41F28832934201D9032377E0A8
:102FC0003E4B5B6803F00C03042BEED127E07B68DB
:102FD0005B68022B1DD10AE0FEF746F80246FB684B
:102FE000D31A41F28832934201D9032360E0334B74
:102FF0005B6803F00C03082BEED110E0FEF734F809
:103000000246FB68D31A41F28832934201D9032366
:103010004EE02A4B5B6803F00C03002BEED1264BED
:103020001B6803F007023B689A4210D92249224BE1
:103030001B6823F007023B6813430B601E4B1B68A1
:1030400003F007023B689A4201D0012330E07B681D
:103050001B6803F00403002B08D01849174B5B686A
:1030600023F4E0627B68DB6813434B607B681B687A
:1030700003F00803002B09D01049104B5B6823F4C0
:1030800060527B681B69DB0013434B6000F01CF847
:1030900001460A4B5B681B0903F00F03084AD35C27
:1030A00021FA03F3074A13600020FDF79BFF00237A
:1030B00018461037BD4680BD002002400010024077
:1030C0000C8000081400002090B48AB000AF2A4B96
:1030D0003C1D0FCB84E80F00284B1B883B8000234E
:1030E000FB610023BB6100237B6200237B61002323
:1030F0003B62234B5B68FB61FB6903F00C03042B11
:1031000002D0082B03D02DE01E4B3B622DE0FB6963
:103110009B0C03F00F0307F12802134413F8243C1F
:103120007B61FB6903F48033002B13D0144B5B6885
:103130005B0C03F0010307F12802134413F8283C49
:10314000BB617B690F4A02FB03F2BB69B2FBF3F37D
:103150007B6204E07B690C4A02FB03F37B627B6ABF
:103160003B6202E0074B3B6200BF3B6A18462837D0
:10317000BD4690BC704700BFF8750008087600088F
:103180000010024000127A0000093D0080B400AF38
:10319000024B1B681846BD4680BC704714000020D7
:1031A00080B500AFFFF7F2FF0146054B5B681B0AD5
:1031B00003F00703034AD35C21FA03F3184680BDEA
:1031C000001002401C80000880B485B000AF786019
:1031D0000A4B1B680A4AA2FB03235B0A7A6802FBBC
:1031E00003F3FB6000BFFB685A1EFA60002BF9D1A5
:1031F00000BF1437BD4680BC704700BF14000020DC
:10320000D34D621080B582B000AF78607B68002B30
:1032100001D101231DE07B6893F83D30DBB2002B28
:1032200006D17B68002283F83C20786802F022FEF9
:103230007B68022283F83D207B681A687B68043330
:103240001946104600F056FB7B68012283F83D20AA
:10325000002318460837BD4680BD80B483B000AF58
:1032600078607B681B687A681268D26842F0010255
:10327000DA607B681B687A681268126842F00102A3
:103280001A60002318460C37BD4680BC704780B5D5
:1032900082B000AF78607B68002B01D101231DE074
:1032A0007B6893F83D30DBB2002B06D17B680022AF
:1032B00083F83C20786800F015F87B68022283F8D8
:1032C0003D207B681A687B6804331946104600F07D
:1032D00011FB7B68012283F83D2000231846083744
:1032E000BD4680BD80B483B000AF786000BF0C37AE
:1032F000BD4680BC7047000080B582B000AF7860EA
:1033000039607B681B6801223968184600F09DFD12
:103310007B681B680B4A934207D17B681B687A68FD
:103320001268526C42F400425A647B681B687A68E7
:103330001268126842F001021A600023184608372A
:10334000BD4680BD002C014080B582B000AF7860E2
:103350007B681B681B6903F00203022B22D17B6888
:103360001B68DB6803F00203022B1BD17B681B6820
:103370006FF002021A617B6801221A777B681B6872
:103380009B6903F00303002B03D0786800F097FAE1
:1033900005E0786800F08AFA786800F099FA7B68AE
:1033A00000221A777B681B681B6903F00403042B57
:1033B00022D17B681B68DB6803F00403042B1BD15C
:1033C0007B681B686FF004021A617B6802221A771F
:1033D0007B681B689B6903F44073002B03D07868FB
:1033E00000F06DFA05E0786800F060FA786800F0A7
:1033F0006FFA7B6800221A777B681B681B6903F0F1
:103400000803082B22D17B681B68DB6803F00803E4
:10341000082B1BD17B681B686FF008021A617B6860
:1034200004221A777B681B68DB6903F00303002B17
:1034300003D0786800F043FA05E0786800F036FAC7
:10344000786800F045FA7B6800221A777B681B6871
:103450001B6903F01003102B22D17B681B68DB680B
:1034600003F01003102B1BD17B681B686FF0100258
:103470001A617B6808221A777B681B68DB6903F492
:103480004073002B03D0786800F019FA05E07868E3
:1034900000F00CFA786800F01BFA7B6800221A77BB
:1034A0007B681B681B6903F00103012B0ED17B684D
:1034B0001B68DB6803F00103012B07D17B681B68E5
:1034C0006FF001021A61786800F0E7F97B681B6809
:1034D0001B6903F08003802B0ED17B681B68DB68BF
:1034E00003F08003802B07D17B681B686FF080029C
:1034F0001A61786800F018FD7B681B681B6903F08F
:103500004003402B0ED17B681B68DB6803F040034F
:10351000402B07D17B681B686FF040021A61786806
:1035200000F0DFF97B681B681B6903F02003202B88
:103530000ED17B681B68DB6803F02003202B07D1CA
:103540007B681B686FF020021A61786800F0E3FC6A
:1035500000BF0837BD4680BD80B584B000AFF860BD
:10356000B9607A60FB6893F83C30012B01D10223EB
:10357000B4E0FB68012283F83C20FB68022283F858
:103580003D207B680C2B00F29F8001A252F823F0B3
:10359000C5350008C9360008C9360008C936000814
:1035A00005360008C9360008C9360008C9360008C3
:1035B00047360008C9360008C9360008C936000871
:1035C00087360008FB681B68B968184600F0F8F9F0
:1035D000FB681B68FA681268926942F008029A61F7
:1035E000FB681B68FA681268926922F004029A610B
:1035F000FB681B68FA6812689169BA6812690A4325
:103600009A6162E0FB681B68B968184600F044FAEA
:10361000FB681B68FA681268926942F400629A615A
:10362000FB681B68FA681268926922F480629A61EA
:10363000FB681B68FA6812689169BA68126912021D
:103640000A439A6141E0FB681B68B968184600F0BC
:1036500093FAFB681B68FA681268D26942F00802A4
:10366000DA61FB681B68FA681268D26922F004020A
:10367000DA61FB681B68FA681268D169BA68126976
:103680000A43DA6121E0FB681B68B968184600F05C
:10369000E3FAFB681B68FA681268D26942F40062B8
:1036A000DA61FB681B68FA681268D26922F48062EA
:1036B000DA61FB681B68FA681268D169BA68126936
:1036C00012020A43DA6100E000BFFB68012283F8BE
:1036D0003D20FB68002283F83C2000231846103769
:1036E000BD4680BD80B584B000AF786039600023EE
:1036F000FB607B6893F83C30012B01D10223C8E0CA
:103700007B68012283F83C207B68022283F83D20FD
:103710007B681B689B68FB60FB6823F07703FB609A
:10372000FB6823F47F43FB607B681B68FA689A6040
:103730003B681B68402B77D0402B0ED8102B00F035
:103740008A80102B02D8002B7ED099E0202B00F02D
:103750008980302B00F08D8092E0702B16D0702B7A
:1037600004D8502B40D0602B4ED089E0B3F5805F59
:1037700003D0B3F5005F24D082E07B681B687A68D1
:103780001268926822F007029A6079E07B681868F4
:103790003B6899683B685A683B68DB6800F034FB1B
:1037A0007B681B689B68FB60FB6823F07703FB600A
:1037B000FB6843F07703FB607B681B68FA689A60DC
:1037C0005EE07B6818683B6899683B685A683B68AC
:1037D000DB6800F019FB7B681B687A6812689268E6
:1037E00042F480429A604BE07B6818683B685968F5
:1037F0003B68DB681A4600F083FA7B681B6850213F
:10380000184600F0E2FA3BE07B6818683B685968AC
:103810003B68DB681A4600F0A5FA7B681B686021EC
:10382000184600F0D2FA2BE07B6818683B685968AC
:103830003B68DB681A4600F063FA7B681B6840212E
:10384000184600F0C2FA1BE07B681B68002118468E
:1038500000F0BBFA14E07B681B681021184600F0EA
:10386000B4FA0DE07B681B682021184600F0ADFA21
:1038700006E07B681B683021184600F0A6FA00BFFE
:103880007B68012283F83D207B68002283F83C207E
:10389000002318461037BD4680BD80B483B000AF0A
:1038A000786000BF0C37BD4680BC704780B483B0E1
:1038B00000AF786000BF0C37BD4680BC704780B455
:1038C00083B000AF786000BF0C37BD4680BC704746
:1038D00080B483B000AF786000BF0C37BD4680BCB9
:1038E000704780B483B000AF786000BF0C37BD462E
:1038F00080BC704780B485B000AF78603960002329
:10390000FB607B681B68FB607B682A4A93420BD094
:103910007B68B3F1804F07D07B68274A934203D07E
:103920007B68264A934208D1FB6823F07003FB6052
:103930003B685B68FA681343FB607B681D4A9342EF
:103940000BD07B68B3F1804F07D07B681A4A934253
:1039500003D07B68194A934208D1FB6823F4407373
:10396000FB603B68DB68FA681343FB60FB6823F08D
:103970008003FB603B685B69FA681343FB607B680C
:10398000FA681A603B689A687B68DA623B681A6872
:103990007B689A627B68074A934203D13B681A6945
:1039A0007B681A637B6801225A6100BF1437BD46E9
:1039B00080BC7047002C014000040040000800401B
:1039C00080B487B000AF786039600023FB600023CB
:1039D0007B6100233B617B681B6A23F001027B68EB
:1039E0001A627B681B6A7B617B685B683B617B68F2
:1039F0009B69FB60FB6823F07003FB60FB6823F0AE
:103A00000303FB603B681B68FA681343FB607B6938
:103A100023F002037B613B689B687A6913437B61F7
:103A20007B681C4A93420CD17B6923F008037B61BD
:103A30003B68DB687A6913437B617B6923F004038D
:103A40007B617B68134A934211D13B6923F48073F5
:103A50003B613B6923F400733B613B685B693A69F6
:103A600013433B613B689B693A6913433B617B6845
:103A70003A695A607B68FA689A613B685A687B6861
:103A80005A637B687A691A6200BF1C37BD4680BCE6
:103A9000704700BF002C014080B487B000AF786051
:103AA00039600023FB6000237B6100233B617B685E
:103AB0001B6A23F010027B681A627B681B6A7B61B9
:103AC0007B685B683B617B689B69FB60FB6823F4F8
:103AD000E043FB60FB6823F44073FB603B681B68BA
:103AE0001B02FA681343FB607B6923F020037B61B0
:103AF0003B689B681B017A6913437B617B681D4AA5
:103B000093420DD17B6923F080037B613B68DB68C6
:103B10001B017A6913437B617B6923F040037B615E
:103B20007B68144A934213D13B6923F480633B6161
:103B30003B6923F400633B613B685B699B003A6926
:103B400013433B613B689B699B003A6913433B61AC
:103B50007B683A695A607B68FA689A613B685A6880
:103B60007B689A637B687A691A6200BF1C37BD461E
:103B700080BC7047002C014080B487B000AF7860F3
:103B800039600023FB6000237B6100233B617B687D
:103B90001B6A23F480727B681A627B681B6A7B61F4
:103BA0007B685B683B617B68DB69FB60FB6823F0DB
:103BB0007003FB60FB6823F00303FB603B681B683A
:103BC000FA681343FB607B6923F400737B613B68F5
:103BD0009B681B027A6913437B617B681D4A934291
:103BE0000DD17B6923F400637B613B68DB681B02BA
:103BF0007A6913437B617B6923F480637B617B6813
:103C0000144A934213D13B6923F480533B613B69CF
:103C100023F400533B613B685B691B013A69134322
:103C20003B613B689B691B013A6913433B617B68BD
:103C30003A695A607B68FA68DA613B685A687B685F
:103C4000DA637B687A691A6200BF1C37BD4680BCA4
:103C5000704700BF002C014080B487B000AF78608F
:103C6000396000233B610023FB6000237B617B689C
:103C70001B6A23F480527B681A627B681B6AFB60B4
:103C80007B685B687B617B68DB693B613B6923F434
:103C9000E0433B613B6923F440733B613B681B6835
:103CA0001B023A6913433B61FB6823F40053FB603A
:103CB0003B689B681B03FA681343FB607B680F4AF1
:103CC000934209D17B6923F480437B613B685B6944
:103CD0009B017A6913437B617B687A695A607B68D0
:103CE0003A69DA613B685A687B681A647B68FA68EB
:103CF0001A6200BF1C37BD4680BC7047002C0140D3
:103D000080B487B000AFF860B9607A6000237B614F
:103D100000233B61FB681B6A3B61FB681B6A23F065
:103D20000102FB681A62FB689B697B617B6923F077
:103D3000F0037B617B681B017A6913437B613B69FC
:103D400023F00A033B613A69BB6813433B61FB689C
:103D50007A699A61FB683A691A6200BF1C37BD46EE
:103D600080BC704780B487B000AFF860B9607A60FB
:103D700000237B6100233B61FB681B6A23F0100278
:103D8000FB681A62FB689B697B61FB681B6A3B618D
:103D90007B6923F470437B617B681B037A6913435F
:103DA0007B613B6923F0A0033B61BB681B013A695F
:103DB00013433B61FB687A699A61FB683A691A624E
:103DC00000BF1C37BD4680BC704780B485B000AFD3
:103DD00078600B467B800023FB607B689B68FB6000
:103DE000FB6823F07003FB607B8843F007039BB202
:103DF0001A46FB681343FB607B68FA689A6000BF51
:103E00001437BD4680BC704780B487B000AFF860FF
:103E1000B9607A603B6000237B61FB689B687B61D3
:103E20007B6923F47F437B613B681A027B681A43FA
:103E3000BB6813437A6913437B61FB687A699A60B4
:103E400000BF1C37BD4680BC704780B487B000AF50
:103E5000F860B9607A6000237B610122BB6802FAD6
:103E600003F37B61FB681A6A7B69DB431A40FB68DA
:103E70001A62FB681A6A7968BB6801FA03F31A438D
:103E8000FB681A6200BF1C37BD4680BC704780B417
:103E900083B000AF786039607B6893F83C30012BC9
:103EA00001D1022332E07B68012283F83C207B6849
:103EB000022283F83D207B681B687A68126852688A
:103EC00022F070025A607B681B687A681268516839
:103ED0003A6812680A435A607B681B687A681268FD
:103EE000926822F080029A607B681B687A68126888
:103EF00091683A6852680A439A607B68012283F8A5
:103F00003D207B68002283F83C20002318460C37B4
:103F1000BD4680BC704780B483B000AF786000BFFE
:103F20000C37BD4680BC704780B483B000AF78606A
:103F300000BF0C37BD4680BC7047000080B586B01E
:103F400004AF00233B7180233B714FF48033029315
:103F5000012301933B1D009301236B22D0212348B1
:103F6000FDF726FD03461A46214B1A703220FDF755
:103F700085F800233B714FF48033029301230193B2
:103F80003B1D009301236B22D0211848FDF710FD43
:103F900003461A46164B1A7008233B714FF48033C0
:103FA0000293012301933B1D009301231B22D02187
:103FB0000E48FDF7FDFC03461A460D4B1A70002310
:103FC0003B714FF480330293012301933B1D009317
:103FD00001231C22D0210548FDF7EAFC03461A46BE
:103FE000034B1A7000BF0837BD4680BD0C0500208A
:103FF0001A06002080B588B004AF786007F1080386
:1040000000221A609A804FF48033029306230193B2
:1040100007F10803009301233B22D0211748FDF745
:10402000D1FD03461A46164B1A700023FB731DE0A0
:10403000FB7B5B007A681344FA7B520007F11001A6
:104040000A4412F8082C92B2120291B2FA7B520082
:10405000013207F11000024412F8082C92B20A440F
:1040600092B212B21A80FB7B0133FB73FB7B022BF3
:10407000DED900BF1037BD4680BD00BF0C05002053
:104080001A06002080B588B004AF786007F10803F5
:1040900000221A609A804FF4803302930623019322
:1040A00007F10803009301234322D0211748FDF7AD
:1040B00089FD03461A46164B1A700023FB731DE058
:1040C000FB7B5B007A681344FA7B520007F1100116
:1040D0000A4412F8082C92B2120291B2FA7B5200F2
:1040E000013207F11000024412F8082C92B20A447F
:1040F00092B212B21A80FB7B0133FB73FB7B022B63
:10410000DED900BF1037BD4680BD00BF0C050020C2
:104110001A060020000000002DE9B04382B000AF75
:104120003B4600221A609A80934B00221A70924BF1
:1041300093F90020914B1A70904B93F90020904B0B
:104140001A703B461846FFF755FFB7F9023018467C
:10415000FCF750F904460D46B7F900301846FCF755
:1041600049F94FF000024FF0804301F05BFF8046B9
:104170008946B7F904301846FCF73CF94FF00002C5
:104180004FF0804301F04EFF02460B464046494641
:10419000FBF7E4FF02460B461046194602F0A6F86C
:1041A00002460B462046294601F03AFF6CA3D3E9AC
:1041B0000023FCF785F903460C4618462146FCF718
:1041C0002FFC03461AB26F4B1A80B7F9003018461D
:1041D000FCF710F904460D46B7F902301846FCF713
:1041E00009F94FF000024FF0804301F01BFF8046B9
:1041F0008946B7F904301846FCF7FCF84FF0000286
:104200004FF0804301F00EFF02460B464046494600
:10421000FBF7A4FF02460B461046194602F066F86B
:1042200002460B462046294601F0FAFE4CA3D3E98C
:104230000023FCF745F903460C4618462146FCF7D7
:10424000EFFB03461AB2504B1A80504BB3F90030C3
:104250009AB24D4BB3F900309BB213449BB21AB2E1
:104260004B4B1A804B4BB3F900309AB2454BB3F924
:1042700000309BB213449BB21AB2474B1A80434B97
:10428000B3F900301846FCF7B5F837A3D3E900239B
:10429000FCF716F903460C4625461C463A4BB3F983
:1042A00000301846FCF7A6F831A3D3E90023FCF749
:1042B00007F902460B4620462946FBF74FFF034607
:1042C0000C4618462146FCF7ABFB03465AB22C4B72
:1042D0001A70304BB3F900301846FCF78BF822A364
:1042E000D3E90023FCF7ECF803460C4625461C46B0
:1042F000244BB3F900301846FCF77CF81CA3D3E933
:104300000023FCF7DDF802460B4620462946FBF762
:1043100025FF03460C4618462146FCF781FB034661
:104320005AB2164B1A701D4BB3F900301846FCF701
:1043300061F80DA3D3E90023FCF7C2F803460C464D
:1043400018462146FCF76CFB03465AB20A4B1A701A
:1043500000BF0837BD46BDE8B08300BFAFF30080A3
:1043600000000020DCA54C409A9999999999E93F61
:104370009A9999999999C93FEA050020BC050020AE
:10438000E3050020E8050020E6050020EC050020FC
:10439000E4050020C0050020B4050020D805002059
:1043A000B0B582B000AF3B4600221A609A80664BDF
:1043B00000221A80644BB3F90020644B1A80634BCF
:1043C000B3F90020624B1A803B461846FFF75AFEAD
:1043D000B7F900205E4B1A80B7F902205B4B1A80B8
:1043E000B7F90420584B1A80594BB3F900309AB2F0
:1043F000584B1B689BB2D31A9BB21AB2564B1A8009
:10440000524BB3F900309AB2544B1B689BB2D31A8B
:104410009BB21AB2524B1A804B4BB3F900309AB28E
:10442000504B1B689BB2D31A9BB21AB24E4B1A80E8
:104430004E4BB3F900301846FBF7DCFF04460D463F
:10444000454BB3F900301846FBF7D4FF3CA3D3E942
:104450000023FCF75FF902460B46104619464FF061
:104460000002434BFCF756F902460B46204629460C
:10447000FBF774FE03460C4618462146FCF7D0FABB
:1044800003461AB2394B1A803A4BB3F9003018463A
:10449000FBF7B0FF04460D46314BB3F90030184628
:1044A000FBF7A8FF26A3D3E90023FCF733F9024664
:1044B0000B46104619464FF000022D4BFCF72AF927
:1044C00002460B4620462946FBF748FE03460C46AB
:1044D00018462146FCF7A4FA03461AB2254B1A8067
:1044E000254BB3F900301846FBF784FF04460D4610
:1044F0001D4BB3F900301846FBF77CFF10A3D3E93E
:104500000023FCF707F902460B46104619464FF008
:104510000002174BFCF7FEF802460B4620462946E0
:10452000FBF71CFE03460C4618462146FCF778FABA
:1045300003461AB2104B1A8000BF0837BD46B0BD03
:10454000000000000060504018060020DA0500203E
:10455000B6050020C8050020D4050020CC050020A9
:10456000F0050020C4050020EE050020EC05002029
:1045700000002440C0050020D805002080B582B08E
:1045800000AF42F210737B8000237B601FE0FFF7D7
:1045900007FF134BB3F900301A46124B1B68134444
:1045A000104A1360104BB3F900301A460F4B1B68CA
:1045B00013440E4A13600E4BB3F900301A460D4BEC
:1045C0001B6813440B4A13607B6801337B607A8855
:1045D0007B689A42DBDC00BF0837BD4680BD00BF68
:1045E000B6050020C8050020DA050020CC05002013
:1045F00018060020C405002080B483B000AF42F24A
:104600001073FB800C4B1A68FB8892FBF3F30A4A89
:1046100013600A4B1A68FB8892FBF3F3074A136096
:10462000074B1A68FB8892FBF3F3054A136000BF3F
:104630000C37BD4680BC7047C8050020CC05002063
:10464000C405002090B583B000AF03463960FB710C
:104650001346BB71364B374A1A60374B374A1A60DC
:10466000374B384A1A60324B1B6837491846FCF7FB
:104670002DFB03461846FCF779FC03465AB2334B30
:104680001A742D4B1B6830491846FCF71FFB034674
:104690001846FCF76BFC03465AB22C4B5A74284B55
:1046A0001B6829491846FCF711FB03461846FCF71E
:1046B0005DFC03465AB2254B9A7497F907301846A9
:1046C000FCF7B0FA02461A4B1B6819461046FCF775
:1046D000FDFA03461C463868FCF7A4FA0246164B5E
:1046E0001B6819461046FCF7F1FA034619462046A6
:1046F000FCF7E4F903461C4697F906301846FCF728
:1047000091FA02460E4B1B6819461046FCF7DEFA7A
:10471000034619462046FCF7D1F903461846FCF734
:1047200025FC03461BB218460C37BD4690BD00BFA2
:10473000B0040020CDCC4C3FAC040020CDCCCC3D0F
:10474000B4040020CDCC4C3E0000204100060020E7
:1047500080B483B000AF0346FB71084997F9073076
:104760005B09FA7902F01F02012000FA02F241F817
:10477000232000BF0C37BD4680BC704700E100E03D
:1047800080B483B000AF03463960FB7197F90730FE
:10479000002B0BDA0D49FB7903F00F03043B3A6859
:1047A000D2B21201D2B20B441A7609E0084997F945
:1047B00007303A68D2B21201D2B20B4483F8002318
:1047C00000BF0C37BD4680BC704700BF00ED00E065
:1047D00000E100E080B500AF1C4A1C4B9B6943F42C
:1047E000804393611A4A1A4B5B6843F0B0035360ED
:1047F000174A174B5B6823F04F035360154B40F289
:1048000071229A60134A134BDB6843F40053D36060
:10481000104A104BDB6843F00803D3600D4A0D4B80
:10482000DB6843F08003D3600A4A0A4BDB6843F03D
:104830004003D36000212520FFF7A2FF2520FFF7CA
:1048400087FF054B01221A7000BF80BD0010024097
:104850000008014000380140B804002080B483B053
:1048600000AF0346FB71044AFB79536000BF0C376D
:10487000BD4680BC704700BF0038014080B500AF26
:104880001B4B1B6803F08003002B1DD0184BDB680B
:1048900003F08003002B17D0164B1B78152B02D981
:1048A000144B00221A70134B1B785A1CD1B2114AB8
:1048B00011701A46104B9B56DAB2104B1A700F4B00
:1048C0001B781846FFF7CAFF094B1B6803F040032B
:1048D000002B0BD0064BDB6803F04003002B05D008
:1048E000034A034B1B6823F04003136000BF80BDE5
:1048F00000380140B804002000060020E205002036
:1049000080B483B000AF0023FB8000233B71002301
:10491000FB7001237B710AE07B79114AD3569AB26E
:10492000FB8813449BB2FB807B7901337B717B79DD
:10493000122BF1D9FB88FB70B7F906301B121BB2A2
:104940003B71074A3B79D374054AFB781375044BD6
:104950000B225A7500BF0C37BD4680BC704700BFA4
:104960000006002090B585B000AFBC4B1C68BC4B66
:10497000B3F900301846FCF755F9034619462046AE
:10498000FCF79AF803464FF082411846FCF79EF96F
:1049900003461846FCF7EAFA0346FB81B14B1C6854
:1049A000B14BB3F900301846FCF73CF90346194601
:1049B0002046FCF781F803464FF082411846FCF789
:1049C00085F903461846FCF7D1FA0346BB81A74B8D
:1049D0001C68A74BB3F900301846FCF723F90346CF
:1049E00019462046FCF768F803464FF08241184606
:1049F000FCF76CF903461846FCF7B8FA03467B81CE
:104A0000B7F90E3013F17D0F07DBB7F90E307D2BB0
:104A1000A8BF7D231BB25BB201E06FF07C037B7209
:104A200097F90930934AB2F900209B1A13F17D0FD0
:104A30000ADB97F909308F4AB2F900209B1A7D2BC7
:104A4000A8BF7D235BB201E06FF07C033B72B7F936
:104A50000C3013F17D0F07DBB7F90C307D2BA8BFAD
:104A60007D231BB25BB201E06FF07C03FB7197F911
:104A70000730814AB2F900209B1A13F17D0F0ADB3F
:104A800097F907307C4AB2F900209B1A7D2BA8BF0A
:104A90007D235BB201E06FF07C03BB71B7F90A3094
:104AA00013F17D0F07DBB7F90A307D2BA8BF7D23FB
:104AB0001BB25BB201E06FF07C037B7197F90530AC
:104AC0006E4AB2F900209B1A13F17D0F0ADB97F9A9
:104AD00005306A4AB2F900209B1A7D2BA8BF7D23BE
:104AE0005BB201E06FF07C033B7197F909301AB2B9
:104AF000604B1A8097F907301AB25F4B1A8097F90A
:104B000005301AB25D4B1A8097F909305A2202FB20
:104B100003F35B4A82FB0312D210DB17D31A9AB25B
:104B2000584BB3F900309BB213449BB21AB2554BA9
:104B30001A8097F907305A2202FB03F3504A82FB8E
:104B40000312D210DB17D31A9AB24F4BB3F90030CD
:104B50009BB213449BB21AB24B4B1A8097F90530A3
:104B60005A2202FB03F3464A82FB0312D210DB17E0
:104B7000D31A9AB2454BB3F900309BB213449BB29F
:104B80001AB2424B1A803F4BB3F90030404A82FBC5
:104B900003129210DB17D31A1AB23A4B1A803A4B0F
:104BA000B3F900303A4A82FB03129210DB17D31A92
:104BB0001AB2354B1A80354BB3F90030344A82FBB8
:104BC00003129210DB17D31A1AB2304B1A802D4BF6
:104BD000B3F90030194697F9082097F909301846BB
:104BE000FFF730FD03461A462A4B1A80264BB3F9CD
:104BF0000030194697F9062097F907301846FFF755
:104C000021FD03461A46244B1A80204BB3F900308D
:104C1000194697F9042097F905301846FFF712FD59
:104C200003461A461D4B1A801A4BB3F9003013F194
:104C30007D0F35DB174BB3F900307D2BA8BF7D23EB
:104C40001BB21A465A2303FB02F30D4A82FB0312DE
:104C5000D210DB17D31A1BB224E000BFF8040020E7
:104C6000E305002004050020BC050020C00400204E
:104C7000EA050020FE04002000050020BC040020FE
:104C8000D34D6210F6040020FC040020F404002040
:104C900067666666D0050020DE0500201606002047
:104CA0006FF05903454A1380454BB3F9003013F1B7
:104CB0007D0F12DB424BB3F900307D2BA8BF7D2363
:104CC0001BB21A465A2303FB02F33E4A82FB03122D
:104CD000D210DB17D31A1BB201E06FF05903384A28
:104CE0001380394BB3F9003013F17D0F12DB364BD3
:104CF000B3F900307D2BA8BF7D231BB21A465A237F
:104D000003FB02F32F4A82FB0312D210DB17D31AE4
:104D10001BB201E06FF059032B4A13802B4B0A2280
:104D20001A702B4BB3F900305AB2284B5A70274AED
:104D30007B7A9370254A3B7AD370264BB3F90030C7
:104D40005AB2224B1A711D4BB3F900305AB21F4BA5
:104D50005A71214BB3F900305AB21C4B9A711B4A5D
:104D6000FB79D371194ABB7913721C4BB3F900302C
:104D70005AB2164B5A72124BB3F900305AB2134B57
:104D80009A72174BB3F900305AB2104BDA720F4ACD
:104D90007B7913730D4A3B795373124BB3F900308F
:104DA0005AB20A4B9A73084BB3F900305AB2074B08
:104DB000DA7300BF1437BD4690BD00BFD005002098
:104DC000DE050020D34D62101606002000060020EC
:104DD000E3050020F6040020BC050020FC040020B0
:104DE000EA050020F404002090B482B000AF04462D
:104DF000084611461A462346FB710346BB710B4613
:104E00007B7113463B71134B1B781946124AFB7991
:104E100002F821300F4B1B780F4A9B001344BA79DC
:104E20005A700C4B1B780C4A9B0013447A799A7089
:104E3000084B1B78084A9B0013443A79DA70054BFB
:104E40001B780133DAB2034B1A7000BF0837BD4636
:104E500090BC704708050020C404002080B500AF56
:104E60002A4B00221A700023002200210020FFF7A5
:104E7000BBFF7D236FF07C0201216FF07C00FFF708
:104E8000B3FF6FF07C037D2201217D20FFF7ACFF93
:104E90007D236FF0130200216FF05900FFF7A4FF8C
:104EA0006FF07C03142200215A20FFF79DFF14238A
:104EB0006FF0130200216FF01300FFF795FF6FF002
:104EC0001303142200211420FFF78EFF142337222E
:104ED00000216FF03600FFF787FF5A236FF036028C
:104EE00000216FF03600FFF77FFF6FF013036FF0C4
:104EF000360200213720FFF777FF6FF05903372282
:104F000000213720FFF770FF00BF80BD080500209B
:104F100080B485B000AF144A134B9B6943F0200363
:104F20009361114B9B6903F02003FB60FB680E4A01
:104F30000D4B9B6943F0040393610B4B9B6903F09A
:104F40000403BB60BB68084A074B9B6943F0080336
:104F50009361054B9B6903F008037B607B6800BF8E
:104F60001437BD4680BC70470010024080B500AFCA
:104F7000124B134A1A60114B124A5A600F4B00220F
:104F80009A600E4B0022DA600C4B4FF480421A619B
:104F90000A4B00225A61094B00229A61074B0022FA
:104FA000DA61064B00221A620448FCF7EFFA034666
:104FB000002B01D000F0E6F900BF80BD0C050020F9
:104FC00000540040801A060080B500AF124B134A0F
:104FD0001A60114B124A5A600F4B00229A600E4B16
:104FE0000022DA600C4B4FF480421A610A4B002217
:104FF0005A61094B00229A61074B0022DA61064B85
:1050000000221A620448FCF7C1FA0346002B01D0C3
:1050100000F0B8F900BF80BD6005002000580040D6
:10502000A086010080B58AB000AF786007F1180350
:1050300000221A605A609A60DA607B681B682B4A0B
:10504000934224D12A4A2A4B9B6943F00803936177
:10505000274B9B6903F008037B617B69C023BB611D
:105060001223FB6103237B6207F1180319462148D1
:10507000FCF72EF91E4A1E4BDB6943F40013D36183
:105080001B4BDB6903F400133B613B6929E07B6840
:105090001B68194A934224D1154A154B9B6943F06A
:1050A00008039361124B9B6903F00803FB60FB68E4
:1050B0004FF44063BB611223FB6103237B6207F162
:1050C000180319460B48FCF703F9094A084BDB693A
:1050D00043F48003D361064BDB6903F48003BB60B8
:1050E000BB6800BF2837BD4680BD00BF00540040EC
:1050F00000100240000C01400058004080B500AF95
:10510000FBF75AFF00F0A2F8FFF702FF00F08AFD5C
:1051100000F014FEFFF72AFF00F05EFEFFF754FFD9
:10512000FEF70CFFFFF72AFAFFF766FAFEF7F4FF27
:1051300000F02EF900213748FEF7DEF8042135484B
:10514000FEF7DAF808213348FEF7D6F83248FEF7C2
:1051500084F83248FEF781F8314B00221A80304B38
:10516000B3F900202F4B1A802E4BB3F900202E4BA1
:105170001A80FFF773FEFFF72DFB2C4B1B78002BDB
:10518000FBD02A4B00221A70FFF70AF9FEF7C4FF82
:10519000FFF7E8FBFFF7B4FB254B93F90030DAB2D9
:1051A000244B1A70234B1B781846FFF757FB224BF2
:1051B00093F900301BB2184600F08EF8142100203D
:1051C00000F03AFA01221D491D4800F0BDFA1D4BBE
:1051D00093F900301BB2184600F07EF814215020DD
:1051E00000F02AFA01221549154800F0ADFA164BD5
:1051F00093F900301BB2184600F06EF81E212D20E6
:1052000000F01AFA01220D490D4800F09DFA00F055
:105210007DF9B2E79C0600205C0600201C060020F9
:10522000D8050020C0050020EC050020B8050020AE
:1052300000060020E2050020E30500200800002011
:10524000F4050020BC050020EA05002080B590B0E0
:1052500000AF07F1180328220021184600F0D8FEFD
:105260003B1D00221A605A609A60DA601A610123BD
:10527000BB614FF48033FB6100233B620123BB62BF
:1052800002237B634FF48033BB634FF4E013FB6373
:1052900007F118031846FDF7A7FB0346002B01D0C2
:1052A00000F070F80F237B600223BB600023FB60DB
:1052B0004FF480633B6100237B613B1D0221184654
:1052C000FDF7F6FD0346002B01D000F05BF800BFB0
:1052D0004037BD4680BD000080B485B000AF0346B6
:1052E000FB80FB88FB8100237B73B7F90E30002B1A
:1052F00005DAFB895B429BB2FB8101237B730623AA
:105300003B731CE0387BB7F90E201C4B83FB021368
:105310009910D317C91A0B469B000B445B00D31A94
:105320001BB2DBB23033DAB2154B1A54B7F90E3078
:10533000124A82FB03129210DB17D31AFB813B7BCC
:105340005A1E3A73002BDDD17B7B002B11D000233A
:10535000FB72FB7A052B0AD8FB7A0133084AD35C2F
:10536000002B03D0FB7A064A2D21D15400BF002325
:105370007B7300BF1437BD4680BC704767666666A6
:10538000F405002080B400AF00BFBD4680BC70476C
:1053900080B582B000AF00F0FDF944F62063012231
:1053A00078215848FCF750FE0346002B01D000231B
:1053B000A4E040F6C4137B6002E07B68013B7B60A5
:1053C0007B68002BF9D1AE220021782000F0F6F99D
:1053D00020220021782000F0F1F91022002178200D
:1053E00000F0ECF9B0220021782000F0E7F9C822A3
:1053F0000021782000F0E2F900220021782000F05E
:10540000DDF910220021782000F0D8F94022002197
:10541000782000F0D3F981220021782000F0CEF925
:10542000FF220021782000F0C9F9A1220021782074
:1054300000F0C4F9A6220021782000F0BFF9A822CC
:105440000021782000F0BAF93F220021782000F0F6
:10545000B5F9A4220021782000F0B0F9D322002170
:10546000782000F0ABF900220021782000F0A6F9A6
:10547000D5220021782000F0A1F9F0220021782027
:1054800000F09CF9D9220021782000F097F922221F
:105490000021782000F092F9DA220021782000F033
:1054A0008DF912220021782000F088F9DB220021FA
:1054B000782000F083F920220021782000F07EF986
:1054C0008D220021782000F079F914220021782023
:1054D00000F074F9AF220021782000F06FF900206D
:1054E00000F02CF800F012F8074B00221A80064B4F
:1054F00000225A80044B01225A71012318460837B2
:10550000BD4680BD60050020A004002080B582B0AB
:1055100002AF084B40221A704FF47A73009340F2A6
:105520000143044A78210448FCF734F900BFBD4622
:1055300080BD00BF9C0000206005002080B582B0C7
:1055400000AF0346FB71084B1868FB79002B01D1B3
:10555000002300E0FF234FF48062194600F058FD5D
:1055600000BF0837BD4680BD1000002090B482B057
:1055700000AF0346FB800B46BB801346FB70FB88E5
:105580007F2B50D8BB883F2B4DD8294B1B79002B44
:1055900006D0FB78002B0CBF01230023DBB2FB708D
:1055A000FB78012B1ED1234B1B68F988BA88D208DF
:1055B00094B22246D2010A4413441E4A1268F88863
:1055C0002146C90101440A44127851B2BA8802F056
:1055D0000702012000FA02F252B20A4352B2D2B2DA
:1055E0001A7021E0134B1B68F988BA88D20894B26C
:1055F0002246D2010A4413440E4A1268F888214612
:10560000C90101440A44127851B2BA8802F0070273
:10561000012000FA02F252B2D24352B20A4052B210
:10562000D2B21A7000E000BF0837BD4690BC704788
:10563000A00400201000002080B483B000AF034617
:105640000A46FB801346BB80054AFB881380044A48
:10565000BB88538000BF0C37BD4680BC704700BF7D
:10566000A004002080B586B000AF03463960FB710E
:105670001346BB7100233B6100237B614EE0002396
:10568000FB6042E03B685A68FB793968897801FB26
:1056900003F319463B69DB080B4413441B781A4695
:1056A0003B6903F0070342FA03F303F00103002B05
:1056B00010D0244B1A88FB689BB2134498B2214B3C
:1056C0005A887B699BB213449BB2BA791946FFF79B
:1056D0004DFF14E01B4B1A88FB689BB2134498B231
:1056E000184B5A887B699BB2134499B2BB79002B43
:1056F0000CBF01230023DBB21A46FFF737FF3B69DB
:1057000001333B61FB680133FB603B681B781A4641
:10571000FB689A42B6D87B6901337B613B685B7852
:105720001A467B699A42AAD8064B1A883B681B78AE
:105730009BB213449AB2034B1A80FB791846183770
:10574000BD4680BDA004002080B584B000AFF860E5
:10575000B9601346FB7112E0FB681B78FA79B968EF
:105760001846FFF77FFF03461A46FB681B789A42EC
:1057700002D0FB681B7808E0FB680133FB60FB6824
:105780001B78002BE8D1FB681B7818461037BD4604
:1057900080BD000080B483B000AF074B7B6002E0A7
:1057A0007B68013B7B607B68002BF9D100BF0C3725
:1057B000BD4680BC704700BF90D0030080B586B066
:1057C00002AF0346FB710B46BB7113467B71BB797D
:1057D0003B737B797B73FB7999B207F10C020A2347
:1057E000009302230348FBF7D5FF00BF1037BD46E7
:1057F00080BD00BF6005002080B485B000AF154AB1
:10580000144B9B6943F001039361124B9B6903F0B6
:105810000103BB60BB680F4A0E4BDB6943F080534A
:10582000D3610C4BDB6903F080537B607B680A4BD0
:105830005B68FB60FB6823F0E063FB60FB6843F0A0
:105840000073FB60044AFB68536000BF1437BD4619
:1058500080BC7047001002400000014080B400AFDF
:1058600000BFBD4680BC704780B400AFFEE780B487
:1058700000AFFEE780B400AFFEE780B400AFFEE704
:1058800080B400AF00BFBD4680BC704780B400AF9D
:1058900000BFBD4680BC704780B400AF00BFBD46AE
:1058A00080BC704780B500AFFBF7CCFB00BF80BD6C
:1058B000B0B500AFAF4B00221A80AF4BB3F9003048
:1058C000002B0FD0AC4BB3F900309BB21A469203B9
:1058D000D21A9200D31A9BB203F2DC539AB2A54BB0
:1058E0001A8003E0A34B40F2DC521A80A14B1A88C5
:1058F000A24B1A80A14B1A88A14B1A80A04B1A8880
:10590000A04B1A80A04BB3F90030002B3FD09E4B28
:10591000B3F900305B429D4A82FB03125210DB1741
:10592000D31A9BB21A46920013449B009AB2934B2F
:105930001B8813449AB2914B1A80934BB3F90030F1
:105940005B42924A82FB03129210DB17D31A9BB27E
:105950001A46920013449AB28A4B1B8813449AB297
:10596000884B1A80884BB3F90030884A82FB0312B7
:105970009210DB17D31A1BB29BB21A469200134443
:105980009AB27F4B1B8813449AB27D4B1A80804B8E
:10599000B3F90030002B56D07A4B1B881846FAF723
:1059A00029FD04460D467A4BB3F900305B42184698
:1059B000FAF720FD4FF00002764BFAF781FD024620
:1059C0000B46104619464FF00002734BFAF778FD6C
:1059D00002460B4620462946FAF7C0FB03460C4612
:1059E00018462146FBF744F803469AB2654B1A80E5
:1059F000624B1B881846FAF7FDFC04460D46644BC3
:105A0000B3F900301846FAF7F5FC4FF00002614B8D
:105A1000FAF756FD02460B46104619464FF00002B3
:105A20005D4BFAF74DFD02460B4620462946FAF734
:105A300095FB03460C4618462146FBF719F803462A
:105A40009AB24E4B1A804F4B1B88B3F5FA6F03D9AD
:105A50004C4B4FF4FA621A80494B1B88B3F5FA6F2E
:105A600003D9474B4FF4FA621A80444B1B88B3F5B5
:105A7000FA6F03D9414B4FF4FA621A80414B1B88ED
:105A80001A464FF080435B6B9A4207D24FF0804238
:105A90004FF080435B6B013B53631CE0394B1B8829
:105AA0001A464FF080435B6B9A4207D94FF0804211
:105AB0004FF080435B6B013353630CE0314B1B8829
:105AC0001A464FF080435B6B9A4204D14FF08043FB
:105AD0002C4A12885A632A4B1B881A464FF080437F
