:020000040800F2
:100000000050002019330008192F00081B2F00088A
:100010001D2F00081F2F0008212F000800000000DE
:10002000000000000000000000000000232F000876
:10003000252F000800000000272F0008292F0008A6
:100040006133000861330008613300086133000840
:100050006133000861330008613300086133000830
:100060006133000861330008613300086133000820
:100070006133000861330008613300086133000810
:100080006133000861330008613300086133000800
:1000900061330008613300086133000861330008F0
:1000A00061330008613300086133000861330008E0
:1000B000613300082D2F00084D300008613300081F
:1000C00061330008613300086133000861330008C0
:1000D00061330008613300086133000861330008B0
:1000E000613300086133000861330008000000003C
:1000F0000000000000000000000000000000000000
:0C01000000000000000000005FF808F1A3
:1001100010B5054C237833B9044B13B10448AFF341
:1001200000800123237010BD7C000020000000002F
:10013000B43A000808B5034B1BB103490348AFF3B9
:10014000008008BD0000000080000020B43A0008D4
:1001500081F0004102E000BF83F0004330B54FEA78
:1001600041044FEA430594EA050F08BF90EA020FE5
:100170001FBF54EA000C55EA020C7FEA645C7FEA78
:10018000655C00F0E2804FEA5454D4EB5555B8BF9B
:100190006D420CDD2C4480EA020281EA030382EA0C
:1001A000000083EA010180EA020281EA0303362D9E
:1001B00088BF30BD11F0004F4FEA01314FF4801C71
:1001C0004CEA113102D0404261EB410113F0004F83
:1001D0004FEA03334CEA133302D0524263EB43033A
:1001E00094EA050F00F0A780A4F10104D5F1200ED8
:1001F0000DDB02FA0EFC22FA05F2801841F1000133
:1002000003FA0EF2801843FA05F359410EE0A5F106
:1002100020050EF1200E012A03FA0EFC28BF4CF037
:10022000020C43FA05F3C01851EBE37101F00045ED
:1002300007D54FF0000EDCF1000C7EEB00006EEBFA
:100240000101B1F5801F1BD3B1F5001F0CD3490884
:100250005FEA30004FEA3C0C04F101044FEA4452DB
:1002600012F5800F80F09A80BCF1004F08BF5FEA62
:10027000500C50F1000041EB045141EA050130BD42
:100280005FEA4C0C404141EB010111F4801FA4F1E5
:100290000104E9D191F0000F04BF01460020B1FA3A
:1002A00081F308BF2033A3F10B03B3F120020CDA72
:1002B0000C3208DD02F1140CC2F10C0201FA0CF050
:1002C00021FA02F10CE002F11402D8BFC2F1200CB5
:1002D00001FA02F120FA0CFCDCBF41EA0C0190406B
:1002E000E41AA2BF01EB0451294330BD6FEA0404B4
:1002F0001F3C1CDA0C340EDC04F11404C4F120029F
:1003000020FA04F001FA02F340EA030021FA04F3B0
:1003100045EA030130BDC4F10C04C4F1200220FA07
:1003200002F001FA04F340EA0300294630BD21FA45
:1003300004F0294630BD94F0000F83F4801306BF0B
:1003400081F480110134013D4EE77FEA645C18BFFF
:100350007FEA655C29D094EA050F08BF90EA020F96
:1003600005D054EA000C04BF1946104630BD91EA8E
:10037000030F1EBF0021002030BD5FEA545C05D191
:100380004000494128BF41F0004130BD14F58004D0
:100390003CBF01F5801130BD01F0004545F0FE4144
:1003A00041F470014FF0000030BD7FEA645C1ABF79
:1003B000194610467FEA655C1CBF0B46024650EAB0
:1003C000013406BF52EA033591EA030F41F40021DC
:1003D00030BD00BF90F0000F04BF0021704730B562
:1003E0004FF4806404F132044FF000054FF0000137
:1003F00050E700BF90F0000F04BF0021704730B5F8
:100400004FF4806404F1320410F0004548BF4042CC
:100410004FF000013EE700BF42004FEAE2014FEA21
:1004200031014FEA02701FBF12F07F4393F07F4FFC
:1004300081F06051704792F0000F14BF93F07F4F2E
:10044000704730B54FF4607401F0004521F0004171
:1004500020E700BF50EA010208BF704730B54FF0F7
:1004600000050AE050EA010208BF704730B511F0FC
:10047000004502D5404261EB41014FF4806404F134
:1004800032045FEA915C3FF4DCAE4FF003025FEAB6
:10049000DC0C18BF03325FEADC0C18BF033202EB3E
:1004A000DC02C2F1200300FA03FC20FA02F001FA98
:1004B00003FE40EA0E0021FA02F11444C1E600BF37
:1004C00070B54FF0FF0C4CF4E06C1CEA11541DBFEA
:1004D0001CEA135594EA0C0F95EA0C0F00F0DEF8B5
:1004E0002C4481EA030621EA4C5123EA4C5350EA9A
:1004F000013518BF52EA033541F4801143F48013EB
:1005000038D0A0FB02CE4FF00005E1FB02E506F07B
:100510000042E0FB03E54FF00006E1FB03569CF0D0
:10052000000F18BF4EF0010EA4F1FF04B6F5007FD6
:1005300064F5407404D25FEA4E0E6D4146EB060648
:1005400042EAC62141EA55514FEAC52040EA5E50D1
:100550004FEACE2EB4F1FD0C88BFBCF5E06F1ED87B
:10056000BEF1004F08BF5FEA500E50F1000041EBB2
:10057000045170BD06F0004646EA010140EA02005F
:1005800081EA0301B4EB5C04C2BFD4EB0C0541EA81
:10059000045170BD41F480114FF0000E013C00F396
:1005A000AB8014F1360FDEBF002001F0004170BDBA
:1005B000C4F10004203C35DA0C341BDC04F11404D3
:1005C000C4F1200500FA05F320FA04F001FA05F25F
:1005D00040EA020001F0004221F0004110EBD3702C
:1005E00021FA04F642EB06015EEA430E08BF20EA58
:1005F000D37070BDC4F10C04C4F1200500FA04F3FB
:1006000020FA05F001FA04F240EA020001F000418C
:1006100010EBD37041F100015EEA430E08BF20EAFF
:10062000D37070BDC4F1200500FA05F24EEA020E47
:1006300020FA04F301FA05F243EA020321FA04F076
:1006400001F0004121FA04F220EA020000EBD3702D
:100650005EEA430E08BF20EAD37070BD94F0000F2D
:100660000FD101F00046400041EB010111F4801F61
:1006700008BF013CF7D041EA060195F0000F18BF12
:10068000704703F00046520043EB030313F4801F4E
:1006900008BF013DF7D043EA0603704794EA0C0F08
:1006A0000CEA135518BF95EA0C0F0CD050EA41061E
:1006B00018BF52EA4306D1D181EA030101F000419B
:1006C0004FF0000070BD50EA410606BF10461946C3
:1006D00052EA430619D094EA0C0F02D150EA0136CF
:1006E00013D195EA0C0F05D152EA03361CBF104610
:1006F00019460AD181EA030101F0004141F0FE41AF
:1007000041F470014FF0000070BD41F0FE4141F432
:10071000780170BD70B54FF0FF0C4CF4E06C1CEA32
:1007200011541DBF1CEA135594EA0C0F95EA0C0FE7
:1007300000F0A7F8A4EB050481EA030E52EA0335A2
:100740004FEA013100F088804FEA03334FF08055C3
:1007500045EA131343EA12634FEA022245EA1115F0
:1007600045EA10654FEA00260EF000419D4208BFA1
:10077000964244F1FD0404F5407402D25B084FEA4E
:100780003202B61A65EB03055B084FEA32024FF4FA
:1007900080104FF4002CB6EB020E75EB030E22BF57
:1007A000B61A754640EA0C005B084FEA3202B6EB17
:1007B000020E75EB030E22BFB61A754640EA5C00C6
:1007C0005B084FEA3202B6EB020E75EB030E22BF56
:1007D000B61A754640EA9C005B084FEA3202B6EB57
:1007E000020E75EB030E22BFB61A754640EADC0016
:1007F00055EA060E18D04FEA051545EA16754FEA78
:1008000006164FEAC30343EA52734FEAC2025FEA95
:100810001C1CC0D111F4801F0BD141EA00014FF024
:1008200000004FF0004CB6E711F4801F04BF0143F5
:100830000020B4F1FD0C88BFBCF5E06F3FF6AFAE11
:10084000B5EB030C04BFB6EB020C5FEA500C50F1A1
:10085000000041EB045170BD0EF0004E4EEA113124
:1008600014EB5C04C2BFD4EB0C0541EA045170BD2B
:1008700041F480114FF0000E013C90E645EA060E6F
:100880008DE60CEA135594EA0C0F08BF95EA0C0F9D
:100890003FF43BAF94EA0C0F0AD150EA01347FF4E5
:1008A00034AF95EA0C0F7FF425AF104619462CE7BC
:1008B00095EA0C0F06D152EA03353FF4FDAE10461F
:1008C000194622E750EA410618BF52EA43067FF470
:1008D000C5AE50EA41047FF40DAF52EA43057FF400
:1008E000EBAE12E74FF0FF3C06E000BF4FF0010C0B
:1008F00002E000BF4FF0010C4DF804CD4FEA410C6F
:100900007FEA6C5C4FEA430C18BF7FEA6C5C1BD03B
:1009100001B050EA410C0CBF52EA430C91EA030FBC
:1009200002BF90EA020F0020704710F1000F91EA19
:10093000030F58BF994208BF90422CBFD8176FEAE7
:10094000E37040F0010070474FEA410C7FEA6C5CB5
:1009500002D150EA013C07D14FEA430C7FEA6C5CBC
:10096000D6D152EA033CD3D05DF8040B704700BFE8
:100970008446104662468C461946634600E000BF36
:1009800001B5FFF7B7FF002848BF10F1000F01BD08
:100990004DF808EDFFF7F4FF0CBF012000205DF8D3
:1009A00008FB00BF4DF808EDFFF7EAFF34BF012058
:1009B00000205DF808FB00BF4DF808EDFFF7E0FFF1
:1009C00094BF012000205DF808FB00BF4DF808ED42
:1009D000FFF7CEFF94BF012000205DF808FB00BFA9
:1009E0004DF808EDFFF7C4FF34BF012000205DF88B
:1009F00008FB00BF4FEA410C7FEA6C5C02D150EA71
:100A0000013C0AD14FEA430C7FEA6C5C02D152EA06
:100A1000033C02D14FF0000070474FF001007047D7
:100A20004FEA410212F5001215D211D56FF4787316
:100A3000B3EB625212D94FEAC12343F0004343EAB9
:100A4000505311F0004F23FA02F018BF4042704794
:100A50004FF00000704750EA013005D111F000401E
:100A600008BF6FF0004070474FF00000704700BFB4
:100A700038B50E4B054618784FF47A73B3FBF0F394
:100A80000B4A1068B0FBF3F000F09EF8044658B92A
:100A90000F2D09D8024629464FF0FF3000F054F8D8
:100AA000044B20461D6038BD012038BD00000020E9
:100AB0001000002004000020074A08B51368032036
:100AC00043F01003136000F02DF80020FFF7D0FF73
:100AD00002F000FA002008BD00200240034A044B47
:100AE00011681B780B441360704700BFA0040020FE
:100AF00000000020014B1868704700BFA0040020D0
:100B000038B50446FFF7F6FF0546631C1EBF044BCD
:100B10001B78E418FFF7EEFF401B8442FAD838BD7B
:100B200000000020074A0002D36800F4E06023F4CC
:100B3000E0631B041B0C43F0BF6343F40033034327
:100B4000D360704700ED00E0174B30B5DC68C4F3AC
:100B50000224C4F10703251D042B28BF0423062DFE
:100B60004FF0010598BF002405FA03F303F1FF33AA
:100B700088BF033C1940A14005FA04F4013C22401F
:100B8000002842EA01024FEA0212AFBF00F16040C2
:100B9000064B00F00F00D2B2A5BFD2B200F5614003
:100BA0001A5480F8002330BD00ED00E014ED00E0A1
:100BB0000123420900F01F0003FA00F0014B43F843
:100BC0002200704700E100E00138B0F1807F0AD2D6
:100BD000F021064B064A586082F8231000200722B5
:100BE00098601A6070470120704700BF10E000E075
:100BF00000ED00E02DE9F74F00221646654BDFF8C7
:100C0000A4E1DFF8A4C14FF001080C6808FA06F867
:100C100008EA0404A0457FD14D68122D00F0AF8092
:100C200000F28880022D00F0A7807CD8002D00F013
:100C30008E80012D00F09E804FF00F09FF2C93BF96
:100C4000824606F18045083DD0F800B092BFB5005D
:100C5000D0F804B0AD0009FA05F82BEA080802FA4A
:100C600005F588BF00F1040A48EA0505CAF80050F6
:100C7000D1F804A01AF0805F4ED0474D464FAD69C1
:100C800026F0030845F00105BD61BD6908F1804803
:100C900005F00105019508F5803806F0030B019D6C
:100CA0004FEA8B0BD8F8085009FA0BF925EA090925
:100CB0003A4DA84268D005F58065A84266D005F592
:100CC0008065A84264D005F58065A8420CBF032565
:100CD000042505FA0BF545EA0905C8F808501D6812
:100CE0001AF4803F14BF2543A5431D605D681AF4C4
:100CF000003F14BF2543A5435D609D681AF4801F23
:100D000014BF2543A5439D60DD681AF4001F14BF7E
:100D10002C4325EA0404DC600136102E7FF473AF07
:100D200003B0BDE8F08F032D22D0112D84D1CA6805
:100D3000043281E71A4FBD4209D012D8DFF86C9017
:100D40004D4504D009F580394D457FF475AF8A686B
:100D5000C2B1012A0CBFC0F81080C0F8148008226C
:100D60006AE77545F3D06545F1D0DFF84490EBE7CD
:100D7000002261E7CA685FE7CA6808325CE7CA68B0
:100D80000C3259E7042257E70025A2E70125A0E726
:100D900002259EE7000401400010024000080140C7
:100DA000000021100000311000003210000011106E
:100DB000000022100268536913F480630DD06FF4B1
:100DC000806353610423202203640023036380F8BB
:100DD0003C3080F83D2001207047184670472DE9CF
:100DE000F843044617469946C1F307488EB2256872
:100DF000B8F1010F0CBF6B69AB6936EA030314BF8E
:100E00000120002008B9BDE8F8836B695A0512D5A6
:100E10002B68202243F400732B606FF480636B61B6
:100E20000423236400230120236384F83C3084F8E6
:100E30003D20BDE8F8837B1CD9D04FB90023202288
:100E4000236384F83C3084F83D200320BDE8F88318
:100E5000FFF750FEA0EB09008742C8D2EEE72DE96C
:100E6000F843044690461F46089EC1F307498DB2D9
:100E70002368B9F1010F0CBF5B699B6935EA030375
:100E80000CBF01230023434502D00020BDE8F883B6
:100E90007B1CEDD05FB900232022236384F83C3013
:100EA00084F83D20032084F83E30BDE8F883FFF746
:100EB00021FE801B8742DBD2EDE770B504460D466C
:100EC000164623685B691B0601D5002070BD2046CD
:100ED000FFF770FFA8B96A1CF3D065B9236C202214
:100EE00043F02003236400230320236384F83C3071
:100EF00084F83D2070BDFFF7FDFD801B8542E0D2E8
:100F0000ECE7012070BD00002DE9FF4115460268A5
:100F1000984613680B9E43F4807313600F46009647
:100F20000A9B00224FF001110446FFF798FF68B9B1
:100F3000236807F0FE071F610A9A33461A492046C4
:100F4000FFF74DFF30B1236C042B18D0032004B001
:100F5000BDE8F081236803905A690A9903929B695E
:100F6000324603932046039BFFF7A7FF48B1236C4B
:100F7000042BEBD12268136843F400731360012043
:100F8000E5E7B8F1010F236802D1EDB21D61DEE79C
:100F90002A0A1A610A9932462046FFF78EFF002876
:100FA000E5D12368F1E700BF020001002DE9FF4110
:100FB0009846036816461A680B9D42F480621A60D0
:100FC0001A680F4642F480721A604FF001110095C2
:100FD0000A9B00220446FFF742FF80B92368FFB254
:100FE00007F0FE021A612D492B460A9A2046FFF7A8
:100FF000F6FE40B1236C042B01D1012000E0032058
:1010000004B0BDE8F081236803905A690A990392FD
:101010009B692A4603932046039BFFF74EFF40B18E
:10102000236C042BEBD12268136843F40073136024
:10103000E3E7B8F1010F236824D1F6B21E612A4616
:101040000A992046FFF739FF02460028E8D12168B7
:1010500020460B6843F480730B6000950A9B4FF0A9
:101060000111FFF7FCFE0028C9D1236847F00107F2
:101070001F610A9A2B4609492046FFF7B0FE002857
:10108000B8D1BDE7320A1A610A992A462046FFF70D
:1010900014FF0028C4D12368CFE700BF020001007D
:1010A00070B504460D4616462068436913F04003A8
:1010B00001D0002070BD4269D2060BD56FF010023E
:1010C00042612022236484F83C302363012084F8A9
:1010D0003D2070BD5DB9236C032043F020032364E1
:1010E000202384F83D30002384F83C3070BDFFF7A6
:1010F00001FD801B8542D7D2EDE770B504460D4651
:10110000164623685B695B0701D5002070BD204649
:10111000FFF750FEA8B96A1CF3D065B9236C2022F2
:1011200043F02003236400230320236384F83C302E
:1011300084F83D2070BDFFF7DDFC801B8542E0D2C6
:10114000ECE7012070BD000038B5044608B9012065
:1011500038BD90F83D3003F0FF021BB980F83C2009
:1011600001F03EFC2423226884F83D30136823F00C
:101170000103136000F01EFE63682F4A934230D8CB
:101180002E4A9042E3D92E4A2168B0FBF2F24A601F
:1011900001320A62284A0138934232D85B00B0FB20
:1011A000F3F0431CC3F30B03042B38BF0423CB61C0
:1011B000226AE369002013430B60E268236913434A
:1011C0008B60A26963691343CB600B6843F0010332
:1011D0000B602023206484F83D30206384F83E00B7
:1011E00038BD184A9042B2D9154D4FF49672B0FBF3
:1011F000F5F521686A434D604FF47A75B2FBF5F25C
:10120000C6E7A26852B903EB4303B0FBF3F0431CFB
:10121000C3F30B036BB143F40043C8E719225343F4
:10122000B0FBF3F0431CC3F30B0313B143F440438F
:10123000BDE70123BBE700BFA08601007F841E003D
:1012400040420F00FF083D002DE9FF4104461F46C4
:101250000D469046FFF74EFC94F83D300646202B95
:1012600004D00225284604B0BDE8F081009019237F
:1012700001225D492046FFF7F2FD0028F1D194F8E4
:101280003C30012BEDD0012384F83C3023681A68F0
:10129000D2075EBF1A6842F001021A601A6822F48F
:1012A00000621A60212284F83D20102284F83E203A
:1012B00000222264A2F580326785E262628DC4F862
:1012C00024802285E26A042A04D0012A02D012F581
:1012D000803F04D11A6842F480721A6002E0226BE7
:1012E000122AF7D000960A9B00224FF001112046E7
:1012F000FFF7B5FD28BB23692268B3F5804F12D1F3
:1013000005F0FE05156133460A9A38492046FFF775
:1013100066FD0546A0B9236803905A6903929B694C
:101320000393039B50E0EB1103F0060343F0F0033B
:1013300013612F4933460A9A2046FFF750FD48B102
:10134000236C236C042B4FF0000307D184F83C304E
:10135000012587E72368EDB21D61D4E784F83C30AE
:1013600003257FE732460A992046FFF7A6FD40B1E4
:10137000236C042BF4D12268136843F400731360C8
:10138000E6E7616A20684B1C63620B78228D03617B
:10139000638D013B9BB263854769531E9BB27F07F8
:1013A00023850AD54BB18B1C63624B78023A0361EB
:1013B000638D2285013B9BB2638532460A992046A4
:1013C000FFF79BFE0028D3D1238D002BCAD12168C3
:1013D0000A6842F400720A60202284F83C3084F8E3
:1013E0003D2084F83E303DE702001000020001007D
:1013F000080001002DE9F34704469A4688469146C5
:101400000C9EFFF777FB94F83D300546202B03D068
:10141000022002B0BDE8F0870090192301223E4966
:101420002046FFF71CFD0028F2D194F83C30012B38
:10143000EED0012384F83C30236800271A68414627
:10144000D20758BF1A6820465CBF42F001021A60FA
:101450001A6822F400621A60212384F83D30402388
:1014600084F83E300A9B27646362BDF82C300195F6
:1014700063852A4B0096E362638D4A462385534673
:10148000FFF742FD00282AD0236C84F83C70042B1F
:1014900007D10120BDE7FFF710FD20B1236C042B1D
:1014A00034D00320B5E7616A27684B1C63620B7870
:1014B000228D3B61638D501E013B9BB263857B692E
:1014C00080B25B0720850AD548B18B1C63624B78DC
:1014D000023A3B61638D2285013B9BB26385238D7C
:1014E0002A4631462046002BD5D1FFF706FE0028BC
:1014F000D4D12268136843F400731360202384F866
:101500003C0084F83D3084F83E0082E7226813688E
:1015100043F400731360BCE7020010000000FFFFFB
:101520002DE9F047044686B09A460D469146109F35
:10153000FFF7E0FA94F83D300646202B04D0022550
:10154000284606B0BDE8F0870090192301228149A2
:101550002046FFF784FC0028F1D194F83C30012BA1
:10156000EDD0012384F83C3023684FF000081A685E
:101570002946D20758BF1A6820465CBF42F00102D4
:101580001A601A6822F400621A60222384F83D303F
:10159000402384F83E300E9BC4F840806362BDF85F
:1015A0003C30019663856C4B0097E362638D4A463D
:1015B00023855346FFF7FAFC054630B1236C84F8C7
:1015C0003C80042B3DD10125BAE7228D236892B9D6
:1015D00002905A6902929A690292029A1A6842F437
:1015E00000721A60202384F83D30002384F83E30D6
:1015F00084F83C30A4E7012A25D11A6822F48062DD
:101600001A6072B6236803905A6903929A6903922A
:10161000039A1A6842F400721A6062B6DFF83C81DD
:10162000238D002BDED0032B77D8012B27D1324618
:1016300039462046FFF734FD00283FD0236C202B8D
:10164000C1D103257CE7022A1A680ED142F4006258
:101650001A6072B6236804905A6904929A690492D7
:10166000049A1A6822F48062D6E742F480621A6013
:1016700005905A6905929B690593059BCEE7022B5D
:1016800000963B464FF000024146204624D1FFF72A
:10169000E6FB0028D5D172B623681A6842F40072BE
:1016A0001A60626A1B69511C61621370238D013BD1
:1016B0002385638D013B9BB2638562B6636A5A1CC6
:1016C0006262226812691A70238D013B2385638D43
:1016D000013B9BB26385A3E7FFF7C1FB02460028ED
:1016E000AFD121680B6823F480630B6072B6636A24
:1016F0002046591C6162216809691970238D009682
:10170000013B2385638D4146013B9BB263853B468C
:10171000FFF7A5FB0028BFD093E7324639462046A5
:10172000FFF7BEFC002889D1636A5A1C62622268F6
:1017300012691A70238D2268013B2385638D013B5A
:101740009BB2638553695B077FF56AAF636A591C77
:101750006162B7E7020010000000FFFF0400010013
:101760002DE9F04F044685B0984689469246FFF72A
:10177000C1F994F83D300646202B03D0022005B075
:10178000BDE8F08F0090192301224B492046FFF756
:1017900066FB0028F2D194F83C30012BEED00123F7
:1017A00084F83C30236800251A68DFF80CB1D207B2
:1017B00058BF1A6809F0FE095CBF42F001021A60C6
:1017C0001A6822F400621A60242384F83D303B4BEF
:1017D0002564E36222684FF001111368204643F448
:1017E00080731360009643460022FFF738FB08B170
:1017F0000320C4E72368A027C3F81090FFF77AF905
:101800000646236859695A6994F83D30C1F340018E
:10181000C2F38022DBB211B90AB9A02B20D1202754
:10182000236884F83D705A6912F0020F1A6842F476
:1018300000721A602AD0002203925A691E4903924C
:101840009B6901220393039B009619232046FFF70F
:1018500006FB0028CCD184F83D7084F83C008EE76C
:10186000B8F1000F0CD184F83D70236859695A69AA
:1018700094F83D30C1F34001C2F38022DBB2CAE7E5
:10188000FFF738F9801B8045EDD3EEE76FF48062F7
:1018900059465A612046009619230122FFF7DFFAC4
:1018A0000028A5D10135AA4594D884F83C0084F8D5
:1018B0003D70012063E700BF020010000000FFFF41
:1018C00003682DE9F341DB07054610D42B689F0719
:1018D0005ED42B68190700F195802B685A0700F138
:1018E000BF80EA69002A40F02D81002014E0904C6E
:1018F000636803F00C03042B07D0636803F00C0348
:10190000082B0CD16368DE0309D523689C03DDD561
:101910006B68002BDAD1012002B0BDE8F0816B6862
:10192000B3F5803F10D1236843F480332360FFF781
:10193000E1F8064623689803C8D4FFF7DBF8801B5C
:101940006428F7D90320E7E79BB9236823F48033A1
:101950002360236823F480232360FFF7CBF8064637
:1019600023689903B2D5FFF7C5F8801B6428F7D91F
:10197000E8E7B3F5A02F236803D143F48023236065
:10198000D1E723F480332360236823F48023CDE759
:10199000674C636813F00C0F07D0636803F00C0307
:1019A000082B10D16368DA030DD423689B0702D596
:1019B0002B69012BAFD123686A6923F0F80343EA4E
:1019C000C203236085E72A695A4B6AB101221A6073
:1019D000FFF790F8064623689F07ECD4FFF78AF8D4
:1019E000801B0228F7D9ADE71A60FFF783F8064697
:1019F000236898077FF56DAFFFF77CF8801B0228FE
:101A0000F6D99FE7AA694A4C4B4BDAB101221A601A
:101A1000FFF770F80646636A9B070DD54FF4FA523C
:101A2000464B1B68B3FBF2F3019300BF019B5A1EA8
:101A30000192002BF9D150E7FFF75CF8801B0228D8
:101A4000E9D97FE71A60FFF755F80646636A9F07F2
:101A50007FF543AFFFF74EF8801B0228F6D971E7F8
:101A6000334CE369D80024D40127E36943F0805361
:101A7000E361E36903F080530093009B304E3368C9
:101A8000D90518D5EB68012B26D1236A43F0010351
:101A90002362FFF72FF841F288368046236A9B07BE
:101AA0003FD5002F3FF41DAFE36923F08053E3617E
:101AB00017E70027E2E7336843F480733360FFF7EA
:101AC00019F880463368DA05DCD4FFF713F8A0EB89
:101AD00008006428F6D935E7ABB9236A41F28838A3
:101AE00023F001032362236A23F004032362FFF738
:101AF00001F80646236A9807D3D5FEF7FBFF801B43
:101B00004045F7D91EE7052B236A03D143F00403B0
:101B10002362BAE723F001032362236A23F004035C
:101B2000B6E7FEF7E7FFA0EB0800B042B6D909E739
:101B30000010024000004242800442421000002097
:101B400000700040224C636803F00C03082B3FF444
:101B5000E2AE00231F4E022A33602BD1FEF7CAFFEC
:101B60000746236899011FD42B6AB3F5803F05D13E
:101B70006268A96822F400320A436260696A626896
:101B80000B4322F474121343636001233360FEF7A6
:101B9000B1FF054623689A013FF5A7AEFEF7AAFFFD
:101BA000401B0228F6D9CDE6FEF7A4FFC01B022891
:101BB000D7D9C7E6FEF79EFF054623689B017FF550
:101BC00094AEFEF797FF401B0228F6D9BAE600BF95
:101BD000001002406000424230B5194B87B002ACA1
:101BE00003F11005224618685968083303C2AB4256
:101BF0001446F7D101238DF80430022311498DF8E2
:101C000005304B6803F00C02082A17D1C3F3834256
:101C100006A80244DB0312F8102C0CD54B680A48C6
:101C2000C3F34043504306AA134413F8143CB0FBDB
:101C3000F3F007B030BD05485043FAE70248F8E733
:101C4000D03A00080010024000127A0000093D005E
:101C5000544A2DE9F0411368054603F007038B420F
:101C60000E462AD329688C0734D4CA0747D44D4A74
:101C7000136803F007039E42C0F082802A684A4C32
:101C800012F0040F40F08780130706D563682A69B5
:101C900023F4605343EAC2036360FFF79DFF636868
:101CA000424AC3F30313D35CD840414B1860002071
:101CB000FEF7DEFE0020BDE8F081136823F0070385
:101CC0000B431360136803F007039942CAD0012045
:101CD000BDE8F081344B11F0040F1EBF5A6842F486
:101CE000E0625A60080742BF5A6842F460525A6084
:101CF0005A68A86822F0F00202435A60B5E76A68A1
:101D0000294C012A23681CD113F4003FDFD06368FB
:101D100041F2883823F0030313436360FEF7EAFEC1
:101D20006B680746012B14D1636803F00C03042B86
:101D30009DD0FEF7DFFEC01B4045F5D90320BDE86E
:101D4000F081022A02D113F0007FDFE713F0020FC7
:101D5000DCE7022B0FD1636803F00C03082B86D05D
:101D6000FEF7C8FEC01B4045F5D9E7E7FEF7C2FE07
:101D7000C01B4045E2D8636813F00C0FF6D176E73C
:101D8000136823F0070333431360136803F007035A
:101D90009E429CD172E76368E96823F4E0630B43D9
:101DA000636071E70020024000100240E044000838
:101DB00010000020044B054A5B68C3F30223D35C88
:101DC000034A1068D840704700100240F0440008F1
:101DD00010000020036A70B523F001030362036A58
:101DE000446882690D6822F073022A438D6823F0EB
:101DF00002032B430A4DA8420BD1CD6823F0080300
:101E00002B438E694D6924F44074354323F0040359
:101E10002C43446082614A684263036270BD00BF24
:101E2000002C0140036A70B523F480730362036AD7
:101E30004468C2690D6822F073022A438D6823F456
:101E4000007343EA05230B4DA8420DD1CD6823F45E
:101E5000006343EA05238E694D6924F440543543F9
:101E600023F4806344EA05144460C2614A68C26393
:101E7000036270BD002C0140036A30B523F4805327
:101E80000362036A4468C2690D6822F4E64242EACA
:101E900005228D6823F4005343EA0533064DA8421A
:101EA00002BF4D6924F4804444EA85144460C26151
:101EB0004A680264036230BD002C014003680020C0
:101EC000DA6842F00102DA601A6842F001021A6030
:101ED0007047704790F83C3070B5012B4FF002030B
:101EE0001CD0012280F83D30036880F83C209A68BD
:101EF00022F47F4222F077029A600A68402A79D061
:101F000019D8102A00F093800AD8002A00F089809E
:101F1000012380F83D30002380F83C30184670BD26
:101F2000202A00F08A80302AF2D19A6822F07002CA
:101F300042F0370236E0702A36D01BD8502A42D001
:101F4000602AE5D11C6A4D6824F01004CE681C623A
:101F500099691A6A21F4704122F0A00242EA05123E
:101F600041EA063199611A629A6822F0700242F0E1
:101F7000670217E0B2F5805F11D0B2F5005FC7D1FC
:101F80008A684D689C68C9682A4324F47F4442EA01
:101F9000012222439A609A6842F4804202E09A68E1
:101FA00022F007029A60B3E78A684D689C68C968A6
:101FB0002A4324F47F4442EA012222439A609A6829
:101FC00042F07702EEE74C68CE68196A1D6A21F08C
:101FD0000A0125F001051D629A69214322F0F002F1
:101FE00042EA06129A6119629A6822F0700242F07F
:101FF0005702D7E74C68CE68196A1D6A21F00A01BA
:1020000025F001051D629A69214322F0F00242EA9F
:1020100006129A6119629A6822F0700242F0470231
:10202000C0E79A6822F0700242F00702BAE79A68A5
:1020300022F0700242F01702B4E79A6822F07002B0
:1020400042F02702AEE7704770477047704770470D
:10205000036810B51A69044691070ED5DA6892072D
:102060000BD56FF002021A6101229B6902779B0770
:1020700077D0FFF7EAFF0023237723681A69500718
:1020800010D5DA6851070DD56FF004021A610222EB
:102090009B69227713F4407F204668D0FFF7D5FF75
:1020A0000023237723681A6912070FD5DA6810070F
:1020B0000CD56FF008021A610422DB6922779907B8
:1020C00020465AD0FFF7C1FF0023237723681A69FF
:1020D000D20610D5DA68D0060DD56FF010021A615D
:1020E0000822DB69227713F4407F20464BD0FFF7AC
:1020F000ACFF0023237723681A69D10708D5DA6873
:10210000D20705D56FF0010220461A61FFF79BFF49
:1021100023681A69100608D5DA68110605D56FF02C
:10212000800220461A6100F074F923681A69520689
:1021300008D5DA68500605D56FF0400220461A61CE
:10214000FFF785FF23681A69910622D5DA6892069F
:102150001FD56FF020022046BDE810401A6100F044
:1021600057B9FFF771FF2046FFF770FF83E7FFF7CE
:102170006BFF2046FFF76AFF92E7FFF765FF2046F7
:10218000FFF764FFA0E7FFF75FFF2046FFF75EFF62
:10219000AFE710BD1A4A036890420AD0B0F1804FF1
:1021A00007D0A2F59432904203D002F580629042AB
:1021B00015D14A6823F070031343114A90420AD0A4
:1021C000B0F1804F07D0A2F59432904203D002F5CF
:1021D0008062904203D1CA6823F4407313434A6972
:1021E00023F08003134303608B68C3620B68836230
:1021F000034B984204BF0B6903630123436170479B
:10220000002C014010B50446A0B190F83D3003F019
:10221000FF021BB980F83C2000F0B4FF02232068C5
:1022200084F83D30211DFFF7B5FF0123002084F81D
:102230003D3010BD012010BD10B50446A0B190F88E
:102240003D3003F0FF021BB980F83C20FFF741FE50
:102250000223206884F83D30211DFFF79BFF0123F6
:10226000002084F83D3010BD012010BD036A70B518
:1022700023F010030362036A446882690D6822F444
:10228000E64242EA05228D6823F0200343EA051363
:102290000B4DA8420DD1CD6823F0800343EA05130E
:1022A0008E694D6924F44064354323F0400344EAC9
:1022B0008504446082614A688263036270BD00BF26
:1022C000002C014038B590F83C300446012B4FF00B
:1022D000020025D0012384F83D0084F83C300C2A0C
:1022E00018D8DFE802F0071717171E1717172F1750
:1022F000171740002068FFF76DFD236809699A6988
:1023000042F008029A619A6922F004029A619A697D
:102310000A439A610123002084F83D3084F83C0090
:1023200038BD2068FFF7A2FF236809699A6942F463
:1023300000629A619A6922F480629A619A6942EA1B
:102340000122E6E72068FFF76DFD23680969DA6975
:1023500042F00802DA61DA6922F00402DA61DA692D
:102360000A43DA61D6E72068FFF786FD236809692A
:10237000DA6942F40062DA61DA6922F48062DA61D1
:10238000DA6942EA0122ECE710B50124036A8C40C5
:1023900023EA04030362036A8A401A43026210BDFF
:1023A00010B5044601220068FFF7EEFF2368064AD5
:1023B0000020934202BF5A6C42F400425A641A68E9
:1023C00042F001021A6010BD002C014090F83C3030
:1023D00010B5012B4FF0020318D080F83D30036890
:1023E0000C685A68496822F070025A605A682243A1
:1023F0005A609A6822F080029A609A680A439A604A
:10240000012380F83D30002380F83C30184610BD91
:102410007047704780232DE9F04301244FF4803842
:1024200087B006AD1F4F05F8043D6B222346D0212F
:10243000CDF80880019400953846FEF7DBFF4FF099
:102440000009194E30703220FEF75AFB2346CDF8B2
:102450000880019400956B22D02138468DF81490A5
:10246000FEF7C8FF082330708DF81430CDF80880CF
:102470002346019400951B22D0213846FEF7BAFF6F
:10248000CDF8088030700194009523461C22D0219D
:1024900038468DF81490FEF7ADFF307007B0BDE8F8
:1024A000F08300BFA404002092050020002210B594
:1024B00086B00492ADF814204FF4803202920622C6
:1024C00004AB0446019200933B220123D0210E4825
:1024D000FFF726F80D4B9DF8102018709DF811306D
:1024E00003EB022323809DF812209DF8133003EBA9
:1024F000022363809DF814209DF8153003EB02231E
:10250000A38006B010BD00BFA404002092050020E7
:10251000002210B586B00492ADF814204FF480323A
:102520000292062204AB0446019200934322012347
:10253000D0210E48FEF7F4FF0D4B9DF810201870C7
:102540009DF8113003EB022323809DF812209DF8A3
:10255000133003EB022363809DF814209DF815309F
:1025600003EB0223A38006B010BD00BFA40400202B
:10257000920500200000000000232DE9F04F6A4A78
:1025800085B06A4C6A4D02A80293ADF80C301380F6
:1025900023802B80FFF78AFFBDF90A00FDF72AFF91
:1025A0000646BDF908000F46FDF724FF8046BDF939
:1025B0000C008946FDF71EFF424682468B464B467D
:1025C00040464946FDF77CFF5246804689465B46B9
:1025D00050465946FDF774FF02460B4640464946B1
:1025E000FDF7BCFD00F0ECFE02460B4630463946D6
:1025F00000F0E4FE46A3D3E90023FDF761FFFEF7F8
:102600000FFADFF848A1AAF80000BDF90800FDF7AD
:10261000F1FE8046BDF90A008946FDF7EBFE06464D
:10262000BDF90C000F46FDF7E5FE3246CDE900018D
:102630003B4630463946FDF743FFDDE900230646B9
:102640000F4610461946FDF73BFF02460B46304643
:102650003946FDF783FD00F0B3FE02460B464046C7
:10266000494600F0ABFE2AA3D3E90023FDF728FF7B
:10267000FEF7D6F92F4B06B21E80BDF80C202E4B6C
:10268000BAF900701A802D4BB3F900002C4B3218A8
:102690001A802C4BB3F900B02B4B0BEB07021A80BE
:1026A000FDF7A8FE1CA3D3E90023FDF709FF804630
:1026B00030468946FDF79EFE19A3D3E90023FDF7B6
:1026C000FFFE02460B4640464946FDF747FDFEF732
:1026D000A7F928805846FDF78DFE0FA3D3E9002304
:1026E000FDF7EEFE804638468946FDF783FE0CA3D3
:1026F000D3E90023FDF7E4FE02460B464046494677
:10270000FDF72CFDFEF78CF9208005B0BDE8F08FB9
:1027100000000020DCA54C409A9999999999E93FCD
:102720009A9999999999C93F7E05002054050020EE
:10273000760500207A05002056050020800500203F
:1027400078050020580500204C0500207C0500205D
:1027500000232DE9F743444E444C454D6846009311
:10276000ADF80430338023802B80FFF7D1FE414B3E
:10277000BDF900001B682880C01A3F4B00B21880CA
:102780003E4BBDF902501B682580ED1A3C4B2DB223
:102790001D803C4BBDF904401B683480E41A3A4B61
:1027A00024B21C80FDF726FE2BA3D3E90023FDF7FE
:1027B000B1FF2BA3D3E90023FDF782FE334E804601
:1027C000B6F900008946FDF715FE02460B46404665
:1027D0004946FDF7C3FCFEF723F930802846FDF794
:1027E00009FE1DA3D3E90023FDF794FF1CA3D3E941
:1027F0000023FDF765FE264E8046B6F900008946A7
:10280000FDF7F8FD02460B4640464946FDF7A6FC9B
:10281000FEF706F930802046FDF7ECFD0EA3D3E964
:102820000023FDF777FF0EA3D3E90023FDF748FE51
:10283000184D0646B5F900000F46FDF7DBFD0246D0
:102840000B4630463946FDF789FCFEF7E9F828804B
:1028500003B0BDE8F08300BF0000000000605040FE
:102860009A9999999999B93F90050020700500208F
:102870004E050020600500206A0500206405002048
:10288000840500205C0500208205002080050020D2
:10289000580500206E050020F8B542F210740D4E68
:1028A0000D4F0E4DFFF754FF3268B7F90030013C71
:1028B000134433600A4B2A68B3F9003013442B6089
:1028C000084A094B1168B3F900300B441360E9D191
:1028D000F8BD00BF600500204E0500206405002003
:1028E000700500205C0500209005002042F2107267
:1028F00007490B6893FBF2F30B6006490B6893FBE7
:10290000F2F30B6004490B6893FBF2F30B60704722
:1029100060050020640500205C0500200F4B84B09A
:102920009A6942F020029A619A6902F020020192AB
:10293000019A9A6942F004029A619A6902F00402CB
:102940000292029A9A6942F008029A619B6903F026
:1029500008030393039B04B0704700BF00100240BC
:1029600008B50C480C4BDFF834E04FF4804280E8A7
:102970000840002302618360C36043618361C361D7
:102980000362FEF7E1FB18B1BDE8084000F04EB964
:1029900008BD00BFA404002000540040801A0600B7
:1029A00008B50C480C4BDFF834E04FF4804280E867
:1029B0000840002302618360C36043618361C36197
:1029C0000362FEF7C1FB18B1BDE8084000F02EB964
:1029D00008BD00BFF804002000580040A086010098
:1029E000102210B5044688B00DEB0200002100F063
:1029F000DDFC2368214A93421ED1214C04A9A3691E
:102A0000204843F00803A361A36903F0080300937F
:102A1000009BC02304931223059303230793FEF71F
:102A2000E9F8E36943F40013E361E36903F4001395
:102A30000193019B08B010BD134A9342FAD1104C88
:102A400004A9A3690F4843F00803A361A36903F035
:102A500008030293029B4FF44063049312230593EF
:102A600003230793FEF7C6F8E36943F48003E361A9
:102A7000E36903F480030393039BDBE70054004006
:102A800000100240000C01400058004010B590B00A
:102A90002822002106A800F089FC0021142201A8A8
:102AA00000F084FC4FF480330122022407930E933C
:102AB0004FF4E01306A806920A920F930D94FEF7C6
:102AC000FFFE0F234FF4806201930023214601A8EB
:102AD0000294039304920593FFF7BAF810B010BD67
:102AE0000028B4BF012200224FF006034FF00A0174
:102AF00030B5B8BF40420B4DB8BF00B2013BDBB2AE
:102B0000FF2B06D122B1074B5A780AB12D221A7039
:102B100030BD90FBF1F401FB14003030E85420B2DA
:102B2000ECE700BF8605002080B5FDF7C5FFFFF785
:102B3000ADFFFFF7F3FE00F08DFB00F0B7FAFFF7F3
:102B40000FFF00F0E9FAFFF72BFFFFF763FCFFF739
:102B5000A3FEFFF7CBFEFFF70FFD00F011F90021F8
:102B60002748FFF71DFC04212548FFF719FC082121
:102B70002348FFF715FC2348FFF7A0F92248FFF789
:102B80009DF900222149224C0A802249224E234DE0
:102B900022800A80224B1A7802B9FEE700271F70B4
:102BA000FFF7D6FDFFF7E8FC1E4BB3F90000FFF777
:102BB00097FF3846142100F07FF80122314628465D
:102BC00000F0BAF8184BB3F90000FFF789FF1421A1
:102BD000502000F071F801223146284600F0ACF890
:102BE000B4F90000FFF77CFF1E212D2000F064F8EF
:102BF00001223146284600F09FF800F019F8C9E795
:102C000014060020D405002094050020580500205B
:102C10006E050020800500200800002086050020A9
:102C20005005002076050020540500207047000064
:102C3000402307B5064A782113704FF47A7305488C
:102C4000009340F20143FEF7FFFA03B05DF804FB86
:102C50009E000020F804002000284FF4806214BF7A
:102C6000FF210021014800F0A1BB00BF9F00002010
:102C70007F2810B51AD83F2918D80D4B1B7913B1EE
:102C8000B2FA82F25209CC08012A0A4B01F007017C
:102C900000EBC41004D18A40195C0A431A5410BDD9
:102CA00001228A40195C21EA0201195410BD00BFBB
:102CB000980000209F000020014B18805980704729
:102CC000980000202DE9F0474FF0000A80460D469D
:102CD00091465646174F6B789E4223D2002419E046
:102CE0006968AA78D80808FB0212125C03F007038F
:102CF00042FA03F3DB0758BFB9FA89F279883888BA
:102D0000314420444CBF4A46520989B280B2FFF791
:102D1000AFFF01342A780AEB04039442E0D3013672
:102D20009A46D8E7034A2B78118840460B44138013
:102D3000BDE8F0879800002070B50D461646441E89
:102D4000637843B1184632462946FFF7BBFF14F8B3
:102D5000013F9842F4D0184670BD00001FB50A2309
:102D60008DF80C108DF80D2000930146022303AA64
:102D70000248FEF769FA05B05DF804FBF80400208C
:102D800010B544F62063012278215048FEF7E8FC94
:102D90000446002840F097800146AE227820FFF7D5
:102DA000DDFF214620227820FFF7D8FF21461022A0
:102DB0007820FFF7D3FF2146B0227820FFF7CEFF1F
:102DC0002146C8227820FFF7C9FF224621467820F5
:102DD000FFF7C4FF214610227820FFF7BFFF2146EE
:102DE00040227820FFF7BAFF214681227820FFF7A2
:102DF000B5FF2146FF227820FFF7B0FF2146A12230
:102E00007820FFF7ABFF2146A6227820FFF7A6FF28
:102E10002146A8227820FFF7A1FF21463F227820F3
:102E2000FFF79CFF2146A4227820FFF797FF214659
:102E3000D3227820FFF792FF224621467820FFF721
:102E40008DFF2146D5227820FFF788FF2146F0220A
:102E50007820FFF783FF2146D9227820FFF77EFFF5
:102E6000214622227820FFF779FF2146DA227820B6
:102E7000FFF774FF214612227820FFF76FFF2146EB
:102E8000DB227820FFF76AFF214620227820FFF717
:102E900065FF21468D227820FFF760FF214614222E
:102EA0007820FFF75BFFAF2221467820FFF756FF1F
:102EB0002046FFF7D1FEFFF7BBFE0120044B5871FF
:102EC0001C805C8010BD002010BD00BFF8040020F5
:102ED000980000200E4B82B09A6942F001029A617C
:102EE0009A6902F001020092009ADA6942F0805277
:102EF000DA61DB69074A03F080530193019B536851
:102F000023F0E06343F00073536002B0704700BFEA
:102F100000100240000001407047FEE7FEE7FEE7B8
:102F2000FEE7704770477047FDF7D8BD3F4B70B460
:102F3000B3F900303E4A002B49D003EB830303F280
:102F4000DC5313803B4B11883B483C4A3C4CB3F963
:102F5000003001801180218053B19BB203EB8305C7
:102F60000D442580C3EB8335C3EB85030B441380ED
:102F7000344BB3F900305BB19BB2168803EB830589
:102F800035441580C3EB8335C3EB85030B440380C5
:102F90002388B3F5FA6F84BF4FF4FA632380138854
:102FA0002188B3F5FA6F84BF4FF4FA631380038866
:102FB000B3F5FA6F84BF4FF4FA6303804FF0804398
:102FC0005C6BA14206D2596B053959630BE040F2A4
:102FD000DC53B6E75C6BA14202D9596B0531F4E7CB
:102FE0005C6BA142F1D04FF080431288996B8A420A
:102FF0000FD29A6B053A9A634FF080430288D96BDF
:103000008A420CD2DA6B053ADA630F4870BCFFF7DC
:103010001FB8996B8A4284BF9A6B0532EBE7D96B74
:103020008A4284BFDA6B0532EEE700BF6E050020EE
:103030006805002080050020720500206C05002036
:103040008E05002058050020D40500200122024BE7
:1030500002481A70FEF7FCBF5005002094050020BE
:103060000F4B1A6842F001021A6059680D4A0A4073
:103070005A601A6822F0847222F480321A601A6848
:1030800022F480221A605A6822F4FE025A604FF439
:103090001F029A604FF00062034B9A60704700BFB6
:1030A000001002400000FFF800ED00E07FB51022A4
:1030B000002102A800F07AF940F2CF221448154905
:1030C000002380E8060040F2E7320093019383601A
:1030D000C26003618361FFF795F808B1FFF7A6FDB1
:1030E0004FF4805302A90A480293FEF7F3FE08B199
:1030F000FFF79CFD00236946054800930193FFF705
:1031000065F908B1FFF792FD07B05DF804FB00BF59
:10311000D4050020000400407FB51022002102A841
:1031200000F044F940F2CF2214481549002380E80A
:10313000060040F2E732009301938360C2600361AE
:103140008361FFF75FF808B1FFF770FD4FF480531C
:1031500002A90A480293FEF7BDFE08B1FFF766FD1B
:1031600000236946054800930193FFF72FF908B142
:10317000FFF75CFD07B05DF804FB00BF940500207D
:10318000000800401FB50368B3F1804F0DD103F56F
:103190000433DA6942F00102DA61DB6903F001030A
:1031A0000193019B05B05DF804FB154A934212D1CF
:1031B000144B1D20DA6942F00202DA610022DB6959
:1031C000114603F002030293029BFDF7BDFC1D2094
:1031D000FDF7EEFCE6E70C4A9342E3D1094B1E20D3
:1031E000DA6942F00402DA610022DB69114603F079
:1031F00004030393039BFDF7A7FC1E20E8E700BF31
:1032000000040040001002400008004010B50446D1
:1032100086B01022002102A800F0C8F82368B3F19C
:10322000804F13D103F504339A6902A942F00402D6
:103230009A619B69064803F004030193019B0723ED
:103240000293022303930593FDF7D4FC06B010BD4F
:103250000008014010B58EB01022002103A800F034
:10326000A5F800241C2221460DEB020001940294D3
:1032700000F09CF847234FF08042264880E80C007D
:1032800044F61F63C3608023846004618361FEF79A
:10329000B9FF08B1FFF7CAFC4FF4805303A91D48DA
:1032A0000393FEF717FE08B1FFF7C0FC1948FEF7BD
:1032B000C3FF08B1FFF7BAFC002301A91548019329
:1032C0000293FFF783F808B1FFF7B0FC60230022F8
:1032D000079340F2DC5307A90E48089309920B921A
:1032E000FEF7F0FF08B1FFF7A1FC042207A9094887
:1032F000FEF7E8FF08B1FFF799FC082207A9054887
:10330000FEF7E0FF08B1FFF791FC0248FFF77EFFF0
:103310000EB010BD14060020002103E00B4B5B58DB
:10332000435004310A480B4B42189A42F6D30A4ADA
:1033300002E0002342F8043B084B9A42F9D3FFF71E
:103340008FFE00F00FF8FFF7EFFB704748450008CD
:10335000000000207C0000207C000020540600209B
:10336000FEE7000070B500250C4E0D4CA41BA41008
:10337000A54209D100F09EFB00250A4E0A4CA41B71
:10338000A410A54205D170BD56F8253098470135E7
:10339000EEE756F8253098470135F2E7404500083A
:1033A00040450008404500084445000803460244E3
:1033B000934200D1704703F8011BF9E700F054B8BD
:1033C0002DE9F04F8BB004460D4600F027F9244B51
:1033D000804693F900A08946BAF1FF3F2BD02246E0
:1033E0002B4620462946FDF705FB834618BB0026E1
:1033F000002732463B4620462946FDF7D3FAD0B196
:1034000001230093174BCDF820B00193CDE904457B
:10341000CDE90245BAF1000F12D1CDE90667684641
:1034200000F03FFBB8B1089B1BB100F03DFB089BCF
:103430000360DDE90689404649460BB0BDE8F08FE0
:1034400032463B4630463946FDF764F9BAF1020F81
:10345000CDE90601E3D100F027FB21230360E2E779
:1034600014000020F84400082DE9F84F564223F0DC
:10347000004E1643DFF8A0914EEAD6764E4504463C
:103480000D46884607D8464221F00047064347EAE2
:10349000D6764E4506D920462946FCF75FFE0446FF
:1034A0000D4615E003F1404606F58016164303D19C
:1034B000BDE8F84F00F060B99E1706F0020646EA34
:1034C000D17650EA070107D1022E30D0032E32D038
:1034D00020462946BDE8F88F52EA0E0106D1B8F120
:1034E000000F71DA3AA5D5E90045F1E7CE4526D1BE
:1034F000774511D1022E07D0032E09D0012E5DD1C0
:1035000035A5D5E90045E3E735A5D5E90045DFE771
:1035100035A5D5E90045DBE7022E08D0032E0AD0F9
:10352000012E4FF000044DD14FF00045D0E730A5FB
:10353000D5E90045CCE730A5D5E90045C8E74F45BA
:10354000CDD0A7EB0E073F153C2F1EDC002B01DA78
:103550003C371EDB20462946FDF7DCF800F09EFADA
:1035600000F00AF904460D46012E15D0022E16D0A1
:10357000002EADD022A3D3E9002320462946FCF734
:10358000EBFD1BA3D3E9002315E01FA5D5E90045FA
:10359000EAE700240025E7E705F1004598E718A3CE
:1035A000D3E9002320462946FCF7D6FD02460B4608
:1035B0000FA1D1E90001FCF7CFFD70E714A5D5E913
:1035C000004585E7002583E70FA5D5E900457FE79E
:1035D000182D4454FB21F9BF182D4454FB21E9BF99
:1035E000D221337F7CD90240D221337F7CD902C0E3
:1035F000182D4454FB210940182D4454FB2109C0C7
:10360000075C143326A6A13C182D4454FB21F93F36
:10361000182D4454FB21E93F0000F07F2DE9F041D3
:10362000DFF84CE106463EEA010E0D4607460A4623
:103630000C4603460FD102460B46FCF741FF0246FB
:103640000B4630462946FCF789FD06460D463046B6
:103650002946BDE8F08100290EDC21F0004E5EEA2B
:103660000707F4D041B102460B46FCF775FD024650
:103670000B46FDF74FF8E8E712150CD1002C6ED081
:103680000021E6026FD5481E121AC1F1200023FA6C
:1036900000F004438B40A2F2FF32D5074FF0000543
:1036A000C4F3130444F4801442BF640004EBD374E5
:1036B0005B0004EBD3715010214416222C464FF4CA
:1036C00000165B00A7198F42DEBFC91BBC19AD19DC
:1036D0004900013A01EBD3714FEA56064FEA430322
:1036E000F0D14FF0200E94464FF00046A14206EB79
:1036F0000C0702DC12D19F4210D8002F07EB060CFA
:1037000034DABCF1000F31DB04F10108091B444637
:103710009F4288BF01F1FF31DB1B324401EBD377BD
:10372000BEF1010E39444FEA43034FEA5606DDD19C
:103730000B4306D0541C0BBF72460132013522F0F8
:1037400001026B105208E90703F17F5303F50013E0
:1037500048BF42F0004203EB0055164677E7DC0A0B
:10376000153A5B058AE7640001318AE7A046CDE798
:103770000000F07F000000002DE9F84FBA4B21F067
:1037800000469E4204460D468B4617DDB74A9642D8
:1037900001DC09D140B122462B4620462946FCF7E0
:1037A000DDFC04460D4605E0BBF1000FB04C00F314
:1037B0002981B04D20462946BDE8F88FAE4B9E4288
:1037C00011DCA3F1DE739E420ADC8FA3D3E9002350
:1037D000FCF7C4FC0022A94BFDF702F90028E9D14F
:1037E0004FF0FF3A27E000F059F9A54B04469E42FE
:1037F0000D4600F3B880A3F550239E4200F39C8051
:1038000002460B46FCF7AAFC00229C4BFCF7A4FCEA
:10381000002206460F464FF0804320462946FCF71B
:103820009DFC02460B4630463946FCF773FF4FF0CD
:10383000000A04460D4622462B4620462946FCF740
:103840003FFE02460B4680468946FCF739FE70A3D0
:10385000D3E9002306460F46FCF732FE6EA3D3E9F8
:103860000023FCF77BFC32463B46FCF729FE6CA3A9
:10387000D3E90023FCF772FC32463B46FCF720FEFE
:1038800069A3D3E90023FCF769FC32463B46FCF709
:1038900017FE67A3D3E90023FCF760FC32463B46E2
:1038A000FCF70EFE64A3D3E90023FCF757FC424665
:1038B0004B46FCF705FE62A3D3E900238046894608
:1038C00030463946FCF7FCFD5FA3D3E90023FCF743
:1038D00043FC32463B46FCF7F3FD5DA3D3E90023EE
:1038E000FCF73AFC32463B46FCF7EAFD5AA3D3E923
:1038F0000023FCF731FC32463B46FCF7E1FD58A3C0
:10390000D3E90023FCF728FC32463B46FCF7D8FD00
:10391000BAF1FF3F02460B464ED140464946FCF7FE
:103920001DFC22462B46FCF7CBFD02460B462046EB
:103930002946FCF711FC34E70022504BFCF70CFC45
:10394000002206460F464D4B20462946FCF706FC52
:1039500002460B4630463946FCF7DCFE4FF0010AC2
:1039600004460D4667E7474B9E421ADC0022464B51
:10397000FCF7F2FB002206460F46434B2046294641
:10398000FCF79EFD00223D4BFCF7E8FB02460B4690
:1039900030463946FCF7BEFE4FF0020A04460D469B
:1039A00049E702460B4600203849FCF7B3FE4FF0CA
:1039B000030A04460D463EE740464946FCF7CEFB67
:1039C00022462B46FCF77CFD314E324B4FEACA0AA9
:1039D00056449A44DAE90023FCF7BEFB22462B4604
:1039E000FCF7BAFB02460B46D6E90001FCF7B4FB34
:1039F000BBF1000F04460D46BFF6DCAE01F10043FB
:103A00001D46D7E6244DD5E69C7500883CE4377EFC
:103A100011DA22E33AAD903FEB0D76244B7BA93FC0
:103A2000513DD0A0660DB13F6E204CC5CD45B73F8E
:103A3000FF8300922449C23F0D5555555555D53F3A
:103A40002F6C6A2C44B4A2BF9AFDDE522DDEAD3F2E
:103A50006D9A74AFF2B0B33F711623FEC671BC3FCE
:103A6000C4EB98999999C93FFFFF0F440000F07F7C
:103A7000182D4454FB21F9BFFFFFDB3F0000F03F4E
:103A8000FFFFF23FFF7F03400000F83F0000F0BF60
:103A90000045000820450008FB21F93F21F00041C6
:103AA0007047002070470000014B1868704700BF46
:103AB00018000020F8B500BFF8BC08BC9E4670474F
:0C3AC000F8B500BFF8BC08BC9E4670477B
:103AD00002030405060708090A0B0C0D0E0F10104F
:103AE00000000000000000000000000487E3E37015
:103AF00010000000001545454151540000000089A8
:103B0000C42391F0201008000087C020D021300885
:103B10000400008E40C0E19038241200008140E093
:103B2000E11138040200000E85C20100000000000F
:103B3000000002E143207C0000000089C5A2911032
:103B400008041E000000000000000000000008043F
:103B500002F1000000000000000000F0402010080A
:103B600004000000008043201008040008040281C3
:103B7000030000000000080402F1432010080400C4
:103B80003F00000000000000000000C00F00000027
:103B900000000000000000F0030000000000000032
:103BA000000000FC00000000000000000000003FDA
:103BB000000008040281432010080400080402F1F8
:103BC000402010080400080402F103000000000077
:103BD000000000F043201008040008040281402087
:103BE00010080400001084202040403E0000000126
:103BF00001028210043E00000000C047A1502800CE
:103C000000000010C487F01104000000000C89E0DF
:103C100021706C0400000000008000000000000023
:103C200000000000000000000000000402814000CD
:103C300010000000000A8502000000000000000AD9
:103C4000C547F15128000000000447C14171100030
:103C5000000000928A82A0A8240000000082424155
:103C6000504958000000000C8200000000000000D5
:103C70000008824020202000000000020202812073
:103C800008000000008088E2A38800000000000017
:103C900002E143200000000000000000006010046A
:103CA0000000000000E00300000000000000000031
:103CB00000203808000000100882200804000000DE
:103CC00000044524125110000000000443814020EC
:103CD0007C000000008E088421087C000000001F8A
:103CE000088201893800000000088622F141200086
:103CF0000000009F4063028938000000000C41A0D2
:103D0000318938000000001F08024110080000003F
:103D1000008E48C4118938000000008E48C6024158
:103D20001800000000008283002038080000000016
:103D300082830060100400000010044140404000F5
:103D400000000000C007F0010000000000010101B8
:103D5000411004000000008E0882400010000000A6
:103D6000008E48A6D2083800000000044524F289DD
:103D700044000000000F89C421913C000000008E27
:103D80004820108838000000000F894422913C0030
:103D90000000009F40E011087C000000009F40E010
:103DA000110804000000008E4820908938000000AF
:103DB000009148E4138944000000000E0281402075
:103DC00038000000001C080402893800000000913F
:103DD00044615048440000000081402010087C00ED
:103DE00000000091C8A61289440000000091C8A4F8
:103DF000928944000000008E482412893800000097
:103E0000008F48E4110804000000008E482412A925
:103E100038200000008F48E4514844000000008E24
:103E200048C0018938000000001F028140201000B6
:103E30000000009148241289380000000091484495
:103E4000A15010000000009148A452D94400000085
:103E500000918882A0884400000000918882402060
:103E600010000000001F088220087C000000000EE7
:103E70008140201038000000008180808080400058
:103E80000000000E040281403800000000044504D8
:103E9000000000000000000000000000003E0000E4
:103EA0000006020200000000000000008003E2891A
:103EB0007800000000814063129934000000000087
:103EC00080231288380000000010882513C958008C
:103ED000000000008023F20938000000000C89E097
:103EE00021100800000000008025610838220E0023
:103EF000008140631289440000000004808140205A
:103F000038000000000800038140241206000081F0
:103F1000402471484400000000060281402038001F
:103F200000000000C0A252A944000000000040634D
:103F3000128944000000000080231289380000002C
:103F4000000040633269040201000000802593B143
:103F50004020100000004063120804000000000030
:103F60008023E0803C0000000002C143209030002C
:103F700000000000402412C9580000000000402446
:103F8000A250100000000000402452A928000000A8
:103F9000000040444150440000000000402492B121
:103FA00040220E000000C00741107C0000000018F5
:103FB00002C2802060000000000402814020100046
:103FC00000000003828021200C00000000924A02C1
:103FD00000000000000000000000000000000000E1
:103FE00000000000000000000000000000000000D1
:103FF00000000000000000000000000000000000C1
:1040000000000000000000000000000000000000B0
:1040100000000000000000000000000000000000A0
:104020000000000000000000000000000000000090
:104030000000000000000000000000000000000080
:104040000000000000000000000000000000000070
:104050000000000000000000000000000000000060
:104060000000000000000000000000000000000050
:104070000000000000000000000000000000000040
:104080000000000000000000000000000000000030
:104090000000000000000000000000000000000020
:1040A0000000000000000000000000000000000010
:1040B0000000000000000000000000000000000000
:1040C00000000000000000000000000000000000F0
:1040D00000000000000000000000000000000000E0
:1040E00000000000000000000000000000000000D0
:1040F00000000000000000000000000000000000C0
:1041000000000000000000000000000000000000AF
:10411000000000000000000000000000000000009F
:10412000000000000000000000000000000000008F
:10413000000000000000000000000000000000007F
:10414000000000000000000000000000000000006F
:10415000000000000000000000000000000000005F
:10416000000000000000000000000000000000004F
:1041700014804FE011087C0000001C51B25ACC8A18
:1041800038000000000000000000000000000000F7
:10419000000000000000000000000000000000001F
:1041A000000000000000000000000000000000000F
:1041B00000000000000000000000000000000000FF
:1041C00000040501000000000000000000000000E5
:1041D00000000000000000000000000000000000DF
:1041E00000000000000000000000000000000000CF
:1041F00000000000000000000000000000000000BF
:10420000000000000000000000800000000000002E
:10421000000A8023F20938000000000000000000BE
:10422000000000000000000000000000000000008E
:10423000000000000000000000000000000000007E
:10424000000000000000000000000000000000006E
:10425000000000000000000000000000000000005E
:1042600000822212F94422000000804720F0884496
:104270001E000000804724F288441E000000804F8A
:104280002010080402000000000C852291483E1115
:104290000000804F20F008043E000000804AA5E2A4
:1042A000A8542A000000004704C280441C000000FB
:1042B000804824539944220000000A422453994420
:1042C000220000008048A230282422000000008E36
:1042D000442291482200000080486453894422000F
:1042E0000000804824F28944220000000047241284
:1042F00089441C000000804F2412894422000000E1
:10430000804724F2080402000000004724100844FB
:104310001C000000800F8140201008000000804831
:1043200024A22008020000000082A352A93808003D
:104330000000804844415044220000008044229103
:1043400048243E100800804824E2814020000000FC
:10435000804AA552A9543E000000804AA552A954A3
:104360003E100800808140E090481C00000080481A
:104370002472C9642E000000008140E090481C00B7
:104380000000004704C281441C0000008044A57264
:10439000A95412000000004F24E2A14822000000AE
:1043A0000000C001F1443C000000004FC0118944EE
:1043B0001C0000000000E01179441E000000000015
:1043C000C023100804000000000080A150283E1106
:1043D00000000000C011F9041C0000000000A05201
:1043E00071542A0000000000C01161441C0000004C
:1043F00000002092A94C2200000000052192A94C47
:10440000220000000000209238242200000000005A
:104410008023914822000000000020B2A94422001D
:10442000000000002012F944220000000000C0112A
:1044300089441C0000000000E013894422000000B1
:104440000000A031894C1A8100000000C01109440D
:104450001C0000000000E0432010080000000000E5
:1044600020128978201107000002C151A9541C04B0
:104470000200000020A2202822000000000020915D
:1044800048243E10080000002012F14020000000E7
:104490000000A052A9543E0000000000A052A95400
:1044A0003E1008000000602070481C000000000062
:1044B0002012B9642E0000000000402070481C004B
:1044C00000000000C011E1441C0000000000205169
:1044D000B954120000000000C013F1442200000093
:1044E00000000000000000000102030406070809A4
:1044F00000000000010203047371727400000000E8
:104500004FBB610567ACDD3F182D4454FB21E93FEB
:104510009BF681D20B73EF3F182D4454FB21F93FDA
:10452000E2652F227F2B7A3C075C143326A6813C60
:10453000BDCBF07A8807703C075C143326A6913C0B
:044540003501000839
:044544001101000859
:104548000100000010000000070A0A00E03A000815
:1045580000A24A04010000001C0000200000000026
:104568000000000000000000000000000000000043
:104578000000000000000000000000000000000033
:104588000000000000000000000000000000000023
:104598000000000000000000000000000000000013
:1045A8000000000000000000000000000000000003
:0C45B800000000000000000000000000F7
:0400000508003319A3
:00000001FF
